{
  "contractName": "DaoBallot",
  "abi": [
    {
      "inputs": [
        {
          "internalType": "contract Recharge",
          "name": "_coin",
          "type": "address"
        },
        {
          "internalType": "uint256",
          "name": "_minutes",
          "type": "uint256"
        },
        {
          "internalType": "uint256",
          "name": "_numberProposals",
          "type": "uint256"
        }
      ],
      "stateMutability": "nonpayable",
      "type": "constructor"
    },
    {
      "inputs": [],
      "name": "admin",
      "outputs": [
        {
          "internalType": "address",
          "name": "",
          "type": "address"
        }
      ],
      "stateMutability": "view",
      "type": "function"
    },
    {
      "inputs": [],
      "name": "dc",
      "outputs": [
        {
          "internalType": "contract Recharge",
          "name": "",
          "type": "address"
        }
      ],
      "stateMutability": "view",
      "type": "function"
    },
    {
      "inputs": [],
      "name": "mins",
      "outputs": [
        {
          "internalType": "uint256",
          "name": "",
          "type": "uint256"
        }
      ],
      "stateMutability": "view",
      "type": "function"
    },
    {
      "inputs": [
        {
          "internalType": "uint256",
          "name": "",
          "type": "uint256"
        }
      ],
      "name": "proposalIds",
      "outputs": [
        {
          "internalType": "bytes32",
          "name": "",
          "type": "bytes32"
        }
      ],
      "stateMutability": "view",
      "type": "function"
    },
    {
      "inputs": [
        {
          "internalType": "uint256",
          "name": "",
          "type": "uint256"
        }
      ],
      "name": "proposals",
      "outputs": [
        {
          "internalType": "uint256",
          "name": "proposalId",
          "type": "uint256"
        },
        {
          "internalType": "uint256",
          "name": "voteCount",
          "type": "uint256"
        }
      ],
      "stateMutability": "view",
      "type": "function"
    },
    {
      "inputs": [],
      "name": "timer",
      "outputs": [
        {
          "internalType": "uint256",
          "name": "",
          "type": "uint256"
        }
      ],
      "stateMutability": "view",
      "type": "function"
    },
    {
      "inputs": [
        {
          "internalType": "address",
          "name": "",
          "type": "address"
        }
      ],
      "name": "voters",
      "outputs": [
        {
          "internalType": "uint256",
          "name": "weight",
          "type": "uint256"
        },
        {
          "internalType": "bool",
          "name": "voted",
          "type": "bool"
        },
        {
          "internalType": "uint256",
          "name": "vote",
          "type": "uint256"
        }
      ],
      "stateMutability": "view",
      "type": "function"
    },
    {
      "inputs": [
        {
          "internalType": "address",
          "name": "voter",
          "type": "address"
        }
      ],
      "name": "addVoter",
      "outputs": [],
      "stateMutability": "nonpayable",
      "type": "function"
    },
    {
      "inputs": [
        {
          "internalType": "uint256",
          "name": "proposal",
          "type": "uint256"
        }
      ],
      "name": "vote",
      "outputs": [],
      "stateMutability": "nonpayable",
      "type": "function"
    },
    {
      "inputs": [],
      "name": "winnerName",
      "outputs": [
        {
          "internalType": "uint256",
          "name": "winnerName_",
          "type": "uint256"
        }
      ],
      "stateMutability": "view",
      "type": "function"
    }
  ],
  "bytecode": "0x60806040523480156200001157600080fd5b506040516200126e3803806200126e833981810160405281019062000037919062000265565b826000806101000a81548173ffffffffffffffffffffffffffffffffffffffff021916908373ffffffffffffffffffffffffffffffffffffffff1602179055508160038190555033600460006101000a81548173ffffffffffffffffffffffffffffffffffffffff021916908373ffffffffffffffffffffffffffffffffffffffff160217905550600160056000600460009054906101000a900473ffffffffffffffffffffffffffffffffffffffff1673ffffffffffffffffffffffffffffffffffffffff1673ffffffffffffffffffffffffffffffffffffffff1681526020019081526020016000206000018190555060005b81811015620001a25760066040518060400160405280838152602001600081525090806001815401808255809150506001900390600052602060002090600202016000909190919091506000820151816000015560208201518160010155505080806200019990620002f0565b9150506200012c565b505050506200033e565b600080fd5b600073ffffffffffffffffffffffffffffffffffffffff82169050919050565b6000620001de82620001b1565b9050919050565b6000620001f282620001d1565b9050919050565b6200020481620001e5565b81146200021057600080fd5b50565b6000815190506200022481620001f9565b92915050565b6000819050919050565b6200023f816200022a565b81146200024b57600080fd5b50565b6000815190506200025f8162000234565b92915050565b600080600060608486031215620002815762000280620001ac565b5b6000620002918682870162000213565b9350506020620002a4868287016200024e565b9250506040620002b7868287016200024e565b9150509250925092565b7f4e487b7100000000000000000000000000000000000000000000000000000000600052601160045260246000fd5b6000620002fd826200022a565b91507fffffffffffffffffffffffffffffffffffffffffffffffffffffffffffffffff821415620003335762000332620002c1565b5b600182019050919050565b610f20806200034e6000396000f3fe608060405234801561001057600080fd5b506004361061009e5760003560e01c8063a4a38dba11610066578063a4a38dba14610170578063d8a531a61461018e578063e2ba53f0146101ac578063f4ab9adf146101ca578063f851a440146101e65761009e565b80630121b93f146100a3578063013cf08b146100bf57806388c9cb3c146100f05780639b644a231461010e578063a3ec138d1461013e575b600080fd5b6100bd60048036038101906100b89190610838565b610204565b005b6100d960048036038101906100d49190610838565b610435565b6040516100e7929190610874565b60405180910390f35b6100f8610469565b604051610105919061089d565b60405180910390f35b61012860048036038101906101239190610838565b61046f565b60405161013591906108d1565b60405180910390f35b6101586004803603810190610153919061094a565b610493565b60405161016793929190610992565b60405180910390f35b6101786104ca565b604051610185919061089d565b60405180910390f35b6101966104d0565b6040516101a39190610a28565b60405180910390f35b6101b46104f4565b6040516101c1919061089d565b60405180910390f35b6101e460048036038101906101df919061094a565b610572565b005b6101ee6106e4565b6040516101fb9190610a52565b60405180910390f35b6000600560003373ffffffffffffffffffffffffffffffffffffffff1673ffffffffffffffffffffffffffffffffffffffff168152602001908152602001600020905060008160000154141561028f576040517f08c379a000000000000000000000000000000000000000000000000000000000815260040161028690610aca565b60405180910390fd5b8060010160009054906101000a900460ff16156102e1576040517f08c379a00000000000000000000000000000000000000000000000000000000081526004016102d890610b36565b60405180910390fd5b60018160010160006101000a81548160ff0219169083151502179055508181600201819055508060000154600683815481106103205761031f610b56565b5b906000526020600020906002020160010160008282546103409190610bb4565b9250508190555060008054906101000a900473ffffffffffffffffffffffffffffffffffffffff1673ffffffffffffffffffffffffffffffffffffffff16631510c84f336040518263ffffffff1660e01b81526004016103a09190610a52565b602060405180830381600087803b1580156103ba57600080fd5b505af11580156103ce573d6000803e3d6000fd5b505050506040513d601f19601f820116820180604052508101906103f29190610c36565b610431576040517f08c379a000000000000000000000000000000000000000000000000000000000815260040161042890610caf565b60405180910390fd5b5050565b6006818154811061044557600080fd5b90600052602060002090600202016000915090508060000154908060010154905082565b60025481565b6001818154811061047f57600080fd5b906000526020600020016000915090505481565b60056020528060005260406000206000915090508060000154908060010160009054906101000a900460ff16908060020154905083565b60035481565b60008054906101000a900473ffffffffffffffffffffffffffffffffffffffff1681565b600061050160035461070a565b610540576040517f08c379a000000000000000000000000000000000000000000000000000000000815260040161053790610d1b565b60405180910390fd5b600661054a610775565b8154811061055b5761055a610b56565b5b906000526020600020906002020160000154905090565b600460009054906101000a900473ffffffffffffffffffffffffffffffffffffffff1673ffffffffffffffffffffffffffffffffffffffff163373ffffffffffffffffffffffffffffffffffffffff1614610602576040517f08c379a00000000000000000000000000000000000000000000000000000000081526004016105f990610d87565b60405180910390fd5b42600281905550600560008273ffffffffffffffffffffffffffffffffffffffff1673ffffffffffffffffffffffffffffffffffffffff16815260200190815260200160002060010160009054906101000a900460ff1615610699576040517f08c379a000000000000000000000000000000000000000000000000000000000815260040161069090610df3565b60405180910390fd5b6001600560008373ffffffffffffffffffffffffffffffffffffffff1673ffffffffffffffffffffffffffffffffffffffff1681526020019081526020016000206000018190555050565b600460009054906101000a900473ffffffffffffffffffffffffffffffffffffffff1681565b600080603c8361071a9190610e13565b9050806002544261072b9190610e6d565b1161076b576040517f08c379a000000000000000000000000000000000000000000000000000000000815260040161076290610d1b565b60405180910390fd5b6001915050919050565b6000806000905060005b6006805490508110156107f85781600682815481106107a1576107a0610b56565b5b90600052602060002090600202016001015411156107e557600681815481106107cd576107cc610b56565b5b90600052602060002090600202016001015491508092505b80806107f090610ea1565b91505061077f565b505090565b600080fd5b6000819050919050565b61081581610802565b811461082057600080fd5b50565b6000813590506108328161080c565b92915050565b60006020828403121561084e5761084d6107fd565b5b600061085c84828501610823565b91505092915050565b61086e81610802565b82525050565b60006040820190506108896000830185610865565b6108966020830184610865565b9392505050565b60006020820190506108b26000830184610865565b92915050565b6000819050919050565b6108cb816108b8565b82525050565b60006020820190506108e660008301846108c2565b92915050565b600073ffffffffffffffffffffffffffffffffffffffff82169050919050565b6000610917826108ec565b9050919050565b6109278161090c565b811461093257600080fd5b50565b6000813590506109448161091e565b92915050565b6000602082840312156109605761095f6107fd565b5b600061096e84828501610935565b91505092915050565b60008115159050919050565b61098c81610977565b82525050565b60006060820190506109a76000830186610865565b6109b46020830185610983565b6109c16040830184610865565b949350505050565b6000819050919050565b60006109ee6109e96109e4846108ec565b6109c9565b6108ec565b9050919050565b6000610a00826109d3565b9050919050565b6000610a12826109f5565b9050919050565b610a2281610a07565b82525050565b6000602082019050610a3d6000830184610a19565b92915050565b610a4c8161090c565b82525050565b6000602082019050610a676000830184610a43565b92915050565b600082825260208201905092915050565b7f486173206e6f2077656967687420746f20766f74650000000000000000000000600082015250565b6000610ab4601583610a6d565b9150610abf82610a7e565b602082019050919050565b60006020820190508181036000830152610ae381610aa7565b9050919050565b7f416c726561647920766f7465642e000000000000000000000000000000000000600082015250565b6000610b20600e83610a6d565b9150610b2b82610aea565b602082019050919050565b60006020820190508181036000830152610b4f81610b13565b9050919050565b7f4e487b7100000000000000000000000000000000000000000000000000000000600052603260045260246000fd5b7f4e487b7100000000000000000000000000000000000000000000000000000000600052601160045260246000fd5b6000610bbf82610802565b9150610bca83610802565b9250827fffffffffffffffffffffffffffffffffffffffffffffffffffffffffffffffff03821115610bff57610bfe610b85565b5b828201905092915050565b610c1381610977565b8114610c1e57600080fd5b50565b600081519050610c3081610c0a565b92915050565b600060208284031215610c4c57610c4b6107fd565b5b6000610c5a84828501610c21565b91505092915050565b7f546f6b656e206469646e27742070617900000000000000000000000000000000600082015250565b6000610c99601083610a6d565b9150610ca482610c63565b602082019050919050565b60006020820190508181036000830152610cc881610c8c565b9050919050565b7f5761697420666f7220766f74652074696d657220746f20657870697265000000600082015250565b6000610d05601d83610a6d565b9150610d1082610ccf565b602082019050919050565b60006020820190508181036000830152610d3481610cf8565b9050919050565b7f41646d696e206f6e6c7900000000000000000000000000000000000000000000600082015250565b6000610d71600a83610a6d565b9150610d7c82610d3b565b602082019050919050565b60006020820190508181036000830152610da081610d64565b9050919050565b7f54686520766f74657220616c726561647920766f7465642e0000000000000000600082015250565b6000610ddd601883610a6d565b9150610de882610da7565b602082019050919050565b60006020820190508181036000830152610e0c81610dd0565b9050919050565b6000610e1e82610802565b9150610e2983610802565b9250817fffffffffffffffffffffffffffffffffffffffffffffffffffffffffffffffff0483118215151615610e6257610e61610b85565b5b828202905092915050565b6000610e7882610802565b9150610e8383610802565b925082821015610e9657610e95610b85565b5b828203905092915050565b6000610eac82610802565b91507fffffffffffffffffffffffffffffffffffffffffffffffffffffffffffffffff821415610edf57610ede610b85565b5b60018201905091905056fea26469706673582212200a13d7fa03d93da4f5368673edbce8ea5e516296a467fe48d0215f2278d26f4e64736f6c63430008090033",
  "immutableReferences": {},
  "source": "// SPDX-License-Identifier: MIT\n\npragma solidity ^0.8.4;\n\nimport \"@openzeppelin/contracts/token/ERC20/extensions/ERC20Burnable.sol\";\nimport \"@openzeppelin/contracts/access/AccessControlEnumerable.sol\";\nimport \"./rxgToken.sol\";\n\n//------------------------------------------------------------------------------\n// poll contract\n//------------------------------------------------------------------------------\n/** \n * @title DaoBallot\n * @dev terranart.eth\n * @dev Implements voting process along with voter participation payouts\n */\ncontract DaoBallot{\n// variables\n    // contract recharge address\n    Recharge public dc;\n    bytes32[] public proposalIds;\n    uint256 public timer;\n    uint256 public mins;\n    struct Voter {\n        uint weight; // weight is accumulated by payment\n        bool voted;  // if true, that person already voted\n        uint vote;   // index of the voted proposal\n    }\n\n    struct Proposal {\n        uint256 proposalId;   // real world proposal id\n        uint256 voteCount; // number of accumulated votes\n    }\n\n    address public admin;\n// modifiers\n    modifier onlyAdmin() {\n        require(msg.sender == admin,\"Admin only\");\n        _;\n    }\n    \n    modifier timerFinished() {\n        require(wait(mins), \"Wait for vote timer to expire\");\n        _;\n    }\n// mapping\n    mapping(address => Voter) public voters;\n    Proposal[] public proposals;\n// constructor\n    /** \n     * @dev Create a new ballot to choose one of 'proposalIds'.\n     * @param _coin the token address to be paid in, _minutes how many minutes the poll should last, _proposalIds the names of the proposals\n     * \n     */\n    constructor(Recharge _coin, uint256 _minutes, uint256 _numberProposals){\n        dc = _coin;\n        mins = _minutes;\n        admin = msg.sender;\n        voters[admin].weight = 1;\n        // setup proposals\n        for (uint i = 0; i < _numberProposals; i++) {\n            proposals.push(Proposal({proposalId: i, voteCount: 0}));\n        }\n    }\n\n// functions\n    /** \n     * @dev give a wait timer.\n     * @param _minutes number of minutes to wait\n     */\n    function wait(uint256 _minutes) internal view returns(bool) {\n        uint256 stop = _minutes * (1 minutes);\n        require(block.timestamp - timer > stop, \"Wait for vote timer to expire\");\n        return true;\n    }\n    \n    /** \n     * @dev Give 'voter' the right to vote on this ballot. May only be called by 'admin'.\n     * @param voter address of voter\n     * todo: be able to pass in a array of addresses\n     */\n    function addVoter(address voter) external onlyAdmin {\n        timer = block.timestamp; //ensures last person invited starts the timer\n        require(\n            !voters[voter].voted,\n            \"The voter already voted.\"\n        );\n        voters[voter].weight = 1;\n    }\n\n\n\n    /**\n     * @dev Give your vote to proposal 'proposals[proposal].id'.\n     * \n     * @param proposal index of proposal in the proposals array\n     */\n    function vote(uint proposal) external {\n        Voter storage sender = voters[msg.sender];\n        require(sender.weight != 0, \"Has no weight to vote\");\n        require(!sender.voted, \"Already voted.\");\n        sender.voted = true;\n        sender.vote = proposal;\n        // If 'proposal' is out of the range of the array,\n        // this will throw automatically and revert all\n        proposals[proposal].voteCount += sender.weight;\n        require(dc.payPoll(msg.sender), \"Token didn't pay\"); //pay the voter in token\n    }\n\n    /** \n     * @dev Computes the winning proposal taking all previous votes into account.\n     * @return winningProposal_ index of winning proposal in the proposals array\n     */\n    function winningProposal() internal view\n            returns (uint winningProposal_)\n    {\n        uint winningVoteCount = 0;\n        for (uint p = 0; p < proposals.length; p++) {\n            if (proposals[p].voteCount > winningVoteCount) {\n                winningVoteCount = proposals[p].voteCount;\n                winningProposal_ = p;\n            }\n        }\n    }\n\n    /** \n     * @dev Calls winningProposal() function to get the index of the winner after the voting period.\n     * @return winnerName_ the name of the winner\n     */ \n    function winnerName() external view timerFinished\n            returns (uint256 winnerName_)\n    {\n        winnerName_ = proposals[winningProposal()].proposalId;\n    }\n\n} // end of ballot contract",
  "sourcePath": "/home/phoenix/Works/tacvue-nft/contracts/daoBallot.sol",
  "compiler": {
    "name": "solc",
    "version": "0.8.9+commit.e5eed63a.Emscripten.clang"
  },
  "schemaVersion": "3.4.3",
  "updatedAt": "2021-12-06T15:55:47.590Z",
  "devdoc": {
    "details": "terranart.ethImplements voting process along with voter participation payouts",
    "kind": "dev",
    "methods": {
      "addVoter(address)": {
        "details": "Give 'voter' the right to vote on this ballot. May only be called by 'admin'.",
        "params": {
          "voter": "address of voter todo: be able to pass in a array of addresses"
        }
      },
      "constructor": {
        "details": "Create a new ballot to choose one of 'proposalIds'.",
        "params": {
          "_coin": "the token address to be paid in, _minutes how many minutes the poll should last, _proposalIds the names of the proposals "
        }
      },
      "vote(uint256)": {
        "details": "Give your vote to proposal 'proposals[proposal].id'. ",
        "params": {
          "proposal": "index of proposal in the proposals array"
        }
      },
      "winnerName()": {
        "details": "Calls winningProposal() function to get the index of the winner after the voting period.",
        "returns": {
          "winnerName_": "the name of the winner"
        }
      }
    },
    "title": "DaoBallot",
    "version": 1
  },
  "userdoc": {
    "kind": "user",
    "methods": {},
    "version": 1
  }
}