{
  "contractName": "Marketplace",
  "abi": [
    {
      "inputs": [
        {
          "internalType": "address payable",
          "name": "wallet",
          "type": "address"
        },
        {
          "internalType": "contract Recharge",
          "name": "token",
          "type": "address"
        }
      ],
      "stateMutability": "nonpayable",
      "type": "constructor"
    },
    {
      "anonymous": false,
      "inputs": [
        {
          "indexed": true,
          "internalType": "uint256",
          "name": "saleID",
          "type": "uint256"
        },
        {
          "indexed": true,
          "internalType": "address",
          "name": "nftContract",
          "type": "address"
        },
        {
          "indexed": true,
          "internalType": "uint256",
          "name": "tokenId",
          "type": "uint256"
        },
        {
          "indexed": false,
          "internalType": "address",
          "name": "seller",
          "type": "address"
        },
        {
          "indexed": false,
          "internalType": "uint256",
          "name": "price",
          "type": "uint256"
        },
        {
          "indexed": false,
          "internalType": "uint256",
          "name": "tokenSalePrice",
          "type": "uint256"
        },
        {
          "indexed": false,
          "internalType": "bool",
          "name": "sold",
          "type": "bool"
        },
        {
          "indexed": false,
          "internalType": "bool",
          "name": "canceled",
          "type": "bool"
        }
      ],
      "name": "MarketplaceItemCreated",
      "type": "event"
    },
    {
      "anonymous": false,
      "inputs": [
        {
          "indexed": true,
          "internalType": "uint256",
          "name": "saleID",
          "type": "uint256"
        },
        {
          "indexed": true,
          "internalType": "address",
          "name": "nftContract",
          "type": "address"
        },
        {
          "indexed": true,
          "internalType": "uint256",
          "name": "tokenId",
          "type": "uint256"
        },
        {
          "indexed": false,
          "internalType": "address",
          "name": "seller",
          "type": "address"
        },
        {
          "indexed": false,
          "internalType": "uint256",
          "name": "price",
          "type": "uint256"
        },
        {
          "indexed": false,
          "internalType": "bool",
          "name": "sold",
          "type": "bool"
        },
        {
          "indexed": false,
          "internalType": "bool",
          "name": "canceled",
          "type": "bool"
        }
      ],
      "name": "MarketplaceItemReturned",
      "type": "event"
    },
    {
      "anonymous": false,
      "inputs": [
        {
          "indexed": true,
          "internalType": "uint256",
          "name": "saleID",
          "type": "uint256"
        },
        {
          "indexed": true,
          "internalType": "address",
          "name": "nftContract",
          "type": "address"
        },
        {
          "indexed": true,
          "internalType": "uint256",
          "name": "tokenId",
          "type": "uint256"
        },
        {
          "indexed": false,
          "internalType": "address",
          "name": "seller",
          "type": "address"
        },
        {
          "indexed": false,
          "internalType": "uint256",
          "name": "price",
          "type": "uint256"
        },
        {
          "indexed": false,
          "internalType": "bool",
          "name": "sold",
          "type": "bool"
        },
        {
          "indexed": false,
          "internalType": "bool",
          "name": "canceled",
          "type": "bool"
        }
      ],
      "name": "MarketplaceItemSold",
      "type": "event"
    },
    {
      "inputs": [
        {
          "internalType": "uint256",
          "name": "saleID",
          "type": "uint256"
        }
      ],
      "name": "cancelMarketplaceSale",
      "outputs": [],
      "stateMutability": "nonpayable",
      "type": "function"
    },
    {
      "inputs": [
        {
          "internalType": "address",
          "name": "nftContract",
          "type": "address"
        },
        {
          "internalType": "uint256",
          "name": "tokenId",
          "type": "uint256"
        },
        {
          "internalType": "uint256",
          "name": "price",
          "type": "uint256"
        },
        {
          "internalType": "uint256",
          "name": "tokenSalePrice",
          "type": "uint256"
        }
      ],
      "name": "createMarketplaceItem",
      "outputs": [],
      "stateMutability": "nonpayable",
      "type": "function"
    },
    {
      "inputs": [],
      "name": "dc",
      "outputs": [
        {
          "internalType": "contract Recharge",
          "name": "",
          "type": "address"
        }
      ],
      "stateMutability": "view",
      "type": "function"
    },
    {
      "inputs": [],
      "name": "fetchAllMarketplaceItems",
      "outputs": [
        {
          "components": [
            {
              "internalType": "uint256",
              "name": "saleID",
              "type": "uint256"
            },
            {
              "internalType": "address",
              "name": "nftContract",
              "type": "address"
            },
            {
              "internalType": "uint256",
              "name": "tokenId",
              "type": "uint256"
            },
            {
              "internalType": "address payable",
              "name": "seller",
              "type": "address"
            },
            {
              "internalType": "uint256",
              "name": "price",
              "type": "uint256"
            },
            {
              "internalType": "uint256",
              "name": "tokenSalePrice",
              "type": "uint256"
            },
            {
              "internalType": "bool",
              "name": "sold",
              "type": "bool"
            },
            {
              "internalType": "bool",
              "name": "canceled",
              "type": "bool"
            }
          ],
          "internalType": "struct Marketplace.MarketplaceItem[]",
          "name": "",
          "type": "tuple[]"
        }
      ],
      "stateMutability": "view",
      "type": "function"
    },
    {
      "inputs": [],
      "name": "fetchItemsCreated",
      "outputs": [
        {
          "components": [
            {
              "internalType": "uint256",
              "name": "saleID",
              "type": "uint256"
            },
            {
              "internalType": "address",
              "name": "nftContract",
              "type": "address"
            },
            {
              "internalType": "uint256",
              "name": "tokenId",
              "type": "uint256"
            },
            {
              "internalType": "address payable",
              "name": "seller",
              "type": "address"
            },
            {
              "internalType": "uint256",
              "name": "price",
              "type": "uint256"
            },
            {
              "internalType": "uint256",
              "name": "tokenSalePrice",
              "type": "uint256"
            },
            {
              "internalType": "bool",
              "name": "sold",
              "type": "bool"
            },
            {
              "internalType": "bool",
              "name": "canceled",
              "type": "bool"
            }
          ],
          "internalType": "struct Marketplace.MarketplaceItem[]",
          "name": "",
          "type": "tuple[]"
        }
      ],
      "stateMutability": "view",
      "type": "function"
    },
    {
      "inputs": [],
      "name": "fetchMarketplaceItems",
      "outputs": [
        {
          "components": [
            {
              "internalType": "uint256",
              "name": "saleID",
              "type": "uint256"
            },
            {
              "internalType": "address",
              "name": "nftContract",
              "type": "address"
            },
            {
              "internalType": "uint256",
              "name": "tokenId",
              "type": "uint256"
            },
            {
              "internalType": "address payable",
              "name": "seller",
              "type": "address"
            },
            {
              "internalType": "uint256",
              "name": "price",
              "type": "uint256"
            },
            {
              "internalType": "uint256",
              "name": "tokenSalePrice",
              "type": "uint256"
            },
            {
              "internalType": "bool",
              "name": "sold",
              "type": "bool"
            },
            {
              "internalType": "bool",
              "name": "canceled",
              "type": "bool"
            }
          ],
          "internalType": "struct Marketplace.MarketplaceItem[]",
          "name": "",
          "type": "tuple[]"
        }
      ],
      "stateMutability": "view",
      "type": "function"
    },
    {
      "inputs": [
        {
          "internalType": "address",
          "name": "nftAddress",
          "type": "address"
        }
      ],
      "name": "fetchMarketplaceItemsForNFT",
      "outputs": [
        {
          "components": [
            {
              "internalType": "uint256",
              "name": "saleID",
              "type": "uint256"
            },
            {
              "internalType": "address",
              "name": "nftContract",
              "type": "address"
            },
            {
              "internalType": "uint256",
              "name": "tokenId",
              "type": "uint256"
            },
            {
              "internalType": "address payable",
              "name": "seller",
              "type": "address"
            },
            {
              "internalType": "uint256",
              "name": "price",
              "type": "uint256"
            },
            {
              "internalType": "uint256",
              "name": "tokenSalePrice",
              "type": "uint256"
            },
            {
              "internalType": "bool",
              "name": "sold",
              "type": "bool"
            },
            {
              "internalType": "bool",
              "name": "canceled",
              "type": "bool"
            }
          ],
          "internalType": "struct Marketplace.MarketplaceItem[]",
          "name": "",
          "type": "tuple[]"
        }
      ],
      "stateMutability": "view",
      "type": "function"
    },
    {
      "inputs": [
        {
          "internalType": "address",
          "name": "userAddress",
          "type": "address"
        }
      ],
      "name": "fetchMarketplaceItemsForUser",
      "outputs": [
        {
          "components": [
            {
              "internalType": "uint256",
              "name": "saleID",
              "type": "uint256"
            },
            {
              "internalType": "address",
              "name": "nftContract",
              "type": "address"
            },
            {
              "internalType": "uint256",
              "name": "tokenId",
              "type": "uint256"
            },
            {
              "internalType": "address payable",
              "name": "seller",
              "type": "address"
            },
            {
              "internalType": "uint256",
              "name": "price",
              "type": "uint256"
            },
            {
              "internalType": "uint256",
              "name": "tokenSalePrice",
              "type": "uint256"
            },
            {
              "internalType": "bool",
              "name": "sold",
              "type": "bool"
            },
            {
              "internalType": "bool",
              "name": "canceled",
              "type": "bool"
            }
          ],
          "internalType": "struct Marketplace.MarketplaceItem[]",
          "name": "",
          "type": "tuple[]"
        }
      ],
      "stateMutability": "view",
      "type": "function"
    },
    {
      "inputs": [],
      "name": "fetchMyNFTs",
      "outputs": [
        {
          "components": [
            {
              "internalType": "uint256",
              "name": "saleID",
              "type": "uint256"
            },
            {
              "internalType": "address",
              "name": "nftContract",
              "type": "address"
            },
            {
              "internalType": "uint256",
              "name": "tokenId",
              "type": "uint256"
            },
            {
              "internalType": "address payable",
              "name": "seller",
              "type": "address"
            },
            {
              "internalType": "uint256",
              "name": "price",
              "type": "uint256"
            },
            {
              "internalType": "uint256",
              "name": "tokenSalePrice",
              "type": "uint256"
            },
            {
              "internalType": "bool",
              "name": "sold",
              "type": "bool"
            },
            {
              "internalType": "bool",
              "name": "canceled",
              "type": "bool"
            }
          ],
          "internalType": "struct Marketplace.MarketplaceItem[]",
          "name": "",
          "type": "tuple[]"
        }
      ],
      "stateMutability": "view",
      "type": "function"
    },
    {
      "inputs": [
        {
          "internalType": "uint256",
          "name": "_saleID",
          "type": "uint256"
        }
      ],
      "name": "getListingPrice",
      "outputs": [
        {
          "internalType": "uint256",
          "name": "",
          "type": "uint256"
        }
      ],
      "stateMutability": "view",
      "type": "function"
    },
    {
      "inputs": [],
      "name": "liquidityPool",
      "outputs": [
        {
          "internalType": "address payable",
          "name": "",
          "type": "address"
        }
      ],
      "stateMutability": "view",
      "type": "function"
    },
    {
      "inputs": [
        {
          "internalType": "uint256",
          "name": "saleID",
          "type": "uint256"
        }
      ],
      "name": "maticNFTpurchase",
      "outputs": [],
      "stateMutability": "payable",
      "type": "function"
    },
    {
      "inputs": [],
      "name": "minlistingPrice",
      "outputs": [
        {
          "internalType": "uint256",
          "name": "",
          "type": "uint256"
        }
      ],
      "stateMutability": "view",
      "type": "function"
    },
    {
      "inputs": [],
      "name": "owner",
      "outputs": [
        {
          "internalType": "address payable",
          "name": "",
          "type": "address"
        }
      ],
      "stateMutability": "view",
      "type": "function"
    },
    {
      "inputs": [
        {
          "internalType": "uint256",
          "name": "saleID",
          "type": "uint256"
        }
      ],
      "name": "tokenNFTpurchase",
      "outputs": [],
      "stateMutability": "payable",
      "type": "function"
    },
    {
      "inputs": [],
      "name": "withdrawFunds",
      "outputs": [],
      "stateMutability": "payable",
      "type": "function"
    },
    {
      "stateMutability": "payable",
      "type": "receive"
    }
  ],
  "bytecode": "0x60806040526706f05b59d3b20000600655604051620029a8380380620029a8833981810160405281019062000035919062000176565b600160008190555081600360006101000a81548173ffffffffffffffffffffffffffffffffffffffff021916908373ffffffffffffffffffffffffffffffffffffffff16021790555080600560006101000a81548173ffffffffffffffffffffffffffffffffffffffff021916908373ffffffffffffffffffffffffffffffffffffffff1602179055505050620001bd565b600080fd5b600073ffffffffffffffffffffffffffffffffffffffff82169050919050565b6000620000f982620000cc565b9050919050565b6200010b81620000ec565b81146200011757600080fd5b50565b6000815190506200012b8162000100565b92915050565b60006200013e82620000ec565b9050919050565b620001508162000131565b81146200015c57600080fd5b50565b600081519050620001708162000145565b92915050565b6000806040838503121562000190576200018f620000c7565b5b6000620001a0858286016200011a565b9250506020620001b3858286016200015f565b9150509250929050565b6127db80620001cd6000396000f3fe6080604052600436106100dd5760003560e01c8063c84ec3001161007f578063d6077fbf11610059578063d6077fbf14610240578063d8a531a61461027d578063df64aea9146102a8578063f064c32e146102d3576100dd565b8063c84ec300146101df578063c92e6482146101fb578063cc029f2d14610217576100dd565b806324600fc3116100bb57806324600fc314610163578063665a11ca1461016d5780638da5cb5b14610198578063ba8af162146101c3576100dd565b806301ae591a146100e257806310ded1651461010d578063202e374014610138575b600080fd5b3480156100ee57600080fd5b506100f76102fe565b6040516101049190611e0b565b60405180910390f35b34801561011957600080fd5b50610122610598565b60405161012f9190611e3c565b60405180910390f35b34801561014457600080fd5b5061014d6105a0565b60405161015a9190611e0b565b60405180910390f35b61016b6108be565b005b34801561017957600080fd5b506101826109fc565b60405161018f9190611e66565b60405180910390f35b3480156101a457600080fd5b506101ad610a22565b6040516101ba9190611e66565b60405180910390f35b6101dd60048036038101906101d89190611ede565b610a48565b005b6101f960048036038101906101f49190611f45565b610d41565b005b61021560048036038101906102109190611f45565b611087565b005b34801561022357600080fd5b5061023e60048036038101906102399190611f45565b61147f565b005b34801561024c57600080fd5b5061026760048036038101906102629190611f45565b611820565b6040516102749190611e3c565b60405180910390f35b34801561028957600080fd5b50610292611840565b60405161029f9190611fd1565b60405180910390f35b3480156102b457600080fd5b506102bd611866565b6040516102ca9190611e3c565b60405180910390f35b3480156102df57600080fd5b506102e861186c565b6040516102f59190611e0b565b60405180910390f35b6060600061030c6001611b8a565b9050600061031a6002611b8a565b6103246001611b8a565b61032e919061201b565b90506000808267ffffffffffffffff81111561034d5761034c61204f565b5b60405190808252806020026020018201604052801561038657816020015b610373611bae565b81526020019060019003908161036b5790505b50905060005b8481101561058d57600073ffffffffffffffffffffffffffffffffffffffff16600760006001846103bd919061207e565b815260200190815260200160002060030160009054906101000a900473ffffffffffffffffffffffffffffffffffffffff1673ffffffffffffffffffffffffffffffffffffffff16141561057a57600060018261041a919061207e565b905060006007600083815260200190815260200160002090508060405180610100016040529081600082015481526020016001820160009054906101000a900473ffffffffffffffffffffffffffffffffffffffff1673ffffffffffffffffffffffffffffffffffffffff1673ffffffffffffffffffffffffffffffffffffffff168152602001600282015481526020016003820160009054906101000a900473ffffffffffffffffffffffffffffffffffffffff1673ffffffffffffffffffffffffffffffffffffffff1673ffffffffffffffffffffffffffffffffffffffff16815260200160048201548152602001600582015481526020016006820160009054906101000a900460ff161515151581526020016006820160019054906101000a900460ff16151515158152505084868151811061055d5761055c6120d4565b5b6020026020010181905250600185610575919061207e565b945050505b808061058590612103565b91505061038c565b508094505050505090565b600047905090565b606060006105ae6001611b8a565b905060008060005b83811015610657573373ffffffffffffffffffffffffffffffffffffffff16600760006001846105e6919061207e565b815260200190815260200160002060030160009054906101000a900473ffffffffffffffffffffffffffffffffffffffff1673ffffffffffffffffffffffffffffffffffffffff16141561064457600183610641919061207e565b92505b808061064f90612103565b9150506105b6565b5060008267ffffffffffffffff8111156106745761067361204f565b5b6040519080825280602002602001820160405280156106ad57816020015b61069a611bae565b8152602001906001900390816106925790505b50905060005b848110156108b3573373ffffffffffffffffffffffffffffffffffffffff16600760006001846106e3919061207e565b815260200190815260200160002060030160009054906101000a900473ffffffffffffffffffffffffffffffffffffffff1673ffffffffffffffffffffffffffffffffffffffff1614156108a0576000600182610740919061207e565b905060006007600083815260200190815260200160002090508060405180610100016040529081600082015481526020016001820160009054906101000a900473ffffffffffffffffffffffffffffffffffffffff1673ffffffffffffffffffffffffffffffffffffffff1673ffffffffffffffffffffffffffffffffffffffff168152602001600282015481526020016003820160009054906101000a900473ffffffffffffffffffffffffffffffffffffffff1673ffffffffffffffffffffffffffffffffffffffff1673ffffffffffffffffffffffffffffffffffffffff16815260200160048201548152602001600582015481526020016006820160009054906101000a900460ff161515151581526020016006820160019054906101000a900460ff161515151581525050848681518110610883576108826120d4565b5b602002602001018190525060018561089b919061207e565b945050505b80806108ab90612103565b9150506106b3565b508094505050505090565b600460009054906101000a900473ffffffffffffffffffffffffffffffffffffffff1673ffffffffffffffffffffffffffffffffffffffff163373ffffffffffffffffffffffffffffffffffffffff161461094e576040517f08c379a0000000000000000000000000000000000000000000000000000000008152600401610945906121a9565b60405180910390fd5b60004711610991576040517f08c379a000000000000000000000000000000000000000000000000000000000815260040161098890612215565b60405180910390fd5b600360009054906101000a900473ffffffffffffffffffffffffffffffffffffffff1673ffffffffffffffffffffffffffffffffffffffff166108fc479081150290604051600060405180830381858888f193505050501580156109f9573d6000803e3d6000fd5b50565b600360009054906101000a900473ffffffffffffffffffffffffffffffffffffffff1681565b600460009054906101000a900473ffffffffffffffffffffffffffffffffffffffff1681565b60026000541415610a8e576040517f08c379a0000000000000000000000000000000000000000000000000000000008152600401610a8590612281565b60405180910390fd5b60026000819055506006548211610ada576040517f08c379a0000000000000000000000000000000000000000000000000000000008152600401610ad1906122ed565b60405180910390fd5b610ae46001611b98565b6000610af06001611b8a565b90506040518061010001604052808281526020018673ffffffffffffffffffffffffffffffffffffffff1681526020018581526020013373ffffffffffffffffffffffffffffffffffffffff16815260200184815260200183815260200160001515815260200160001515815250600760008381526020019081526020016000206000820151816000015560208201518160010160006101000a81548173ffffffffffffffffffffffffffffffffffffffff021916908373ffffffffffffffffffffffffffffffffffffffff1602179055506040820151816002015560608201518160030160006101000a81548173ffffffffffffffffffffffffffffffffffffffff021916908373ffffffffffffffffffffffffffffffffffffffff1602179055506080820151816004015560a0820151816005015560c08201518160060160006101000a81548160ff02191690831515021790555060e08201518160060160016101000a81548160ff0219169083151502179055509050508473ffffffffffffffffffffffffffffffffffffffff166323b872dd3330876040518463ffffffff1660e01b8152600401610ca79392919061231c565b600060405180830381600087803b158015610cc157600080fd5b505af1158015610cd5573d6000803e3d6000fd5b50505050838573ffffffffffffffffffffffffffffffffffffffff16827ffe75f711905eba5f938172eb26197ef154327a7c4c5ee8be37b8eb07986f6cfc338787600080604051610d2a959493929190612362565b60405180910390a450600160008190555050505050565b60026000541415610d87576040517f08c379a0000000000000000000000000000000000000000000000000000000008152600401610d7e90612281565b60405180910390fd5b6002600081905550806007600082815260200190815260200160002060060160009054906101000a900460ff161580610de157506007600082815260200190815260200160002060060160019054906101000a900460ff16155b610e20576040517f08c379a0000000000000000000000000000000000000000000000000000000008152600401610e1790612401565b60405180910390fd5b60076000838152602001908152602001600020600401543414610e78576040517f08c379a0000000000000000000000000000000000000000000000000000000008152600401610e6f9061246d565b60405180910390fd5b6000606434610e8791906124bc565b905060006007600085815260200190815260200160002060020154905060006007600086815260200190815260200160002060010160009054906101000a900473ffffffffffffffffffffffffffffffffffffffff16905060016007600087815260200190815260200160002060060160006101000a81548160ff0219169083151502179055506007600086815260200190815260200160002060030160009054906101000a900473ffffffffffffffffffffffffffffffffffffffff1673ffffffffffffffffffffffffffffffffffffffff166108fc8434610f6a919061201b565b9081150290604051600060405180830381858888f19350505050158015610f95573d6000803e3d6000fd5b50600360009054906101000a900473ffffffffffffffffffffffffffffffffffffffff1673ffffffffffffffffffffffffffffffffffffffff166108fc849081150290604051600060405180830381858888f19350505050158015610ffe573d6000803e3d6000fd5b508073ffffffffffffffffffffffffffffffffffffffff166323b872dd3033856040518463ffffffff1660e01b815260040161103c9392919061231c565b600060405180830381600087803b15801561105657600080fd5b505af115801561106a573d6000803e3d6000fd5b505050506110786002611b98565b50505050600160008190555050565b600260005414156110cd576040517f08c379a00000000000000000000000000000000000000000000000000000000081526004016110c490612281565b60405180910390fd5b6002600081905550806007600082815260200190815260200160002060060160009054906101000a900460ff16158061112757506007600082815260200190815260200160002060060160019054906101000a900460ff16155b611166576040517f08c379a000000000000000000000000000000000000000000000000000000000815260040161115d90612401565b60405180910390fd5b6000600760008481526020019081526020016000209050600015158160060160009054906101000a900460ff161515146111d5576040517f08c379a00000000000000000000000000000000000000000000000000000000081526004016111cc90612539565b60405180910390fd5b600560009054906101000a900473ffffffffffffffffffffffffffffffffffffffff1673ffffffffffffffffffffffffffffffffffffffff166323b872dd336007600087815260200190815260200160002060030160009054906101000a900473ffffffffffffffffffffffffffffffffffffffff1660076000888152602001908152602001600020600501546040518463ffffffff1660e01b81526004016112809392919061258c565b602060405180830381600087803b15801561129a57600080fd5b505af11580156112ae573d6000803e3d6000fd5b505050506040513d601f19601f820116820180604052508101906112d291906125ef565b611311576040517f08c379a000000000000000000000000000000000000000000000000000000000815260040161130890612668565b60405180910390fd5b8060010160009054906101000a900473ffffffffffffffffffffffffffffffffffffffff1673ffffffffffffffffffffffffffffffffffffffff166323b872dd303360076000888152602001908152602001600020600201546040518463ffffffff1660e01b81526004016113889392919061231c565b600060405180830381600087803b1580156113a257600080fd5b505af11580156113b6573d6000803e3d6000fd5b5050505060016007600085815260200190815260200160002060060160006101000a81548160ff02191690831515021790555080600201548160010160009054906101000a900473ffffffffffffffffffffffffffffffffffffffff1673ffffffffffffffffffffffffffffffffffffffff16847ffe75f711905eba5f938172eb26197ef154327a7c4c5ee8be37b8eb07986f6cfc338560040154866005015460008060405161146a959493929190612362565b60405180910390a45050600160008190555050565b600260005414156114c5576040517f08c379a00000000000000000000000000000000000000000000000000000000081526004016114bc90612281565b60405180910390fd5b6002600081905550806007600082815260200190815260200160002060030160009054906101000a900473ffffffffffffffffffffffffffffffffffffffff1673ffffffffffffffffffffffffffffffffffffffff163373ffffffffffffffffffffffffffffffffffffffff1614611572576040517f08c379a0000000000000000000000000000000000000000000000000000000008152600401611569906126d4565b60405180910390fd5b816007600082815260200190815260200160002060060160009054906101000a900460ff1615806115c457506007600082815260200190815260200160002060060160019054906101000a900460ff16155b611603576040517f08c379a00000000000000000000000000000000000000000000000000000000081526004016115fa90612401565b60405180910390fd5b6000600760008581526020019081526020016000209050600015158160060160009054906101000a900460ff16151514611672576040517f08c379a000000000000000000000000000000000000000000000000000000000815260040161166990612740565b60405180910390fd5b60016007600086815260200190815260200160002060060160016101000a81548160ff0219169083151502179055508060010160009054906101000a900473ffffffffffffffffffffffffffffffffffffffff1673ffffffffffffffffffffffffffffffffffffffff166323b872dd303360076000898152602001908152602001600020600201546040518463ffffffff1660e01b81526004016117189392919061231c565b600060405180830381600087803b15801561173257600080fd5b505af1158015611746573d6000803e3d6000fd5b5050505080600201548160010160009054906101000a900473ffffffffffffffffffffffffffffffffffffffff1673ffffffffffffffffffffffffffffffffffffffff16857f4a173ee377b33f88f66e41889ef9245998740486eeafabe0de06a410eb028bcd8460030160009054906101000a900473ffffffffffffffffffffffffffffffffffffffff1685600401548660060160009054906101000a900460ff168760060160019054906101000a900460ff1660405161180a9493929190612760565b60405180910390a4505050600160008190555050565b600060076000838152602001908152602001600020600401549050919050565b600560009054906101000a900473ffffffffffffffffffffffffffffffffffffffff1681565b60065481565b6060600061187a6001611b8a565b905060008060005b83811015611923573373ffffffffffffffffffffffffffffffffffffffff16600760006001846118b2919061207e565b815260200190815260200160002060030160009054906101000a900473ffffffffffffffffffffffffffffffffffffffff1673ffffffffffffffffffffffffffffffffffffffff1614156119105760018361190d919061207e565b92505b808061191b90612103565b915050611882565b5060008267ffffffffffffffff8111156119405761193f61204f565b5b60405190808252806020026020018201604052801561197957816020015b611966611bae565b81526020019060019003908161195e5790505b50905060005b84811015611b7f573373ffffffffffffffffffffffffffffffffffffffff16600760006001846119af919061207e565b815260200190815260200160002060030160009054906101000a900473ffffffffffffffffffffffffffffffffffffffff1673ffffffffffffffffffffffffffffffffffffffff161415611b6c576000600182611a0c919061207e565b905060006007600083815260200190815260200160002090508060405180610100016040529081600082015481526020016001820160009054906101000a900473ffffffffffffffffffffffffffffffffffffffff1673ffffffffffffffffffffffffffffffffffffffff1673ffffffffffffffffffffffffffffffffffffffff168152602001600282015481526020016003820160009054906101000a900473ffffffffffffffffffffffffffffffffffffffff1673ffffffffffffffffffffffffffffffffffffffff1673ffffffffffffffffffffffffffffffffffffffff16815260200160048201548152602001600582015481526020016006820160009054906101000a900460ff161515151581526020016006820160019054906101000a900460ff161515151581525050848681518110611b4f57611b4e6120d4565b5b6020026020010181905250600185611b67919061207e565b945050505b8080611b7790612103565b91505061197f565b508094505050505090565b600081600001549050919050565b6001816000016000828254019250508190555050565b60405180610100016040528060008152602001600073ffffffffffffffffffffffffffffffffffffffff16815260200160008152602001600073ffffffffffffffffffffffffffffffffffffffff16815260200160008152602001600081526020016000151581526020016000151581525090565b600081519050919050565b600082825260208201905092915050565b6000819050602082019050919050565b6000819050919050565b611c6281611c4f565b82525050565b600073ffffffffffffffffffffffffffffffffffffffff82169050919050565b6000611c9382611c68565b9050919050565b611ca381611c88565b82525050565b6000611cb482611c68565b9050919050565b611cc481611ca9565b82525050565b60008115159050919050565b611cdf81611cca565b82525050565b61010082016000820151611cfc6000850182611c59565b506020820151611d0f6020850182611c9a565b506040820151611d226040850182611c59565b506060820151611d356060850182611cbb565b506080820151611d486080850182611c59565b5060a0820151611d5b60a0850182611c59565b5060c0820151611d6e60c0850182611cd6565b5060e0820151611d8160e0850182611cd6565b50505050565b6000611d938383611ce5565b6101008301905092915050565b6000602082019050919050565b6000611db882611c23565b611dc28185611c2e565b9350611dcd83611c3f565b8060005b83811015611dfe578151611de58882611d87565b9750611df083611da0565b925050600181019050611dd1565b5085935050505092915050565b60006020820190508181036000830152611e258184611dad565b905092915050565b611e3681611c4f565b82525050565b6000602082019050611e516000830184611e2d565b92915050565b611e6081611ca9565b82525050565b6000602082019050611e7b6000830184611e57565b92915050565b600080fd5b611e8f81611c88565b8114611e9a57600080fd5b50565b600081359050611eac81611e86565b92915050565b611ebb81611c4f565b8114611ec657600080fd5b50565b600081359050611ed881611eb2565b92915050565b60008060008060808587031215611ef857611ef7611e81565b5b6000611f0687828801611e9d565b9450506020611f1787828801611ec9565b9350506040611f2887828801611ec9565b9250506060611f3987828801611ec9565b91505092959194509250565b600060208284031215611f5b57611f5a611e81565b5b6000611f6984828501611ec9565b91505092915050565b6000819050919050565b6000611f97611f92611f8d84611c68565b611f72565b611c68565b9050919050565b6000611fa982611f7c565b9050919050565b6000611fbb82611f9e565b9050919050565b611fcb81611fb0565b82525050565b6000602082019050611fe66000830184611fc2565b92915050565b7f4e487b7100000000000000000000000000000000000000000000000000000000600052601160045260246000fd5b600061202682611c4f565b915061203183611c4f565b92508282101561204457612043611fec565b5b828203905092915050565b7f4e487b7100000000000000000000000000000000000000000000000000000000600052604160045260246000fd5b600061208982611c4f565b915061209483611c4f565b9250827fffffffffffffffffffffffffffffffffffffffffffffffffffffffffffffffff038211156120c9576120c8611fec565b5b828201905092915050565b7f4e487b7100000000000000000000000000000000000000000000000000000000600052603260045260246000fd5b600061210e82611c4f565b91507fffffffffffffffffffffffffffffffffffffffffffffffffffffffffffffffff82141561214157612140611fec565b5b600182019050919050565b600082825260208201905092915050565b7f4f6e6c7920636f6e7472616374206f776e657200000000000000000000000000600082015250565b600061219360138361214c565b915061219e8261215d565b602082019050919050565b600060208201905081810360008301526121c281612186565b9050919050565b7f4e6f2066756e647320746f207769746864726177000000000000000000000000600082015250565b60006121ff60148361214c565b915061220a826121c9565b602082019050919050565b6000602082019050818103600083015261222e816121f2565b9050919050565b7f5265656e7472616e637947756172643a207265656e7472616e742063616c6c00600082015250565b600061226b601f8361214c565b915061227682612235565b602082019050919050565b6000602082019050818103600083015261229a8161225e565b9050919050565b7f5072696365206d757374206265206174206c6561737420302e35204d41544943600082015250565b60006122d760208361214c565b91506122e2826122a1565b602082019050919050565b60006020820190508181036000830152612306816122ca565b9050919050565b61231681611c88565b82525050565b6000606082019050612331600083018661230d565b61233e602083018561230d565b61234b6040830184611e2d565b949350505050565b61235c81611cca565b82525050565b600060a082019050612377600083018861230d565b6123846020830187611e2d565b6123916040830186611e2d565b61239e6060830185612353565b6123ab6080830184612353565b9695505050505050565b7f6974656d20697320736f6c64206f722063616e63656c65640000000000000000600082015250565b60006123eb60188361214c565b91506123f6826123b5565b602082019050919050565b6000602082019050818103600083015261241a816123de565b9050919050565b7f76616c7565206d75737420657175616c2073656c6c696e672070726963650000600082015250565b6000612457601e8361214c565b915061246282612421565b602082019050919050565b600060208201905081810360008301526124868161244a565b9050919050565b7f4e487b7100000000000000000000000000000000000000000000000000000000600052601260045260246000fd5b60006124c782611c4f565b91506124d283611c4f565b9250826124e2576124e161248d565b5b828204905092915050565b7f43616e277420707572636861736520736f6c64206974656d0000000000000000600082015250565b600061252360188361214c565b915061252e826124ed565b602082019050919050565b6000602082019050818103600083015261255281612516565b9050919050565b600061256482611f7c565b9050919050565b600061257682612559565b9050919050565b6125868161256b565b82525050565b60006060820190506125a1600083018661230d565b6125ae602083018561257d565b6125bb6040830184611e2d565b949350505050565b6125cc81611cca565b81146125d757600080fd5b50565b6000815190506125e9816125c3565b92915050565b60006020828403121561260557612604611e81565b5b6000612613848285016125da565b91505092915050565b7f546f6b656e207472616e73666572206661696c65640000000000000000000000600082015250565b600061265260158361214c565b915061265d8261261c565b602082019050919050565b6000602082019050818103600083015261268181612645565b9050919050565b7f4f6e6c792073656c6c6572000000000000000000000000000000000000000000600082015250565b60006126be600b8361214c565b91506126c982612688565b602082019050919050565b600060208201905081810360008301526126ed816126b1565b9050919050565b7f43616e27742063616e63656c20736f6c64206974656d00000000000000000000600082015250565b600061272a60168361214c565b9150612735826126f4565b602082019050919050565b600060208201905081810360008301526127598161271d565b9050919050565b6000608082019050612775600083018761257d565b6127826020830186611e2d565b61278f6040830185612353565b61279c6060830184612353565b9594505050505056fea2646970667358221220b261514a4dea6ec9f96174e067a4f8681df24d6edf097b18739fbb124356cb3464736f6c63430008090033",
  "immutableReferences": {},
  "source": "// SPDX-License-Identifier: MIT\npragma solidity ^0.8.4;\n\nimport \"@openzeppelin/contracts/utils/Counters.sol\";\nimport \"@openzeppelin/contracts/security/ReentrancyGuard.sol\";\nimport \"@openzeppelin/contracts/token/ERC721/ERC721.sol\";\nimport \"./rxgToken.sol\";\n\ncontract Marketplace is ReentrancyGuard {\n    using Counters for Counters.Counter;\n    Counters.Counter private _items;\n    Counters.Counter private _soldItems;\n// variables\n    address payable public liquidityPool;\n    address payable public owner;\n    Recharge public dc;\n    uint256 public minlistingPrice = 0.5 ether; // minimum price in MATIC\n\n    // marketplace item\n    struct MarketplaceItem {\n        uint256 saleID;\n        address nftContract;\n        uint256 tokenId;\n        address payable seller;\n        uint256 price;\n        uint256 tokenSalePrice;\n        bool sold;\n         bool canceled;\n    }\n\n\n// modifiers\n    modifier onlySeller(uint256 saleID) {\n        require(msg.sender == idToMarketplaceItem[saleID].seller, \"Only seller\");\n        _;\n    }\n\n    modifier onlyOwner() {\n        require(msg.sender == owner, \"Only contract owner\");\n        _;\n    }\n\n    modifier onlyNotSoldOrCanceled(uint256 saleID) {\n        require(!idToMarketplaceItem[saleID].sold || !idToMarketplaceItem[saleID].canceled, \"item is sold or canceled\");\n        _;\n    }\n// mapping\n    mapping(uint256 => MarketplaceItem) private idToMarketplaceItem;\n// events\n    // declare a event for when a item is created on marketplace\n    event MarketplaceItemCreated(\n        uint256 indexed saleID,\n        address indexed nftContract,\n        uint256 indexed tokenId,\n        address seller,\n        uint256 price,\n        uint256 tokenSalePrice,\n        bool sold,\n        bool canceled\n    );\n    // declare a event for when a item is returned to the seller\n    event MarketplaceItemReturned(\n        uint256 indexed saleID,\n        address indexed nftContract,\n        uint256 indexed tokenId,\n        address seller,\n        uint256 price,\n        bool sold,\n        bool canceled\n    );\n    // declare a event for when a item is sold\n    event MarketplaceItemSold(\n        uint256 indexed saleID,\n        address indexed nftContract,\n        uint256 indexed tokenId,\n        address seller,\n        uint256 price,\n        bool sold,\n        bool canceled\n    );\n// constructor\n    // the payout wallet is the DAO wallet and cannot be changed after deployment\n    constructor(address payable wallet, Recharge token) payable{\n        liquidityPool = wallet;\n        dc = token;\n    }\n\n// functions\n    // returns the listing price of the contract\n    function getListingPrice(uint256 _saleID) public view returns (uint256) {\n        return idToMarketplaceItem[_saleID].price;\n        }\n\n    // places an item for sale on the marketplace\n    function createMarketplaceItem(\n        address nftContract,\n        uint256 tokenId,\n        uint256 price,\n        uint256 tokenSalePrice\n        ) public payable nonReentrant {\n            require(price > minlistingPrice, \"Price must be at least 0.5 MATIC\");\n\n            _items.increment();\n            uint256 saleID = _items.current();\n\n            idToMarketplaceItem[saleID] = MarketplaceItem(\n                saleID,\n                nftContract,\n                tokenId,\n                payable(msg.sender),\n                price,\n                tokenSalePrice,\n                false,\n                false\n            );\n\n            // nft is transferred to the marketplace so it can't be rugged\n            IERC721(nftContract).transferFrom(msg.sender, address(this), tokenId);\n\n            emit MarketplaceItemCreated(\n                saleID,\n                nftContract,\n                tokenId,\n                msg.sender,\n                price,\n                tokenSalePrice,\n                false,\n                false\n            );\n        }\n    // sale, transfers ownership of the item, as well as payment\n    function maticNFTpurchase(uint256 saleID)\n        public\n        payable\n        nonReentrant\n        onlyNotSoldOrCanceled(saleID)\n        {\n            require(msg.value == idToMarketplaceItem[saleID].price, \"value must equal selling price\");\n            uint256 _fee = msg.value / 100; // fee is 1% of the payment\n            \n            uint256 tokenId = idToMarketplaceItem[saleID].tokenId;\n            address nftContract = idToMarketplaceItem[saleID].nftContract;\n\n            idToMarketplaceItem[saleID].sold = true;\n            // forward the matic recieved from msg.sender to the seller minus the fee\n            idToMarketplaceItem[saleID].seller.transfer(msg.value - _fee);\n            // contract matic balance increases by the fee\n            liquidityPool.transfer(_fee);\n            IERC721(nftContract).transferFrom(address(this), msg.sender, tokenId);\n            _soldItems.increment();\n        }\n\n    // returns list of all unsold marketplace items\n    function fetchMarketplaceItems()\n        public\n        view\n        returns (MarketplaceItem[] memory)\n        {\n            uint256 itemCount = _items.current();\n            uint256 unsoldItemCount = _items.current() - _soldItems.current();\n            uint256 currentIndex = 0;\n\n            MarketplaceItem[] memory items = new MarketplaceItem[](unsoldItemCount);\n            for (uint256 i = 0; i < itemCount; i++) {\n                if (idToMarketplaceItem[i + 1].seller == address(0)) {\n                    uint256 currentId = i + 1;\n                    MarketplaceItem storage currentItem = idToMarketplaceItem[\n                        currentId\n                    ];\n                    items[currentIndex] = currentItem;\n                    currentIndex += 1;\n                }\n            }\n            return items;\n        }\n\n    // returns only items that a user has purchased\n    function fetchMyNFTs() public view returns (MarketplaceItem[] memory) {\n        uint256 totalItemCount = _items.current();\n        uint256 itemCount = 0;\n        uint256 currentIndex = 0;\n\n        for (uint256 i = 0; i < totalItemCount; i++) {\n            if (idToMarketplaceItem[i + 1].seller == msg.sender) {\n                itemCount += 1;\n            }\n        }\n\n        MarketplaceItem[] memory items = new MarketplaceItem[](itemCount);\n        for (uint256 i = 0; i < totalItemCount; i++) {\n            if (idToMarketplaceItem[i + 1].seller == msg.sender) {\n                uint256 currentId = i + 1;\n                MarketplaceItem storage currentItem = idToMarketplaceItem[\n                    currentId\n                ];\n                items[currentIndex] = currentItem;\n                currentIndex += 1;\n            }\n        }\n        return items;\n        }\n    // returns only items a user has created\n    function fetchItemsCreated()\n        public\n        view\n        returns (MarketplaceItem[] memory)\n        {\n            uint256 totalItemCount = _items.current();\n            uint256 itemCount = 0;\n            uint256 currentIndex = 0;\n\n            for (uint256 i = 0; i < totalItemCount; i++) {\n                if (idToMarketplaceItem[i + 1].seller == msg.sender) {\n                    itemCount += 1;\n                }\n            }\n\n        MarketplaceItem[] memory items = new MarketplaceItem[](itemCount);\n\n        for (uint256 i = 0; i < totalItemCount; i++) {\n            if (idToMarketplaceItem[i + 1].seller == msg.sender) {\n                uint256 currentId = i + 1;\n                MarketplaceItem storage currentItem = idToMarketplaceItem[\n                    currentId\n                ];\n                items[currentIndex] = currentItem;\n                currentIndex += 1;\n            }\n        }\n\n        return items;\n        }\n    // if the user cancels a sale or the timer runs out return the item to the owner\n    function cancelMarketplaceSale(uint256 saleID) \n        public \n        nonReentrant \n        onlySeller(saleID)\n        onlyNotSoldOrCanceled(saleID) \n        {\n        MarketplaceItem storage item = idToMarketplaceItem[saleID];\n        require(\n            item.sold == false,\n            \"Can't cancel sold item\"\n        );\n        // set canceled to true\n        idToMarketplaceItem[saleID].canceled = true;\n        // transfer ownership back to the seller and require them to pay the gas\n\n        IERC721(item.nftContract).transferFrom(address(this), msg.sender, idToMarketplaceItem[saleID].tokenId);\n        // emit event\n        emit MarketplaceItemReturned(\n            saleID,\n            item.nftContract,\n            item.tokenId,\n            item.seller,\n            item.price,\n            item.sold,\n            item.canceled\n        );\n        }\n    // return the matic ballance of the marketplace contract\n    function getMaticBalance() public view returns (uint256) {\n        return address(this).balance;\n        }\n    // withdraw spill funds from the marketplace\n    function withdrawFunds() public payable onlyOwner {\n        require(address(this).balance > 0, \"No funds to withdraw\");\n        liquidityPool.transfer(address(this).balance);\n        }\n    // purchase nft with ERC20\n    function tokenNFTpurchase(uint256 saleID)\n        public\n        payable\n        nonReentrant\n        onlyNotSoldOrCanceled(saleID)\n        {\n            MarketplaceItem storage item = idToMarketplaceItem[saleID];\n            require(\n                item.sold == false,\n                \"Can't purchase sold item\"\n            );\n            // must authorize the purchase\n            require(dc.transferFrom(msg.sender, idToMarketplaceItem[saleID].seller, idToMarketplaceItem[saleID].tokenSalePrice), \"Token transfer failed\");\n            // transfer ownership of the item\n            IERC721(item.nftContract).transferFrom(address(this), msg.sender, idToMarketplaceItem[saleID].tokenId);\n            // set sold to true\n            idToMarketplaceItem[saleID].sold = true;\n            // emit event\n            emit MarketplaceItemCreated(\n                saleID,\n                item.nftContract,\n                item.tokenId,\n                msg.sender,\n                item.price,\n                item.tokenSalePrice,\n                false,\n                false\n            );\n        }\n}\n",
  "sourcePath": "/home/phoenix/Works/tacvue-nft/contracts/rechargemarket.sol",
  "compiler": {
    "name": "solc",
    "version": "0.8.9+commit.e5eed63a.Emscripten.clang"
  },
  "schemaVersion": "3.4.3",
  "updatedAt": "2021-12-06T15:55:47.608Z",
  "devdoc": {
    "kind": "dev",
    "methods": {},
    "version": 1
  },
  "userdoc": {
    "kind": "user",
    "methods": {},
    "version": 1
  }
}