{
  "contractName": "Recharge",
  "abi": [
    {
      "inputs": [
        {
          "internalType": "string",
          "name": "name",
          "type": "string"
        },
        {
          "internalType": "string",
          "name": "symbol",
          "type": "string"
        }
      ],
      "stateMutability": "nonpayable",
      "type": "constructor"
    },
    {
      "anonymous": false,
      "inputs": [
        {
          "indexed": true,
          "internalType": "address",
          "name": "owner",
          "type": "address"
        },
        {
          "indexed": true,
          "internalType": "address",
          "name": "spender",
          "type": "address"
        },
        {
          "indexed": false,
          "internalType": "uint256",
          "name": "value",
          "type": "uint256"
        }
      ],
      "name": "Approval",
      "type": "event"
    },
    {
      "anonymous": false,
      "inputs": [
        {
          "indexed": true,
          "internalType": "address",
          "name": "from",
          "type": "address"
        },
        {
          "indexed": false,
          "internalType": "uint256",
          "name": "value",
          "type": "uint256"
        }
      ],
      "name": "Burned",
      "type": "event"
    },
    {
      "anonymous": false,
      "inputs": [
        {
          "indexed": true,
          "internalType": "address",
          "name": "buyer",
          "type": "address"
        },
        {
          "indexed": false,
          "internalType": "uint256",
          "name": "value",
          "type": "uint256"
        },
        {
          "indexed": false,
          "internalType": "uint256",
          "name": "quantity",
          "type": "uint256"
        }
      ],
      "name": "BuyTokens",
      "type": "event"
    },
    {
      "anonymous": false,
      "inputs": [
        {
          "indexed": true,
          "internalType": "uint256",
          "name": "func",
          "type": "uint256"
        },
        {
          "indexed": false,
          "internalType": "bool",
          "name": "isLocked",
          "type": "bool"
        }
      ],
      "name": "LockStateChanged",
      "type": "event"
    },
    {
      "anonymous": false,
      "inputs": [
        {
          "indexed": true,
          "internalType": "address",
          "name": "to",
          "type": "address"
        },
        {
          "indexed": false,
          "internalType": "uint256",
          "name": "value",
          "type": "uint256"
        }
      ],
      "name": "Minted",
      "type": "event"
    },
    {
      "anonymous": false,
      "inputs": [
        {
          "indexed": true,
          "internalType": "address",
          "name": "buyer",
          "type": "address"
        },
        {
          "indexed": false,
          "internalType": "uint256",
          "name": "value",
          "type": "uint256"
        }
      ],
      "name": "NftPurchased",
      "type": "event"
    },
    {
      "anonymous": false,
      "inputs": [
        {
          "indexed": true,
          "internalType": "address",
          "name": "nftAddress",
          "type": "address"
        },
        {
          "indexed": false,
          "internalType": "uint256",
          "name": "tokenId",
          "type": "uint256"
        }
      ],
      "name": "NftSet",
      "type": "event"
    },
    {
      "anonymous": false,
      "inputs": [
        {
          "indexed": true,
          "internalType": "address",
          "name": "voter",
          "type": "address"
        },
        {
          "indexed": false,
          "internalType": "uint256",
          "name": "value",
          "type": "uint256"
        }
      ],
      "name": "PollPaid",
      "type": "event"
    },
    {
      "anonymous": false,
      "inputs": [
        {
          "indexed": false,
          "internalType": "uint256",
          "name": "value",
          "type": "uint256"
        }
      ],
      "name": "PolltobePaid",
      "type": "event"
    },
    {
      "anonymous": false,
      "inputs": [
        {
          "indexed": false,
          "internalType": "uint256",
          "name": "newPrice",
          "type": "uint256"
        }
      ],
      "name": "PriceChanged",
      "type": "event"
    },
    {
      "anonymous": false,
      "inputs": [
        {
          "indexed": true,
          "internalType": "bytes32",
          "name": "role",
          "type": "bytes32"
        },
        {
          "indexed": true,
          "internalType": "bytes32",
          "name": "previousAdminRole",
          "type": "bytes32"
        },
        {
          "indexed": true,
          "internalType": "bytes32",
          "name": "newAdminRole",
          "type": "bytes32"
        }
      ],
      "name": "RoleAdminChanged",
      "type": "event"
    },
    {
      "anonymous": false,
      "inputs": [
        {
          "indexed": true,
          "internalType": "bytes32",
          "name": "role",
          "type": "bytes32"
        },
        {
          "indexed": true,
          "internalType": "address",
          "name": "account",
          "type": "address"
        }
      ],
      "name": "RoleGranted",
      "type": "event"
    },
    {
      "anonymous": false,
      "inputs": [
        {
          "indexed": true,
          "internalType": "bytes32",
          "name": "role",
          "type": "bytes32"
        },
        {
          "indexed": true,
          "internalType": "address",
          "name": "account",
          "type": "address"
        },
        {
          "indexed": true,
          "internalType": "address",
          "name": "sender",
          "type": "address"
        }
      ],
      "name": "RoleGranted",
      "type": "event"
    },
    {
      "anonymous": false,
      "inputs": [
        {
          "indexed": true,
          "internalType": "bytes32",
          "name": "role",
          "type": "bytes32"
        },
        {
          "indexed": true,
          "internalType": "address",
          "name": "account",
          "type": "address"
        }
      ],
      "name": "RoleRevoked",
      "type": "event"
    },
    {
      "anonymous": false,
      "inputs": [
        {
          "indexed": true,
          "internalType": "bytes32",
          "name": "role",
          "type": "bytes32"
        },
        {
          "indexed": true,
          "internalType": "address",
          "name": "account",
          "type": "address"
        },
        {
          "indexed": true,
          "internalType": "address",
          "name": "sender",
          "type": "address"
        }
      ],
      "name": "RoleRevoked",
      "type": "event"
    },
    {
      "anonymous": false,
      "inputs": [
        {
          "indexed": true,
          "internalType": "address",
          "name": "from",
          "type": "address"
        },
        {
          "indexed": true,
          "internalType": "address",
          "name": "to",
          "type": "address"
        },
        {
          "indexed": false,
          "internalType": "uint256",
          "name": "value",
          "type": "uint256"
        }
      ],
      "name": "Transfer",
      "type": "event"
    },
    {
      "anonymous": false,
      "inputs": [
        {
          "indexed": true,
          "internalType": "address",
          "name": "from",
          "type": "address"
        },
        {
          "indexed": false,
          "internalType": "uint256",
          "name": "value",
          "type": "uint256"
        }
      ],
      "name": "Withdrawn",
      "type": "event"
    },
    {
      "inputs": [],
      "name": "BALLOT_ROLE",
      "outputs": [
        {
          "internalType": "bytes32",
          "name": "",
          "type": "bytes32"
        }
      ],
      "stateMutability": "view",
      "type": "function"
    },
    {
      "inputs": [],
      "name": "DAO_ROLE",
      "outputs": [
        {
          "internalType": "bytes32",
          "name": "",
          "type": "bytes32"
        }
      ],
      "stateMutability": "view",
      "type": "function"
    },
    {
      "inputs": [],
      "name": "DEFAULT_ADMIN_ROLE",
      "outputs": [
        {
          "internalType": "bytes32",
          "name": "",
          "type": "bytes32"
        }
      ],
      "stateMutability": "view",
      "type": "function"
    },
    {
      "inputs": [],
      "name": "NFT_ROLE",
      "outputs": [
        {
          "internalType": "bytes32",
          "name": "",
          "type": "bytes32"
        }
      ],
      "stateMutability": "view",
      "type": "function"
    },
    {
      "inputs": [],
      "name": "OWNER_ROLE",
      "outputs": [
        {
          "internalType": "bytes32",
          "name": "",
          "type": "bytes32"
        }
      ],
      "stateMutability": "view",
      "type": "function"
    },
    {
      "inputs": [
        {
          "internalType": "address",
          "name": "owner",
          "type": "address"
        },
        {
          "internalType": "address",
          "name": "spender",
          "type": "address"
        }
      ],
      "name": "allowance",
      "outputs": [
        {
          "internalType": "uint256",
          "name": "",
          "type": "uint256"
        }
      ],
      "stateMutability": "view",
      "type": "function"
    },
    {
      "inputs": [
        {
          "internalType": "address",
          "name": "spender",
          "type": "address"
        },
        {
          "internalType": "uint256",
          "name": "amount",
          "type": "uint256"
        }
      ],
      "name": "approve",
      "outputs": [
        {
          "internalType": "bool",
          "name": "",
          "type": "bool"
        }
      ],
      "stateMutability": "nonpayable",
      "type": "function"
    },
    {
      "inputs": [
        {
          "internalType": "address",
          "name": "account",
          "type": "address"
        }
      ],
      "name": "balanceOf",
      "outputs": [
        {
          "internalType": "uint256",
          "name": "",
          "type": "uint256"
        }
      ],
      "stateMutability": "view",
      "type": "function"
    },
    {
      "inputs": [
        {
          "internalType": "uint256",
          "name": "amount",
          "type": "uint256"
        }
      ],
      "name": "burn",
      "outputs": [],
      "stateMutability": "nonpayable",
      "type": "function"
    },
    {
      "inputs": [
        {
          "internalType": "address",
          "name": "account",
          "type": "address"
        },
        {
          "internalType": "uint256",
          "name": "amount",
          "type": "uint256"
        }
      ],
      "name": "burnFrom",
      "outputs": [],
      "stateMutability": "nonpayable",
      "type": "function"
    },
    {
      "inputs": [],
      "name": "decimals",
      "outputs": [
        {
          "internalType": "uint8",
          "name": "",
          "type": "uint8"
        }
      ],
      "stateMutability": "view",
      "type": "function"
    },
    {
      "inputs": [
        {
          "internalType": "address",
          "name": "spender",
          "type": "address"
        },
        {
          "internalType": "uint256",
          "name": "subtractedValue",
          "type": "uint256"
        }
      ],
      "name": "decreaseAllowance",
      "outputs": [
        {
          "internalType": "bool",
          "name": "",
          "type": "bool"
        }
      ],
      "stateMutability": "nonpayable",
      "type": "function"
    },
    {
      "inputs": [
        {
          "internalType": "bytes32",
          "name": "role",
          "type": "bytes32"
        }
      ],
      "name": "getRoleAdmin",
      "outputs": [
        {
          "internalType": "bytes32",
          "name": "",
          "type": "bytes32"
        }
      ],
      "stateMutability": "view",
      "type": "function"
    },
    {
      "inputs": [
        {
          "internalType": "bytes32",
          "name": "role",
          "type": "bytes32"
        },
        {
          "internalType": "uint256",
          "name": "index",
          "type": "uint256"
        }
      ],
      "name": "getRoleMember",
      "outputs": [
        {
          "internalType": "address",
          "name": "",
          "type": "address"
        }
      ],
      "stateMutability": "view",
      "type": "function"
    },
    {
      "inputs": [
        {
          "internalType": "bytes32",
          "name": "role",
          "type": "bytes32"
        }
      ],
      "name": "getRoleMemberCount",
      "outputs": [
        {
          "internalType": "uint256",
          "name": "",
          "type": "uint256"
        }
      ],
      "stateMutability": "view",
      "type": "function"
    },
    {
      "inputs": [
        {
          "internalType": "bytes32",
          "name": "role",
          "type": "bytes32"
        },
        {
          "internalType": "address",
          "name": "account",
          "type": "address"
        }
      ],
      "name": "grantRole",
      "outputs": [],
      "stateMutability": "nonpayable",
      "type": "function"
    },
    {
      "inputs": [
        {
          "internalType": "bytes32",
          "name": "role",
          "type": "bytes32"
        },
        {
          "internalType": "address",
          "name": "account",
          "type": "address"
        }
      ],
      "name": "hasRole",
      "outputs": [
        {
          "internalType": "bool",
          "name": "",
          "type": "bool"
        }
      ],
      "stateMutability": "view",
      "type": "function"
    },
    {
      "inputs": [
        {
          "internalType": "address",
          "name": "spender",
          "type": "address"
        },
        {
          "internalType": "uint256",
          "name": "addedValue",
          "type": "uint256"
        }
      ],
      "name": "increaseAllowance",
      "outputs": [
        {
          "internalType": "bool",
          "name": "",
          "type": "bool"
        }
      ],
      "stateMutability": "nonpayable",
      "type": "function"
    },
    {
      "inputs": [],
      "name": "initialSupply",
      "outputs": [
        {
          "internalType": "uint256",
          "name": "",
          "type": "uint256"
        }
      ],
      "stateMutability": "view",
      "type": "function"
    },
    {
      "inputs": [
        {
          "internalType": "uint256",
          "name": "",
          "type": "uint256"
        }
      ],
      "name": "locked",
      "outputs": [
        {
          "internalType": "bool",
          "name": "",
          "type": "bool"
        }
      ],
      "stateMutability": "view",
      "type": "function"
    },
    {
      "inputs": [],
      "name": "name",
      "outputs": [
        {
          "internalType": "string",
          "name": "",
          "type": "string"
        }
      ],
      "stateMutability": "view",
      "type": "function"
    },
    {
      "inputs": [
        {
          "internalType": "bytes32",
          "name": "role",
          "type": "bytes32"
        },
        {
          "internalType": "address",
          "name": "account",
          "type": "address"
        }
      ],
      "name": "renounceRole",
      "outputs": [],
      "stateMutability": "nonpayable",
      "type": "function"
    },
    {
      "inputs": [
        {
          "internalType": "bytes32",
          "name": "role",
          "type": "bytes32"
        },
        {
          "internalType": "address",
          "name": "account",
          "type": "address"
        }
      ],
      "name": "revokeRole",
      "outputs": [],
      "stateMutability": "nonpayable",
      "type": "function"
    },
    {
      "inputs": [],
      "name": "self",
      "outputs": [
        {
          "internalType": "contract Recharge",
          "name": "",
          "type": "address"
        }
      ],
      "stateMutability": "view",
      "type": "function"
    },
    {
      "inputs": [
        {
          "internalType": "bytes4",
          "name": "interfaceId",
          "type": "bytes4"
        }
      ],
      "name": "supportsInterface",
      "outputs": [
        {
          "internalType": "bool",
          "name": "",
          "type": "bool"
        }
      ],
      "stateMutability": "view",
      "type": "function"
    },
    {
      "inputs": [],
      "name": "symbol",
      "outputs": [
        {
          "internalType": "string",
          "name": "",
          "type": "string"
        }
      ],
      "stateMutability": "view",
      "type": "function"
    },
    {
      "inputs": [],
      "name": "totalSupply",
      "outputs": [
        {
          "internalType": "uint256",
          "name": "",
          "type": "uint256"
        }
      ],
      "stateMutability": "view",
      "type": "function"
    },
    {
      "inputs": [
        {
          "internalType": "address",
          "name": "recipient",
          "type": "address"
        },
        {
          "internalType": "uint256",
          "name": "amount",
          "type": "uint256"
        }
      ],
      "name": "transfer",
      "outputs": [
        {
          "internalType": "bool",
          "name": "",
          "type": "bool"
        }
      ],
      "stateMutability": "nonpayable",
      "type": "function"
    },
    {
      "inputs": [
        {
          "internalType": "address",
          "name": "sender",
          "type": "address"
        },
        {
          "internalType": "address",
          "name": "recipient",
          "type": "address"
        },
        {
          "internalType": "uint256",
          "name": "amount",
          "type": "uint256"
        }
      ],
      "name": "transferFrom",
      "outputs": [
        {
          "internalType": "bool",
          "name": "",
          "type": "bool"
        }
      ],
      "stateMutability": "nonpayable",
      "type": "function"
    },
    {
      "stateMutability": "payable",
      "type": "receive"
    },
    {
      "inputs": [
        {
          "internalType": "address",
          "name": "to",
          "type": "address"
        },
        {
          "internalType": "uint256",
          "name": "amount",
          "type": "uint256"
        }
      ],
      "name": "mint",
      "outputs": [],
      "stateMutability": "nonpayable",
      "type": "function"
    },
    {
      "inputs": [
        {
          "internalType": "uint256",
          "name": "_price",
          "type": "uint256"
        }
      ],
      "name": "setTokenPrice",
      "outputs": [],
      "stateMutability": "nonpayable",
      "type": "function"
    },
    {
      "inputs": [
        {
          "internalType": "uint256",
          "name": "_payout",
          "type": "uint256"
        }
      ],
      "name": "setPollPayout",
      "outputs": [],
      "stateMutability": "nonpayable",
      "type": "function"
    },
    {
      "inputs": [
        {
          "internalType": "address",
          "name": "_voter",
          "type": "address"
        }
      ],
      "name": "payPoll",
      "outputs": [
        {
          "internalType": "bool",
          "name": "success",
          "type": "bool"
        }
      ],
      "stateMutability": "nonpayable",
      "type": "function"
    },
    {
      "inputs": [
        {
          "internalType": "address",
          "name": "_ballot",
          "type": "address"
        }
      ],
      "name": "setBallot",
      "outputs": [],
      "stateMutability": "nonpayable",
      "type": "function"
    },
    {
      "inputs": [
        {
          "internalType": "uint256",
          "name": "_function",
          "type": "uint256"
        }
      ],
      "name": "setLock",
      "outputs": [],
      "stateMutability": "nonpayable",
      "type": "function"
    },
    {
      "inputs": [
        {
          "internalType": "uint256",
          "name": "_function",
          "type": "uint256"
        }
      ],
      "name": "unLock",
      "outputs": [],
      "stateMutability": "nonpayable",
      "type": "function"
    },
    {
      "inputs": [
        {
          "internalType": "address",
          "name": "_to",
          "type": "address"
        }
      ],
      "name": "withdrawMatic",
      "outputs": [],
      "stateMutability": "nonpayable",
      "type": "function"
    }
  ],
  "bytecode": "0x60806040523480156200001157600080fd5b50604051620051fc380380620051fc833981810160405281019062000037919062000975565b818181600590805190602001906200005192919062000728565b5080600690805190602001906200006a92919062000728565b505050620000916000801b62000085620001ad60201b60201c565b620001b560201b60201c565b620000d27fb19546dff01e856fb3f010c267a7b1c60363cf8a4664e21cc89c26224620214e620000c6620001ad60201b60201c565b620001b560201b60201c565b620001137f3b5d4cc60d3ec3516ee8ae083bd60934f6eb2a6c54b1229985c41bfb092b260362000107620001ad60201b60201c565b620001b560201b60201c565b600160098190555030600760006101000a81548173ffffffffffffffffffffffffffffffffffffffff021916908373ffffffffffffffffffffffffffffffffffffffff1602179055506b204fce5e3e25026110000000600881905550620001a5600760009054906101000a900473ffffffffffffffffffffffffffffffffffffffff16600854620001cb60201b60201c565b505062000cb9565b600033905090565b620001c782826200032c60201b60201c565b5050565b6200020c7f3b5d4cc60d3ec3516ee8ae083bd60934f6eb2a6c54b1229985c41bfb092b260362000200620001ad60201b60201c565b6200037460201b60201c565b6200024e576040517f08c379a0000000000000000000000000000000000000000000000000000000008152600401620002459062000a5b565b60405180910390fd5b6000801515600b82600281106200026a576200026962000a7d565b5b602091828204019190069054906101000a900460ff16151514620002c5576040517f08c379a0000000000000000000000000000000000000000000000000000000008152600401620002bc9062000afc565b60405180910390fd5b620002d78383620003de60201b60201c565b8273ffffffffffffffffffffffffffffffffffffffff167f30385c845b448a36257a6a1716e6ad2e1bc2cbe333cde1e69fe849ad6511adfe836040516200031f919062000b39565b60405180910390a2505050565b6200034382826200055860201b620020e41760201c565b6200036f81600160008581526020019081526020016000206200064960201b620021c41790919060201c565b505050565b600080600084815260200190815260200160002060000160008373ffffffffffffffffffffffffffffffffffffffff1673ffffffffffffffffffffffffffffffffffffffff16815260200190815260200160002060009054906101000a900460ff16905092915050565b600073ffffffffffffffffffffffffffffffffffffffff168273ffffffffffffffffffffffffffffffffffffffff16141562000451576040517f08c379a0000000000000000000000000000000000000000000000000000000008152600401620004489062000ba6565b60405180910390fd5b62000465600083836200068160201b60201c565b806004600082825462000479919062000bf7565b9250508190555080600260008473ffffffffffffffffffffffffffffffffffffffff1673ffffffffffffffffffffffffffffffffffffffff1681526020019081526020016000206000828254620004d1919062000bf7565b925050819055508173ffffffffffffffffffffffffffffffffffffffff16600073ffffffffffffffffffffffffffffffffffffffff167fddf252ad1be2c89b69c2b068fc378daa952ba7f163c4a11628f55a4df523b3ef8360405162000538919062000b39565b60405180910390a362000554600083836200068660201b60201c565b5050565b6200056a82826200037460201b60201c565b6200064557600160008084815260200190815260200160002060000160008373ffffffffffffffffffffffffffffffffffffffff1673ffffffffffffffffffffffffffffffffffffffff16815260200190815260200160002060006101000a81548160ff021916908315150217905550620005ea620001ad60201b60201c565b73ffffffffffffffffffffffffffffffffffffffff168173ffffffffffffffffffffffffffffffffffffffff16837f2f8788117e7eff1d82e926ec794901d17c78024a50270940304540a733656f0d60405160405180910390a45b5050565b600062000679836000018373ffffffffffffffffffffffffffffffffffffffff1660001b6200068b60201b60201c565b905092915050565b505050565b505050565b60006200069f83836200070560201b60201c565b620006fa578260000182908060018154018082558091505060019003906000526020600020016000909190919091505582600001805490508360010160008481526020019081526020016000208190555060019050620006ff565b600090505b92915050565b600080836001016000848152602001908152602001600020541415905092915050565b828054620007369062000c83565b90600052602060002090601f0160209004810192826200075a5760008555620007a6565b82601f106200077557805160ff1916838001178555620007a6565b82800160010185558215620007a6579182015b82811115620007a557825182559160200191906001019062000788565b5b509050620007b59190620007b9565b5090565b5b80821115620007d4576000816000905550600101620007ba565b5090565b6000604051905090565b600080fd5b600080fd5b600080fd5b600080fd5b6000601f19601f8301169050919050565b7f4e487b7100000000000000000000000000000000000000000000000000000000600052604160045260246000fd5b6200084182620007f6565b810181811067ffffffffffffffff8211171562000863576200086262000807565b5b80604052505050565b600062000878620007d8565b905062000886828262000836565b919050565b600067ffffffffffffffff821115620008a957620008a862000807565b5b620008b482620007f6565b9050602081019050919050565b60005b83811015620008e1578082015181840152602081019050620008c4565b83811115620008f1576000848401525b50505050565b60006200090e62000908846200088b565b6200086c565b9050828152602081018484840111156200092d576200092c620007f1565b5b6200093a848285620008c1565b509392505050565b600082601f8301126200095a5762000959620007ec565b5b81516200096c848260208601620008f7565b91505092915050565b600080604083850312156200098f576200098e620007e2565b5b600083015167ffffffffffffffff811115620009b057620009af620007e7565b5b620009be8582860162000942565b925050602083015167ffffffffffffffff811115620009e257620009e1620007e7565b5b620009f08582860162000942565b9150509250929050565b600082825260208201905092915050565b7f44414f20526f6c65207265717569726564000000000000000000000000000000600082015250565b600062000a43601183620009fa565b915062000a508262000a0b565b602082019050919050565b6000602082019050818103600083015262000a768162000a34565b9050919050565b7f4e487b7100000000000000000000000000000000000000000000000000000000600052603260045260246000fd5b7f46756e6374696f6e206973206c6f636b65640000000000000000000000000000600082015250565b600062000ae4601283620009fa565b915062000af18262000aac565b602082019050919050565b6000602082019050818103600083015262000b178162000ad5565b9050919050565b6000819050919050565b62000b338162000b1e565b82525050565b600060208201905062000b50600083018462000b28565b92915050565b7f45524332303a206d696e7420746f20746865207a65726f206164647265737300600082015250565b600062000b8e601f83620009fa565b915062000b9b8262000b56565b602082019050919050565b6000602082019050818103600083015262000bc18162000b7f565b9050919050565b7f4e487b7100000000000000000000000000000000000000000000000000000000600052601160045260246000fd5b600062000c048262000b1e565b915062000c118362000b1e565b9250827fffffffffffffffffffffffffffffffffffffffffffffffffffffffffffffffff0382111562000c495762000c4862000bc8565b5b828201905092915050565b7f4e487b7100000000000000000000000000000000000000000000000000000000600052602260045260246000fd5b6000600282049050600182168062000c9c57607f821691505b6020821081141562000cb35762000cb262000c54565b5b50919050565b6145338062000cc96000396000f3fe60806040526004361061021e5760003560e01c80637104ddb211610123578063af8437f9116100ab578063d547741f1161006f578063d547741f14610aa8578063dd62ed3e14610ad1578063e58378bb14610b0e578063e9c2651814610b39578063f684f33c14610b645761046f565b8063af8437f9146109b3578063b45a3c0e146109dc578063ca15c87314610a19578063d051bfa314610a56578063d3e1574714610a7f5761046f565b806395d89b41116100f257806395d89b41146108ba5780639b1b63d5146108e5578063a217fddf1461090e578063a457c2d714610939578063a9059cbb146109765761046f565b80637104ddb2146107ec57806379cc6790146108175780639010d07c1461084057806391d148541461087d5761046f565b8063313ce567116101a6578063395093511161017557806339509351146106f757806340c10f191461073457806342966c681461075d5780636a61e5fc1461078657806370a08231146107af5761046f565b8063313ce5671461064d5780633140d5861461067857806336568abe146106a3578063378dc3dc146106cc5761046f565b80631510c84f116101ed5780631510c84f1461054257806318160ddd1461057f57806323b872dd146105aa578063248a9ca3146105e75780632f2ff15d146106245761046f565b806301ffc9a71461047457806302d6aee1146104b157806306fdde03146104da578063095ea7b3146105055761046f565b3661046f57600060095434610233919061311e565b90506000600760009054906101000a900473ffffffffffffffffffffffffffffffffffffffff1673ffffffffffffffffffffffffffffffffffffffff166370a08231306040518263ffffffff1660e01b815260040161029291906131b9565b60206040518083038186803b1580156102aa57600080fd5b505afa1580156102be573d6000803e3d6000fd5b505050506040513d601f19601f820116820180604052508101906102e29190613205565b905081811015610327576040517f08c379a000000000000000000000000000000000000000000000000000000000815260040161031e906132b5565b60405180910390fd5b6000600760009054906101000a900473ffffffffffffffffffffffffffffffffffffffff1673ffffffffffffffffffffffffffffffffffffffff1663a9059cbb33856040518363ffffffff1660e01b81526004016103869291906132e4565b602060405180830381600087803b1580156103a057600080fd5b505af11580156103b4573d6000803e3d6000fd5b505050506040513d601f19601f820116820180604052508101906103d89190613345565b90508061041a576040517f08c379a0000000000000000000000000000000000000000000000000000000008152600401610411906133be565b60405180910390fd5b3373ffffffffffffffffffffffffffffffffffffffff167f0a37b72bb67eee30e09084cf386f8a17817c57f620c3ab95fb25d6a20356ec7734856040516104629291906133de565b60405180910390a2505050005b600080fd5b34801561048057600080fd5b5061049b6004803603810190610496919061345f565b610b8f565b6040516104a8919061349b565b60405180910390f35b3480156104bd57600080fd5b506104d860048036038101906104d391906134cb565b610c09565b005b3480156104e657600080fd5b506104ef610e1b565b6040516104fc9190613580565b60405180910390f35b34801561051157600080fd5b5061052c600480360381019061052791906135ce565b610ead565b604051610539919061349b565b60405180910390f35b34801561054e57600080fd5b506105696004803603810190610564919061360e565b610ecb565b604051610576919061349b565b60405180910390f35b34801561058b57600080fd5b506105946110c9565b6040516105a1919061363b565b60405180910390f35b3480156105b657600080fd5b506105d160048036038101906105cc9190613656565b6110d3565b6040516105de919061349b565b60405180910390f35b3480156105f357600080fd5b5061060e600480360381019061060991906136df565b6111cb565b60405161061b919061371b565b60405180910390f35b34801561063057600080fd5b5061064b60048036038101906106469190613736565b6111ea565b005b34801561065957600080fd5b50610662611213565b60405161066f9190613792565b60405180910390f35b34801561068457600080fd5b5061068d61121c565b60405161069a919061371b565b60405180910390f35b3480156106af57600080fd5b506106ca60048036038101906106c59190613736565b611240565b005b3480156106d857600080fd5b506106e16112c3565b6040516106ee919061363b565b60405180910390f35b34801561070357600080fd5b5061071e600480360381019061071991906135ce565b6112c9565b60405161072b919061349b565b60405180910390f35b34801561074057600080fd5b5061075b600480360381019061075691906135ce565b611375565b005b34801561076957600080fd5b50610784600480360381019061077f91906134cb565b6114b3565b005b34801561079257600080fd5b506107ad60048036038101906107a891906134cb565b6114c7565b005b3480156107bb57600080fd5b506107d660048036038101906107d1919061360e565b61157a565b6040516107e3919061363b565b60405180910390f35b3480156107f857600080fd5b506108016115c3565b60405161080e919061380c565b60405180910390f35b34801561082357600080fd5b5061083e600480360381019061083991906135ce565b6115e9565b005b34801561084c57600080fd5b5061086760048036038101906108629190613827565b611664565b60405161087491906131b9565b60405180910390f35b34801561088957600080fd5b506108a4600480360381019061089f9190613736565b611693565b6040516108b1919061349b565b60405180910390f35b3480156108c657600080fd5b506108cf6116fd565b6040516108dc9190613580565b60405180910390f35b3480156108f157600080fd5b5061090c600480360381019061090791906134cb565b61178f565b005b34801561091a57600080fd5b50610923611842565b604051610930919061371b565b60405180910390f35b34801561094557600080fd5b50610960600480360381019061095b91906135ce565b611849565b60405161096d919061349b565b60405180910390f35b34801561098257600080fd5b5061099d600480360381019061099891906135ce565b611934565b6040516109aa919061349b565b60405180910390f35b3480156109bf57600080fd5b506109da60048036038101906109d5919061360e565b611952565b005b3480156109e857600080fd5b50610a0360048036038101906109fe91906134cb565b611c67565b604051610a10919061349b565b60405180910390f35b348015610a2557600080fd5b50610a406004803603810190610a3b91906136df565b611c91565b604051610a4d919061363b565b60405180910390f35b348015610a6257600080fd5b50610a7d6004803603810190610a78919061360e565b611cb5565b005b348015610a8b57600080fd5b50610aa66004803603810190610aa191906134cb565b611db6565b005b348015610ab457600080fd5b50610acf6004803603810190610aca9190613736565b611fc8565b005b348015610add57600080fd5b50610af86004803603810190610af39190613867565b611ff1565b604051610b05919061363b565b60405180910390f35b348015610b1a57600080fd5b50610b23612078565b604051610b30919061371b565b60405180910390f35b348015610b4557600080fd5b50610b4e61209c565b604051610b5b919061371b565b60405180910390f35b348015610b7057600080fd5b50610b796120c0565b604051610b86919061371b565b60405180910390f35b60007f5a05180f000000000000000000000000000000000000000000000000000000007bffffffffffffffffffffffffffffffffffffffffffffffffffffffff1916827bffffffffffffffffffffffffffffffffffffffffffffffffffffffff19161480610c025750610c01826121f4565b5b9050919050565b610c3a7fb19546dff01e856fb3f010c267a7b1c60363cf8a4664e21cc89c26224620214e610c3561226e565b611693565b610c79576040517f08c379a0000000000000000000000000000000000000000000000000000000008152600401610c70906138f3565b60405180910390fd5b6000600190506001821415610d2a576000600b600060028110610c9f57610c9e613913565b5b602091828204019190066101000a81548160ff0219169083151502179055506000905060017fc92d00888ec1f7682b9383f9877ba9239fd33af04b7300b31e9e257924b6417a600b600060028110610cfa57610cf9613913565b5b602091828204019190069054906101000a900460ff16604051610d1d919061349b565b60405180910390a2610e17565b6002821415610dd5576000600b600160028110610d4a57610d49613913565b5b602091828204019190066101000a81548160ff0219169083151502179055506000905060027fc92d00888ec1f7682b9383f9877ba9239fd33af04b7300b31e9e257924b6417a600b600160028110610da557610da4613913565b5b602091828204019190069054906101000a900460ff16604051610dc8919061349b565b60405180910390a2610e16565b80610e15576040517f08c379a0000000000000000000000000000000000000000000000000000000008152600401610e0c9061398e565b60405180910390fd5b5b5b5050565b606060058054610e2a906139dd565b80601f0160208091040260200160405190810160405280929190818152602001828054610e56906139dd565b8015610ea35780601f10610e7857610100808354040283529160200191610ea3565b820191906000526020600020905b815481529060010190602001808311610e8657829003601f168201915b5050505050905090565b6000610ec1610eba61226e565b8484612276565b6001905092915050565b6000610efe7fbbf294321dc935971c849dadd2431d33dabf8260522386449f33afb5f6aeee88610ef961226e565b611693565b610f3d576040517f08c379a0000000000000000000000000000000000000000000000000000000008152600401610f3490613a5b565b60405180910390fd5b600160001515600b8260028110610f5757610f56613913565b5b602091828204019190069054906101000a900460ff16151514610faf576040517f08c379a0000000000000000000000000000000000000000000000000000000008152600401610fa690613ac7565b60405180910390fd5b600760009054906101000a900473ffffffffffffffffffffffffffffffffffffffff1673ffffffffffffffffffffffffffffffffffffffff1663a9059cbb84600c546040518363ffffffff1660e01b815260040161100e9291906132e4565b602060405180830381600087803b15801561102857600080fd5b505af115801561103c573d6000803e3d6000fd5b505050506040513d601f19601f820116820180604052508101906110609190613345565b156110be578273ffffffffffffffffffffffffffffffffffffffff167fd181b934a7414c67920a063e72c7b4e03c81a492dd190b785afd9ea402ba070e600c546040516110ad919061363b565b60405180910390a2600191506110c3565b600091505b50919050565b6000600454905090565b60006110e0848484612441565b6000600360008673ffffffffffffffffffffffffffffffffffffffff1673ffffffffffffffffffffffffffffffffffffffff168152602001908152602001600020600061112b61226e565b73ffffffffffffffffffffffffffffffffffffffff1673ffffffffffffffffffffffffffffffffffffffff168152602001908152602001600020549050828110156111ab576040517f08c379a00000000000000000000000000000000000000000000000000000000081526004016111a290613b59565b60405180910390fd5b6111bf856111b761226e565b858403612276565b60019150509392505050565b6000806000838152602001908152602001600020600101549050919050565b6111f3826111cb565b611204816111ff61226e565b6126c5565b61120e8383612762565b505050565b60006012905090565b7fbbf294321dc935971c849dadd2431d33dabf8260522386449f33afb5f6aeee8881565b61124861226e565b73ffffffffffffffffffffffffffffffffffffffff168173ffffffffffffffffffffffffffffffffffffffff16146112b5576040517f08c379a00000000000000000000000000000000000000000000000000000000081526004016112ac90613beb565b60405180910390fd5b6112bf8282612796565b5050565b60085481565b600061136b6112d661226e565b8484600360006112e461226e565b73ffffffffffffffffffffffffffffffffffffffff1673ffffffffffffffffffffffffffffffffffffffff16815260200190815260200160002060008873ffffffffffffffffffffffffffffffffffffffff1673ffffffffffffffffffffffffffffffffffffffff168152602001908152602001600020546113669190613c0b565b612276565b6001905092915050565b6113a67f3b5d4cc60d3ec3516ee8ae083bd60934f6eb2a6c54b1229985c41bfb092b26036113a161226e565b611693565b6113e5576040517f08c379a00000000000000000000000000000000000000000000000000000000081526004016113dc90613cad565b60405180910390fd5b6000801515600b82600281106113fe576113fd613913565b5b602091828204019190069054906101000a900460ff16151514611456576040517f08c379a000000000000000000000000000000000000000000000000000000000815260040161144d90613ac7565b60405180910390fd5b61146083836127ca565b8273ffffffffffffffffffffffffffffffffffffffff167f30385c845b448a36257a6a1716e6ad2e1bc2cbe333cde1e69fe849ad6511adfe836040516114a6919061363b565b60405180910390a2505050565b6114c46114be61226e565b8261292b565b50565b6114f87f3b5d4cc60d3ec3516ee8ae083bd60934f6eb2a6c54b1229985c41bfb092b26036114f361226e565b611693565b611537576040517f08c379a000000000000000000000000000000000000000000000000000000000815260040161152e90613cad565b60405180910390fd5b806009819055507fa6dc15bdb68da224c66db4b3838d9a2b205138e8cff6774e57d0af91e196d62260095460405161156f919061363b565b60405180910390a150565b6000600260008373ffffffffffffffffffffffffffffffffffffffff1673ffffffffffffffffffffffffffffffffffffffff168152602001908152602001600020549050919050565b600760009054906101000a900473ffffffffffffffffffffffffffffffffffffffff1681565b60006115fc836115f761226e565b611ff1565b905081811015611641576040517f08c379a000000000000000000000000000000000000000000000000000000000815260040161163890613d3f565b60405180910390fd5b6116558361164d61226e565b848403612276565b61165f838361292b565b505050565b600061168b8260016000868152602001908152602001600020612b0490919063ffffffff16565b905092915050565b600080600084815260200190815260200160002060000160008373ffffffffffffffffffffffffffffffffffffffff1673ffffffffffffffffffffffffffffffffffffffff16815260200190815260200160002060009054906101000a900460ff16905092915050565b60606006805461170c906139dd565b80601f0160208091040260200160405190810160405280929190818152602001828054611738906139dd565b80156117855780601f1061175a57610100808354040283529160200191611785565b820191906000526020600020905b81548152906001019060200180831161176857829003601f168201915b5050505050905090565b6117c07f3b5d4cc60d3ec3516ee8ae083bd60934f6eb2a6c54b1229985c41bfb092b26036117bb61226e565b611693565b6117ff576040517f08c379a00000000000000000000000000000000000000000000000000000000081526004016117f690613cad565b60405180910390fd5b80600c819055507f5bd072a2939f3de0dee0873b74701f6f666610839f6cdc41c4137a8a0f0f7d3b600c54604051611837919061363b565b60405180910390a150565b6000801b81565b6000806003600061185861226e565b73ffffffffffffffffffffffffffffffffffffffff1673ffffffffffffffffffffffffffffffffffffffff16815260200190815260200160002060008573ffffffffffffffffffffffffffffffffffffffff1673ffffffffffffffffffffffffffffffffffffffff16815260200190815260200160002054905082811015611915576040517f08c379a000000000000000000000000000000000000000000000000000000000815260040161190c90613dd1565b60405180910390fd5b61192961192061226e565b85858403612276565b600191505092915050565b600061194861194161226e565b8484612441565b6001905092915050565b6119837fb19546dff01e856fb3f010c267a7b1c60363cf8a4664e21cc89c26224620214e61197e61226e565b611693565b6119c2576040517f08c379a00000000000000000000000000000000000000000000000000000000081526004016119b9906138f3565b60405180910390fd5b6000600760009054906101000a900473ffffffffffffffffffffffffffffffffffffffff1673ffffffffffffffffffffffffffffffffffffffff166370a08231306040518263ffffffff1660e01b8152600401611a1f91906131b9565b60206040518083038186803b158015611a3757600080fd5b505afa158015611a4b573d6000803e3d6000fd5b505050506040513d601f19601f82011682018060405250810190611a6f9190613205565b11611aaf576040517f08c379a0000000000000000000000000000000000000000000000000000000008152600401611aa690613e3d565b60405180910390fd5b611b6381600760009054906101000a900473ffffffffffffffffffffffffffffffffffffffff1673ffffffffffffffffffffffffffffffffffffffff166370a08231306040518263ffffffff1660e01b8152600401611b0e91906131b9565b60206040518083038186803b158015611b2657600080fd5b505afa158015611b3a573d6000803e3d6000fd5b505050506040513d601f19601f82011682018060405250810190611b5e9190613205565b611934565b611b6c57600080fd5b8073ffffffffffffffffffffffffffffffffffffffff167f7084f5476618d8e60b11ef0d7d3f06914655adb8793e28ff7f018d4c76d505d5600760009054906101000a900473ffffffffffffffffffffffffffffffffffffffff1673ffffffffffffffffffffffffffffffffffffffff166370a08231306040518263ffffffff1660e01b8152600401611bff91906131b9565b60206040518083038186803b158015611c1757600080fd5b505afa158015611c2b573d6000803e3d6000fd5b505050506040513d601f19601f82011682018060405250810190611c4f9190613205565b604051611c5c919061363b565b60405180910390a250565b600b8160028110611c7757600080fd5b60209182820401919006915054906101000a900460ff1681565b6000611cae60016000848152602001908152602001600020612b1e565b9050919050565b611ce67f3b5d4cc60d3ec3516ee8ae083bd60934f6eb2a6c54b1229985c41bfb092b2603611ce161226e565b611693565b611d25576040517f08c379a0000000000000000000000000000000000000000000000000000000008152600401611d1c90613cad565b60405180910390fd5b611d4f7fbbf294321dc935971c849dadd2431d33dabf8260522386449f33afb5f6aeee8882612b33565b8073ffffffffffffffffffffffffffffffffffffffff167fbbf294321dc935971c849dadd2431d33dabf8260522386449f33afb5f6aeee887f2ae6a113c0ed5b78a53413ffbb7679881f11145ccfba4fb92e863dfcd5a1d2f360405160405180910390a350565b611de77f3b5d4cc60d3ec3516ee8ae083bd60934f6eb2a6c54b1229985c41bfb092b2603611de261226e565b611693565b611e26576040517f08c379a0000000000000000000000000000000000000000000000000000000008152600401611e1d90613cad565b60405180910390fd5b6000600190506001821415611ed7576001600b600060028110611e4c57611e4b613913565b5b602091828204019190066101000a81548160ff0219169083151502179055506000905060017fc92d00888ec1f7682b9383f9877ba9239fd33af04b7300b31e9e257924b6417a600b600060028110611ea757611ea6613913565b5b602091828204019190069054906101000a900460ff16604051611eca919061349b565b60405180910390a2611fc4565b6002821415611f82576001600b600160028110611ef757611ef6613913565b5b602091828204019190066101000a81548160ff0219169083151502179055506000905060037fc92d00888ec1f7682b9383f9877ba9239fd33af04b7300b31e9e257924b6417a600b600160028110611f5257611f51613913565b5b602091828204019190069054906101000a900460ff16604051611f75919061349b565b60405180910390a2611fc3565b80611fc2576040517f08c379a0000000000000000000000000000000000000000000000000000000008152600401611fb99061398e565b60405180910390fd5b5b5b5050565b611fd1826111cb565b611fe281611fdd61226e565b6126c5565b611fec8383612796565b505050565b6000600360008473ffffffffffffffffffffffffffffffffffffffff1673ffffffffffffffffffffffffffffffffffffffff16815260200190815260200160002060008373ffffffffffffffffffffffffffffffffffffffff1673ffffffffffffffffffffffffffffffffffffffff16815260200190815260200160002054905092915050565b7fb19546dff01e856fb3f010c267a7b1c60363cf8a4664e21cc89c26224620214e81565b7f3b5d4cc60d3ec3516ee8ae083bd60934f6eb2a6c54b1229985c41bfb092b260381565b7f8736816fdbcc15d6cc3f6dcf60e42b0ef33eb02281d312c807a38b4ad09190c081565b6120ee8282611693565b6121c057600160008084815260200190815260200160002060000160008373ffffffffffffffffffffffffffffffffffffffff1673ffffffffffffffffffffffffffffffffffffffff16815260200190815260200160002060006101000a81548160ff02191690831515021790555061216561226e565b73ffffffffffffffffffffffffffffffffffffffff168173ffffffffffffffffffffffffffffffffffffffff16837f2f8788117e7eff1d82e926ec794901d17c78024a50270940304540a733656f0d60405160405180910390a45b5050565b60006121ec836000018373ffffffffffffffffffffffffffffffffffffffff1660001b612b41565b905092915050565b60007f7965db0b000000000000000000000000000000000000000000000000000000007bffffffffffffffffffffffffffffffffffffffffffffffffffffffff1916827bffffffffffffffffffffffffffffffffffffffffffffffffffffffff19161480612267575061226682612bb1565b5b9050919050565b600033905090565b600073ffffffffffffffffffffffffffffffffffffffff168373ffffffffffffffffffffffffffffffffffffffff1614156122e6576040517f08c379a00000000000000000000000000000000000000000000000000000000081526004016122dd90613ecf565b60405180910390fd5b600073ffffffffffffffffffffffffffffffffffffffff168273ffffffffffffffffffffffffffffffffffffffff161415612356576040517f08c379a000000000000000000000000000000000000000000000000000000000815260040161234d90613f61565b60405180910390fd5b80600360008573ffffffffffffffffffffffffffffffffffffffff1673ffffffffffffffffffffffffffffffffffffffff16815260200190815260200160002060008473ffffffffffffffffffffffffffffffffffffffff1673ffffffffffffffffffffffffffffffffffffffff168152602001908152602001600020819055508173ffffffffffffffffffffffffffffffffffffffff168373ffffffffffffffffffffffffffffffffffffffff167f8c5be1e5ebec7d5bd14f71427d1e84f3dd0314c0f7b2291e5b200ac8c7c3b92583604051612434919061363b565b60405180910390a3505050565b600073ffffffffffffffffffffffffffffffffffffffff168373ffffffffffffffffffffffffffffffffffffffff1614156124b1576040517f08c379a00000000000000000000000000000000000000000000000000000000081526004016124a890613ff3565b60405180910390fd5b600073ffffffffffffffffffffffffffffffffffffffff168273ffffffffffffffffffffffffffffffffffffffff161415612521576040517f08c379a000000000000000000000000000000000000000000000000000000000815260040161251890614085565b60405180910390fd5b61252c838383612c1b565b6000600260008573ffffffffffffffffffffffffffffffffffffffff1673ffffffffffffffffffffffffffffffffffffffff168152602001908152602001600020549050818110156125b3576040517f08c379a00000000000000000000000000000000000000000000000000000000081526004016125aa90614117565b60405180910390fd5b818103600260008673ffffffffffffffffffffffffffffffffffffffff1673ffffffffffffffffffffffffffffffffffffffff1681526020019081526020016000208190555081600260008573ffffffffffffffffffffffffffffffffffffffff1673ffffffffffffffffffffffffffffffffffffffff16815260200190815260200160002060008282546126489190613c0b565b925050819055508273ffffffffffffffffffffffffffffffffffffffff168473ffffffffffffffffffffffffffffffffffffffff167fddf252ad1be2c89b69c2b068fc378daa952ba7f163c4a11628f55a4df523b3ef846040516126ac919061363b565b60405180910390a36126bf848484612c20565b50505050565b6126cf8282611693565b61275e576126f48173ffffffffffffffffffffffffffffffffffffffff166014612c25565b6127028360001c6020612c25565b60405160200161271392919061420b565b6040516020818303038152906040526040517f08c379a00000000000000000000000000000000000000000000000000000000081526004016127559190613580565b60405180910390fd5b5050565b61276c82826120e4565b61279181600160008581526020019081526020016000206121c490919063ffffffff16565b505050565b6127a08282612e61565b6127c58160016000858152602001908152602001600020612f4290919063ffffffff16565b505050565b600073ffffffffffffffffffffffffffffffffffffffff168273ffffffffffffffffffffffffffffffffffffffff16141561283a576040517f08c379a000000000000000000000000000000000000000000000000000000000815260040161283190614291565b60405180910390fd5b61284660008383612c1b565b80600460008282546128589190613c0b565b9250508190555080600260008473ffffffffffffffffffffffffffffffffffffffff1673ffffffffffffffffffffffffffffffffffffffff16815260200190815260200160002060008282546128ae9190613c0b565b925050819055508173ffffffffffffffffffffffffffffffffffffffff16600073ffffffffffffffffffffffffffffffffffffffff167fddf252ad1be2c89b69c2b068fc378daa952ba7f163c4a11628f55a4df523b3ef83604051612913919061363b565b60405180910390a361292760008383612c20565b5050565b600073ffffffffffffffffffffffffffffffffffffffff168273ffffffffffffffffffffffffffffffffffffffff16141561299b576040517f08c379a000000000000000000000000000000000000000000000000000000000815260040161299290614323565b60405180910390fd5b6129a782600083612c1b565b6000600260008473ffffffffffffffffffffffffffffffffffffffff1673ffffffffffffffffffffffffffffffffffffffff16815260200190815260200160002054905081811015612a2e576040517f08c379a0000000000000000000000000000000000000000000000000000000008152600401612a25906143b5565b60405180910390fd5b818103600260008573ffffffffffffffffffffffffffffffffffffffff1673ffffffffffffffffffffffffffffffffffffffff168152602001908152602001600020819055508160046000828254612a8691906143d5565b92505081905550600073ffffffffffffffffffffffffffffffffffffffff168373ffffffffffffffffffffffffffffffffffffffff167fddf252ad1be2c89b69c2b068fc378daa952ba7f163c4a11628f55a4df523b3ef84604051612aeb919061363b565b60405180910390a3612aff83600084612c20565b505050565b6000612b138360000183612f72565b60001c905092915050565b6000612b2c82600001612f9d565b9050919050565b612b3d8282612762565b5050565b6000612b4d8383612fae565b612ba6578260000182908060018154018082558091505060019003906000526020600020016000909190919091505582600001805490508360010160008481526020019081526020016000208190555060019050612bab565b600090505b92915050565b60007f01ffc9a7000000000000000000000000000000000000000000000000000000007bffffffffffffffffffffffffffffffffffffffffffffffffffffffff1916827bffffffffffffffffffffffffffffffffffffffffffffffffffffffff1916149050919050565b505050565b505050565b606060006002836002612c38919061311e565b612c429190613c0b565b67ffffffffffffffff811115612c5b57612c5a614409565b5b6040519080825280601f01601f191660200182016040528015612c8d5781602001600182028036833780820191505090505b5090507f300000000000000000000000000000000000000000000000000000000000000081600081518110612cc557612cc4613913565b5b60200101907effffffffffffffffffffffffffffffffffffffffffffffffffffffffffffff1916908160001a9053507f780000000000000000000000000000000000000000000000000000000000000081600181518110612d2957612d28613913565b5b60200101907effffffffffffffffffffffffffffffffffffffffffffffffffffffffffffff1916908160001a90535060006001846002612d69919061311e565b612d739190613c0b565b90505b6001811115612e13577f3031323334353637383961626364656600000000000000000000000000000000600f861660108110612db557612db4613913565b5b1a60f81b828281518110612dcc57612dcb613913565b5b60200101907effffffffffffffffffffffffffffffffffffffffffffffffffffffffffffff1916908160001a905350600485901c945080612e0c90614438565b9050612d76565b5060008414612e57576040517f08c379a0000000000000000000000000000000000000000000000000000000008152600401612e4e906144ae565b60405180910390fd5b8091505092915050565b612e6b8282611693565b15612f3e57600080600084815260200190815260200160002060000160008373ffffffffffffffffffffffffffffffffffffffff1673ffffffffffffffffffffffffffffffffffffffff16815260200190815260200160002060006101000a81548160ff021916908315150217905550612ee361226e565b73ffffffffffffffffffffffffffffffffffffffff168173ffffffffffffffffffffffffffffffffffffffff16837ff6391f5c32d9c69d2a47ea670b442974b53935d1edc7fd64eb21e047a839171b60405160405180910390a45b5050565b6000612f6a836000018373ffffffffffffffffffffffffffffffffffffffff1660001b612fd1565b905092915050565b6000826000018281548110612f8a57612f89613913565b5b9060005260206000200154905092915050565b600081600001805490509050919050565b600080836001016000848152602001908152602001600020541415905092915050565b600080836001016000848152602001908152602001600020549050600081146130d957600060018261300391906143d5565b905060006001866000018054905061301b91906143d5565b905081811461308a57600086600001828154811061303c5761303b613913565b5b90600052602060002001549050808760000184815481106130605761305f613913565b5b90600052602060002001819055508387600101600083815260200190815260200160002081905550505b8560000180548061309e5761309d6144ce565b5b6001900381819060005260206000200160009055905585600101600086815260200190815260200160002060009055600193505050506130df565b60009150505b92915050565b6000819050919050565b7f4e487b7100000000000000000000000000000000000000000000000000000000600052601160045260246000fd5b6000613129826130e5565b9150613134836130e5565b9250817fffffffffffffffffffffffffffffffffffffffffffffffffffffffffffffffff048311821515161561316d5761316c6130ef565b5b828202905092915050565b600073ffffffffffffffffffffffffffffffffffffffff82169050919050565b60006131a382613178565b9050919050565b6131b381613198565b82525050565b60006020820190506131ce60008301846131aa565b92915050565b600080fd5b6131e2816130e5565b81146131ed57600080fd5b50565b6000815190506131ff816131d9565b92915050565b60006020828403121561321b5761321a6131d4565b5b6000613229848285016131f0565b91505092915050565b600082825260208201905092915050565b7f746f6b656e20636f6e747261637420686173206e6f7420656e6f75676820746f60008201527f6b656e7320696e206974732062616c616e636500000000000000000000000000602082015250565b600061329f603383613232565b91506132aa82613243565b604082019050919050565b600060208201905081810360008301526132ce81613292565b9050919050565b6132de816130e5565b82525050565b60006040820190506132f960008301856131aa565b61330660208301846132d5565b9392505050565b60008115159050919050565b6133228161330d565b811461332d57600080fd5b50565b60008151905061333f81613319565b92915050565b60006020828403121561335b5761335a6131d4565b5b600061336984828501613330565b91505092915050565b7f4661696c656420746f207472616e7366657220746f6b656e20746f2075736572600082015250565b60006133a8602083613232565b91506133b382613372565b602082019050919050565b600060208201905081810360008301526133d78161339b565b9050919050565b60006040820190506133f360008301856132d5565b61340060208301846132d5565b9392505050565b60007fffffffff0000000000000000000000000000000000000000000000000000000082169050919050565b61343c81613407565b811461344757600080fd5b50565b60008135905061345981613433565b92915050565b600060208284031215613475576134746131d4565b5b60006134838482850161344a565b91505092915050565b6134958161330d565b82525050565b60006020820190506134b0600083018461348c565b92915050565b6000813590506134c5816131d9565b92915050565b6000602082840312156134e1576134e06131d4565b5b60006134ef848285016134b6565b91505092915050565b600081519050919050565b60005b83811015613521578082015181840152602081019050613506565b83811115613530576000848401525b50505050565b6000601f19601f8301169050919050565b6000613552826134f8565b61355c8185613232565b935061356c818560208601613503565b61357581613536565b840191505092915050565b6000602082019050818103600083015261359a8184613547565b905092915050565b6135ab81613198565b81146135b657600080fd5b50565b6000813590506135c8816135a2565b92915050565b600080604083850312156135e5576135e46131d4565b5b60006135f3858286016135b9565b9250506020613604858286016134b6565b9150509250929050565b600060208284031215613624576136236131d4565b5b6000613632848285016135b9565b91505092915050565b600060208201905061365060008301846132d5565b92915050565b60008060006060848603121561366f5761366e6131d4565b5b600061367d868287016135b9565b935050602061368e868287016135b9565b925050604061369f868287016134b6565b9150509250925092565b6000819050919050565b6136bc816136a9565b81146136c757600080fd5b50565b6000813590506136d9816136b3565b92915050565b6000602082840312156136f5576136f46131d4565b5b6000613703848285016136ca565b91505092915050565b613715816136a9565b82525050565b6000602082019050613730600083018461370c565b92915050565b6000806040838503121561374d5761374c6131d4565b5b600061375b858286016136ca565b925050602061376c858286016135b9565b9150509250929050565b600060ff82169050919050565b61378c81613776565b82525050565b60006020820190506137a76000830184613783565b92915050565b6000819050919050565b60006137d26137cd6137c884613178565b6137ad565b613178565b9050919050565b60006137e4826137b7565b9050919050565b60006137f6826137d9565b9050919050565b613806816137eb565b82525050565b600060208201905061382160008301846137fd565b92915050565b6000806040838503121561383e5761383d6131d4565b5b600061384c858286016136ca565b925050602061385d858286016134b6565b9150509250929050565b6000806040838503121561387e5761387d6131d4565b5b600061388c858286016135b9565b925050602061389d858286016135b9565b9150509250929050565b7f4d757374206265204f776e657200000000000000000000000000000000000000600082015250565b60006138dd600d83613232565b91506138e8826138a7565b602082019050919050565b6000602082019050818103600083015261390c816138d0565b9050919050565b7f4e487b7100000000000000000000000000000000000000000000000000000000600052603260045260246000fd5b7f46756e6374696f6e206e6f7420617661696c61626c6500000000000000000000600082015250565b6000613978601683613232565b915061398382613942565b602082019050919050565b600060208201905081810360008301526139a78161396b565b9050919050565b7f4e487b7100000000000000000000000000000000000000000000000000000000600052602260045260246000fd5b600060028204905060018216806139f557607f821691505b60208210811415613a0957613a086139ae565b5b50919050565b7f42616c6c6f7420526f6c65207265717569726564000000000000000000000000600082015250565b6000613a45601483613232565b9150613a5082613a0f565b602082019050919050565b60006020820190508181036000830152613a7481613a38565b9050919050565b7f46756e6374696f6e206973206c6f636b65640000000000000000000000000000600082015250565b6000613ab1601283613232565b9150613abc82613a7b565b602082019050919050565b60006020820190508181036000830152613ae081613aa4565b9050919050565b7f45524332303a207472616e7366657220616d6f756e742065786365656473206160008201527f6c6c6f77616e6365000000000000000000000000000000000000000000000000602082015250565b6000613b43602883613232565b9150613b4e82613ae7565b604082019050919050565b60006020820190508181036000830152613b7281613b36565b9050919050565b7f416363657373436f6e74726f6c3a2063616e206f6e6c792072656e6f756e636560008201527f20726f6c657320666f722073656c660000000000000000000000000000000000602082015250565b6000613bd5602f83613232565b9150613be082613b79565b604082019050919050565b60006020820190508181036000830152613c0481613bc8565b9050919050565b6000613c16826130e5565b9150613c21836130e5565b9250827fffffffffffffffffffffffffffffffffffffffffffffffffffffffffffffffff03821115613c5657613c556130ef565b5b828201905092915050565b7f44414f20526f6c65207265717569726564000000000000000000000000000000600082015250565b6000613c97601183613232565b9150613ca282613c61565b602082019050919050565b60006020820190508181036000830152613cc681613c8a565b9050919050565b7f45524332303a206275726e20616d6f756e74206578636565647320616c6c6f7760008201527f616e636500000000000000000000000000000000000000000000000000000000602082015250565b6000613d29602483613232565b9150613d3482613ccd565b604082019050919050565b60006020820190508181036000830152613d5881613d1c565b9050919050565b7f45524332303a2064656372656173656420616c6c6f77616e63652062656c6f7760008201527f207a65726f000000000000000000000000000000000000000000000000000000602082015250565b6000613dbb602583613232565b9150613dc682613d5f565b604082019050919050565b60006020820190508181036000830152613dea81613dae565b9050919050565b7f42616c616e6365206d7573742062652067726561746572207468616e20300000600082015250565b6000613e27601e83613232565b9150613e3282613df1565b602082019050919050565b60006020820190508181036000830152613e5681613e1a565b9050919050565b7f45524332303a20617070726f76652066726f6d20746865207a65726f2061646460008201527f7265737300000000000000000000000000000000000000000000000000000000602082015250565b6000613eb9602483613232565b9150613ec482613e5d565b604082019050919050565b60006020820190508181036000830152613ee881613eac565b9050919050565b7f45524332303a20617070726f766520746f20746865207a65726f20616464726560008201527f7373000000000000000000000000000000000000000000000000000000000000602082015250565b6000613f4b602283613232565b9150613f5682613eef565b604082019050919050565b60006020820190508181036000830152613f7a81613f3e565b9050919050565b7f45524332303a207472616e736665722066726f6d20746865207a65726f20616460008201527f6472657373000000000000000000000000000000000000000000000000000000602082015250565b6000613fdd602583613232565b9150613fe882613f81565b604082019050919050565b6000602082019050818103600083015261400c81613fd0565b9050919050565b7f45524332303a207472616e7366657220746f20746865207a65726f206164647260008201527f6573730000000000000000000000000000000000000000000000000000000000602082015250565b600061406f602383613232565b915061407a82614013565b604082019050919050565b6000602082019050818103600083015261409e81614062565b9050919050565b7f45524332303a207472616e7366657220616d6f756e742065786365656473206260008201527f616c616e63650000000000000000000000000000000000000000000000000000602082015250565b6000614101602683613232565b915061410c826140a5565b604082019050919050565b60006020820190508181036000830152614130816140f4565b9050919050565b600081905092915050565b7f416363657373436f6e74726f6c3a206163636f756e7420000000000000000000600082015250565b6000614178601783614137565b915061418382614142565b601782019050919050565b6000614199826134f8565b6141a38185614137565b93506141b3818560208601613503565b80840191505092915050565b7f206973206d697373696e6720726f6c6520000000000000000000000000000000600082015250565b60006141f5601183614137565b9150614200826141bf565b601182019050919050565b60006142168261416b565b9150614222828561418e565b915061422d826141e8565b9150614239828461418e565b91508190509392505050565b7f45524332303a206d696e7420746f20746865207a65726f206164647265737300600082015250565b600061427b601f83613232565b915061428682614245565b602082019050919050565b600060208201905081810360008301526142aa8161426e565b9050919050565b7f45524332303a206275726e2066726f6d20746865207a65726f2061646472657360008201527f7300000000000000000000000000000000000000000000000000000000000000602082015250565b600061430d602183613232565b9150614318826142b1565b604082019050919050565b6000602082019050818103600083015261433c81614300565b9050919050565b7f45524332303a206275726e20616d6f756e7420657863656564732062616c616e60008201527f6365000000000000000000000000000000000000000000000000000000000000602082015250565b600061439f602283613232565b91506143aa82614343565b604082019050919050565b600060208201905081810360008301526143ce81614392565b9050919050565b60006143e0826130e5565b91506143eb836130e5565b9250828210156143fe576143fd6130ef565b5b828203905092915050565b7f4e487b7100000000000000000000000000000000000000000000000000000000600052604160045260246000fd5b6000614443826130e5565b91506000821415614457576144566130ef565b5b600182039050919050565b7f537472696e67733a20686578206c656e67746820696e73756666696369656e74600082015250565b6000614498602083613232565b91506144a382614462565b602082019050919050565b600060208201905081810360008301526144c78161448b565b9050919050565b7f4e487b7100000000000000000000000000000000000000000000000000000000600052603160045260246000fdfea2646970667358221220f19cbbadc5de2535492f00fa3543511adb5c4e56bc0bfa385c617934e663487d64736f6c63430008090033",
  "immutableReferences": {},
  "source": "// SPDX-License-Identifier: MIT\npragma solidity ^0.8.4;\n\nimport \"@openzeppelin/contracts/token/ERC20/extensions/ERC20Burnable.sol\";\nimport \"@openzeppelin/contracts/access/AccessControlEnumerable.sol\";\n\n\n//------------------------------------------------------------------------------\n// token contract\n//------------------------------------------------------------------------------\n/**\n * @title Recharge\n * @dev terranart.eth\n * @dev ERC20 standard based token with additional features for NFT purchases and matic to token exchange\n *      - mintable: minting tokens\n *      - burnable: burning tokens\n *      - lockable: lockable functions\n *      - purchasable: purchasing tokens with base currency\n *      - transferable: transferring tokens\n *  Todo add an nft purchase interface\n *\n */\ncontract Recharge is AccessControlEnumerable, ERC20Burnable {\n// roles\n    bytes32 public constant DAO_ROLE = keccak256(\"DAO_ROLE\");\n    bytes32 public constant OWNER_ROLE = keccak256(\"OWNER_ROLE\");\n    bytes32 public constant BALLOT_ROLE = keccak256(\"BALLOT_ROLE\");\n    bytes32 public constant NFT_ROLE = keccak256(\"NFT_ROLE\");\n// variables\n    Recharge public self; // this contract\n    uint256 public initialSupply;\n    uint256 private price; // this token price in wei conversion needs to happen on front end\n    uint256 private nftPrice; // this nft price in wei conversion needs to happen on front end\n    bool[2] public locked; // locks for functions\n    uint256 private paypoll; // the amount of wei to pay to the ballot contract\n\n// modifiers   \n\n    modifier unlocked(uint256 _function) {\n        require(locked[_function] == false, \"Function is locked\");\n        _;\n    }\n\n    modifier onlyBallot {\n        require(hasRole(BALLOT_ROLE, _msgSender()), \"Ballot Role required\");\n         _;\n    }\n    \n    modifier onlyOwner {\n        require(hasRole(OWNER_ROLE, _msgSender()), \"Must be Owner\");\n        _;\n    }\n\n    modifier onlyDAO {\n        require(hasRole(DAO_ROLE, _msgSender()), \"DAO Role required\");\n        _;\n    }\n\n// events\n    event RoleGranted(bytes32 indexed role, address indexed account); // role granted\n    event RoleRevoked(bytes32 indexed role, address indexed account); // role revoked\n    event Minted(address indexed to, uint256 value); // new tokens minted\n    event Burned(address indexed from, uint256 value); // tokens burned\n    event LockStateChanged(uint256 indexed func, bool isLocked); // lock state changed\n    event PriceChanged(uint256 newPrice); // price of token in base coin changed\n    event BuyTokens(address indexed buyer, uint256 value, uint256 quantity); // tokens purchased with base coin\n    event PollPaid(address indexed voter, uint256 value); // voter paid for participation in poll\n    event PolltobePaid(uint256 value); // amount of wei to be paid for participation in poll\n    event NftPurchased(address indexed buyer, uint256 value); // nft purchased with token\n    event NftSet(address indexed nftAddress, uint256 tokenId); // nft address set of purchasaable nft\n    event Withdrawn(address indexed from, uint256 value); // amount of wei withdrawn from contract\n\n// constructor\n    /**\n     * @dev Grants Default roles to creator.\n     * mints total supply to contract\n     *\n     * See {ERC20-constructor}.\n     */\n    constructor(string memory name, string memory symbol) ERC20(name, symbol) {\n        _setupRole(DEFAULT_ADMIN_ROLE, _msgSender());\n        _setupRole(OWNER_ROLE, _msgSender());\n        _setupRole(DAO_ROLE, _msgSender()); // after dao is running we should remove ourself from the dao\n        // default price is matched to base coin\n        price = 1;\n        // setup self\n        self = Recharge(this);\n        // launch origin mint\n        initialSupply = (10000000000000000000000000000); // 10 Billion Tokens in wei\n        mint(address(self), initialSupply); //minting 10 Billion to the contract\n    }\n// receive\n    receive () external payable {\n    // if someone sends matic they get recharge automatically\n    // this is wei to wei conversion needs to happen on front end, see setTokenPrice\n        uint256 quantity = msg.value * price;\n\n        // check if the Vendor Contract has enough amount of tokens for the transaction\n        uint256 contractBalance = self.balanceOf(address(this));\n        require(contractBalance >= quantity, \"token contract has not enough tokens in its balance\");\n\n        // Transfer token to the msg.sender\n        (bool sent) = self.transfer(msg.sender, quantity);\n        require(sent, \"Failed to transfer token to user\");\n\n        // emit the event\n        emit BuyTokens(msg.sender, msg.value, quantity);\n  }\n\n// functions\n    /**\n     * @dev Creates `amount` new tokens for `to`.\n     *\n     * See {ERC20-_mint}.\n     *\n     * Requirements:\n     * - the caller must have the `MINTER_ROLE` - for treasury purposes\n     * @param to The address of the recipient, and the amount of token wei to mint.\n     */\n    function mint(address to, uint256 amount) public virtual onlyDAO unlocked(0) {\n        _mint(to, amount);\n        emit Minted(to, amount);\n    }\n\n    \n    /**\n     * @dev set the price of the token to be purchased with base coin\n     * @param _price wei price for the token\n     * \n     **/\n    \n    function setTokenPrice(uint256 _price) external onlyDAO {\n        price = _price;\n        emit PriceChanged(price);\n    }\n    \n    /**\n     * @dev set the amount of wei to pay to the ballot contract\n     * @param _payout wei amount to pay to the ballot contract\n     * \n     **/\n    \n    function setPollPayout(uint256 _payout) external onlyDAO {\n        paypoll = _payout; // handle conversion to wei in front end\n        emit PolltobePaid(paypoll);\n    }\n\n    /**\n     * @dev function for paying voter participants\n     * @param _voter address of the voter\n     */\n    function payPoll(address _voter) public onlyBallot unlocked(1) returns(bool success) {\n        if (self.transfer(_voter, paypoll)){\n            emit PollPaid(_voter, paypoll);\n            return true;\n        }\n        else{\n            return false;\n        }\n    }\n    /**\n     * @dev function for setting the current ballot\n     *\n     * @param _ballot address of the ballot contract\n     */\n    function setBallot(address _ballot) external onlyDAO{\n        _setupRole(BALLOT_ROLE, _ballot);\n        emit RoleGranted(BALLOT_ROLE, _ballot);\n    }\n\n     /** \n     * @dev Function to lock a function call.\n     * @param _function name of the function to be locked\n     */\n\n     function setLock(uint256 _function) external onlyDAO{\n        bool error = true;\n        // 1 = mint\n        if (_function == 1){\n            locked[0] = true;\n            error = false;\n            emit LockStateChanged(1, locked[0]);\n        }\n        // 3 = paypoll\n        else if (_function == 2){\n            locked[1] = true;\n            error = false;\n            emit LockStateChanged(3, locked[1]);\n        }\n\n        else{\n        //error message only 2 function locks available\n        require(error, \"Function not available\");\n        }\n     }\n\n     /** \n     * @dev Function to unlock a function call.\n     * @param _function name of the function to be unlocked\n     */\n\n     function unLock(uint256 _function) external onlyOwner{\n        bool error = true;\n        // 1 = mint\n        if (_function == 1){\n            locked[0] = false;\n            error = false;\n            emit LockStateChanged(1, locked[0]);\n        }\n        // 2 = paypoll\n        else if (_function == 2){\n            locked[1] = false;\n            error = false;\n            emit LockStateChanged(2, locked[1]);\n        }\n        else{\n        //error message only 2 function locks available\n        require(error, \"Function not available\");\n        }\n     }\n\n    /**\n     * @dev withdraws the balance of the contract\n     * @param _to address of the recipient\n     */\n    function withdrawMatic(address _to) external onlyOwner{\n        require(self.balanceOf(address(this)) > 0, \"Balance must be greater than 0\");\n        require(transfer(_to, self.balanceOf(address(this))));\n        emit Withdrawn(_to, self.balanceOf(address(this)));\n    }\n\n} // end of coin contract",
  "sourcePath": "/home/phoenix/Works/tacvue-nft/contracts/rxgToken.sol",
  "compiler": {
    "name": "solc",
    "version": "0.8.9+commit.e5eed63a.Emscripten.clang"
  },
  "schemaVersion": "3.4.3",
  "updatedAt": "2021-12-06T15:55:47.635Z",
  "devdoc": {
    "details": "terranart.ethERC20 standard based token with additional features for NFT purchases and matic to token exchange      - mintable: minting tokens      - burnable: burning tokens      - lockable: lockable functions      - purchasable: purchasing tokens with base currency      - transferable: transferring tokens  Todo add an nft purchase interface",
    "kind": "dev",
    "methods": {
      "allowance(address,address)": {
        "details": "See {IERC20-allowance}."
      },
      "approve(address,uint256)": {
        "details": "See {IERC20-approve}. Requirements: - `spender` cannot be the zero address."
      },
      "balanceOf(address)": {
        "details": "See {IERC20-balanceOf}."
      },
      "burn(uint256)": {
        "details": "Destroys `amount` tokens from the caller. See {ERC20-_burn}."
      },
      "burnFrom(address,uint256)": {
        "details": "Destroys `amount` tokens from `account`, deducting from the caller's allowance. See {ERC20-_burn} and {ERC20-allowance}. Requirements: - the caller must have allowance for ``accounts``'s tokens of at least `amount`."
      },
      "constructor": {
        "details": "Grants Default roles to creator. mints total supply to contract See {ERC20-constructor}."
      },
      "decimals()": {
        "details": "Returns the number of decimals used to get its user representation. For example, if `decimals` equals `2`, a balance of `505` tokens should be displayed to a user as `5.05` (`505 / 10 ** 2`). Tokens usually opt for a value of 18, imitating the relationship between Ether and Wei. This is the value {ERC20} uses, unless this function is overridden; NOTE: This information is only used for _display_ purposes: it in no way affects any of the arithmetic of the contract, including {IERC20-balanceOf} and {IERC20-transfer}."
      },
      "decreaseAllowance(address,uint256)": {
        "details": "Atomically decreases the allowance granted to `spender` by the caller. This is an alternative to {approve} that can be used as a mitigation for problems described in {IERC20-approve}. Emits an {Approval} event indicating the updated allowance. Requirements: - `spender` cannot be the zero address. - `spender` must have allowance for the caller of at least `subtractedValue`."
      },
      "getRoleAdmin(bytes32)": {
        "details": "Returns the admin role that controls `role`. See {grantRole} and {revokeRole}. To change a role's admin, use {_setRoleAdmin}."
      },
      "getRoleMember(bytes32,uint256)": {
        "details": "Returns one of the accounts that have `role`. `index` must be a value between 0 and {getRoleMemberCount}, non-inclusive. Role bearers are not sorted in any particular way, and their ordering may change at any point. WARNING: When using {getRoleMember} and {getRoleMemberCount}, make sure you perform all queries on the same block. See the following https://forum.openzeppelin.com/t/iterating-over-elements-on-enumerableset-in-openzeppelin-contracts/2296[forum post] for more information."
      },
      "getRoleMemberCount(bytes32)": {
        "details": "Returns the number of accounts that have `role`. Can be used together with {getRoleMember} to enumerate all bearers of a role."
      },
      "grantRole(bytes32,address)": {
        "details": "Grants `role` to `account`. If `account` had not been already granted `role`, emits a {RoleGranted} event. Requirements: - the caller must have ``role``'s admin role."
      },
      "hasRole(bytes32,address)": {
        "details": "Returns `true` if `account` has been granted `role`."
      },
      "increaseAllowance(address,uint256)": {
        "details": "Atomically increases the allowance granted to `spender` by the caller. This is an alternative to {approve} that can be used as a mitigation for problems described in {IERC20-approve}. Emits an {Approval} event indicating the updated allowance. Requirements: - `spender` cannot be the zero address."
      },
      "mint(address,uint256)": {
        "details": "Creates `amount` new tokens for `to`. See {ERC20-_mint}. Requirements: - the caller must have the `MINTER_ROLE` - for treasury purposes",
        "params": {
          "to": "The address of the recipient, and the amount of token wei to mint."
        }
      },
      "name()": {
        "details": "Returns the name of the token."
      },
      "payPoll(address)": {
        "details": "function for paying voter participants",
        "params": {
          "_voter": "address of the voter"
        }
      },
      "renounceRole(bytes32,address)": {
        "details": "Revokes `role` from the calling account. Roles are often managed via {grantRole} and {revokeRole}: this function's purpose is to provide a mechanism for accounts to lose their privileges if they are compromised (such as when a trusted device is misplaced). If the calling account had been revoked `role`, emits a {RoleRevoked} event. Requirements: - the caller must be `account`."
      },
      "revokeRole(bytes32,address)": {
        "details": "Revokes `role` from `account`. If `account` had been granted `role`, emits a {RoleRevoked} event. Requirements: - the caller must have ``role``'s admin role."
      },
      "setBallot(address)": {
        "details": "function for setting the current ballot",
        "params": {
          "_ballot": "address of the ballot contract"
        }
      },
      "setLock(uint256)": {
        "details": "Function to lock a function call.",
        "params": {
          "_function": "name of the function to be locked"
        }
      },
      "setPollPayout(uint256)": {
        "details": "set the amount of wei to pay to the ballot contract",
        "params": {
          "_payout": "wei amount to pay to the ballot contract *"
        }
      },
      "setTokenPrice(uint256)": {
        "details": "set the price of the token to be purchased with base coin",
        "params": {
          "_price": "wei price for the token *"
        }
      },
      "supportsInterface(bytes4)": {
        "details": "See {IERC165-supportsInterface}."
      },
      "symbol()": {
        "details": "Returns the symbol of the token, usually a shorter version of the name."
      },
      "totalSupply()": {
        "details": "See {IERC20-totalSupply}."
      },
      "transfer(address,uint256)": {
        "details": "See {IERC20-transfer}. Requirements: - `recipient` cannot be the zero address. - the caller must have a balance of at least `amount`."
      },
      "transferFrom(address,address,uint256)": {
        "details": "See {IERC20-transferFrom}. Emits an {Approval} event indicating the updated allowance. This is not required by the EIP. See the note at the beginning of {ERC20}. Requirements: - `sender` and `recipient` cannot be the zero address. - `sender` must have a balance of at least `amount`. - the caller must have allowance for ``sender``'s tokens of at least `amount`."
      },
      "unLock(uint256)": {
        "details": "Function to unlock a function call.",
        "params": {
          "_function": "name of the function to be unlocked"
        }
      },
      "withdrawMatic(address)": {
        "details": "withdraws the balance of the contract",
        "params": {
          "_to": "address of the recipient"
        }
      }
    },
    "title": "Recharge",
    "version": 1
  },
  "userdoc": {
    "kind": "user",
    "methods": {},
    "version": 1
  }
}