{
  "contractName": "Terran721",
  "abi": [
    {
      "inputs": [
        {
          "internalType": "string",
          "name": "name",
          "type": "string"
        },
        {
          "internalType": "string",
          "name": "symbol",
          "type": "string"
        }
      ],
      "stateMutability": "nonpayable",
      "type": "constructor"
    },
    {
      "anonymous": false,
      "inputs": [
        {
          "indexed": true,
          "internalType": "address",
          "name": "owner",
          "type": "address"
        },
        {
          "indexed": true,
          "internalType": "address",
          "name": "approved",
          "type": "address"
        },
        {
          "indexed": true,
          "internalType": "uint256",
          "name": "tokenId",
          "type": "uint256"
        }
      ],
      "name": "Approval",
      "type": "event"
    },
    {
      "anonymous": false,
      "inputs": [
        {
          "indexed": true,
          "internalType": "address",
          "name": "owner",
          "type": "address"
        },
        {
          "indexed": true,
          "internalType": "address",
          "name": "operator",
          "type": "address"
        },
        {
          "indexed": false,
          "internalType": "bool",
          "name": "approved",
          "type": "bool"
        }
      ],
      "name": "ApprovalForAll",
      "type": "event"
    },
    {
      "anonymous": false,
      "inputs": [
        {
          "indexed": false,
          "internalType": "address",
          "name": "account",
          "type": "address"
        }
      ],
      "name": "Paused",
      "type": "event"
    },
    {
      "anonymous": false,
      "inputs": [
        {
          "indexed": true,
          "internalType": "bytes32",
          "name": "role",
          "type": "bytes32"
        },
        {
          "indexed": true,
          "internalType": "bytes32",
          "name": "previousAdminRole",
          "type": "bytes32"
        },
        {
          "indexed": true,
          "internalType": "bytes32",
          "name": "newAdminRole",
          "type": "bytes32"
        }
      ],
      "name": "RoleAdminChanged",
      "type": "event"
    },
    {
      "anonymous": false,
      "inputs": [
        {
          "indexed": true,
          "internalType": "bytes32",
          "name": "role",
          "type": "bytes32"
        },
        {
          "indexed": true,
          "internalType": "address",
          "name": "account",
          "type": "address"
        },
        {
          "indexed": true,
          "internalType": "address",
          "name": "sender",
          "type": "address"
        }
      ],
      "name": "RoleGranted",
      "type": "event"
    },
    {
      "anonymous": false,
      "inputs": [
        {
          "indexed": true,
          "internalType": "bytes32",
          "name": "role",
          "type": "bytes32"
        },
        {
          "indexed": true,
          "internalType": "address",
          "name": "account",
          "type": "address"
        },
        {
          "indexed": true,
          "internalType": "address",
          "name": "sender",
          "type": "address"
        }
      ],
      "name": "RoleRevoked",
      "type": "event"
    },
    {
      "anonymous": false,
      "inputs": [
        {
          "indexed": true,
          "internalType": "address",
          "name": "from",
          "type": "address"
        },
        {
          "indexed": true,
          "internalType": "address",
          "name": "to",
          "type": "address"
        },
        {
          "indexed": true,
          "internalType": "uint256",
          "name": "tokenId",
          "type": "uint256"
        }
      ],
      "name": "Transfer",
      "type": "event"
    },
    {
      "anonymous": false,
      "inputs": [
        {
          "indexed": false,
          "internalType": "address",
          "name": "account",
          "type": "address"
        }
      ],
      "name": "Unpaused",
      "type": "event"
    },
    {
      "inputs": [],
      "name": "DEFAULT_ADMIN_ROLE",
      "outputs": [
        {
          "internalType": "bytes32",
          "name": "",
          "type": "bytes32"
        }
      ],
      "stateMutability": "view",
      "type": "function"
    },
    {
      "inputs": [],
      "name": "MINTER_ROLE",
      "outputs": [
        {
          "internalType": "bytes32",
          "name": "",
          "type": "bytes32"
        }
      ],
      "stateMutability": "view",
      "type": "function"
    },
    {
      "inputs": [],
      "name": "OWNER_ROLE",
      "outputs": [
        {
          "internalType": "bytes32",
          "name": "",
          "type": "bytes32"
        }
      ],
      "stateMutability": "view",
      "type": "function"
    },
    {
      "inputs": [],
      "name": "PAUSER_ROLE",
      "outputs": [
        {
          "internalType": "bytes32",
          "name": "",
          "type": "bytes32"
        }
      ],
      "stateMutability": "view",
      "type": "function"
    },
    {
      "inputs": [
        {
          "internalType": "address",
          "name": "",
          "type": "address"
        },
        {
          "internalType": "uint256",
          "name": "",
          "type": "uint256"
        }
      ],
      "name": "_createdNFTs",
      "outputs": [
        {
          "internalType": "uint256",
          "name": "",
          "type": "uint256"
        }
      ],
      "stateMutability": "view",
      "type": "function"
    },
    {
      "inputs": [
        {
          "internalType": "address",
          "name": "to",
          "type": "address"
        },
        {
          "internalType": "uint256",
          "name": "tokenId",
          "type": "uint256"
        }
      ],
      "name": "approve",
      "outputs": [],
      "stateMutability": "nonpayable",
      "type": "function"
    },
    {
      "inputs": [
        {
          "internalType": "address",
          "name": "owner",
          "type": "address"
        }
      ],
      "name": "balanceOf",
      "outputs": [
        {
          "internalType": "uint256",
          "name": "",
          "type": "uint256"
        }
      ],
      "stateMutability": "view",
      "type": "function"
    },
    {
      "inputs": [],
      "name": "baseURI",
      "outputs": [
        {
          "internalType": "string",
          "name": "",
          "type": "string"
        }
      ],
      "stateMutability": "view",
      "type": "function"
    },
    {
      "inputs": [
        {
          "internalType": "uint256",
          "name": "tokenId",
          "type": "uint256"
        }
      ],
      "name": "burn",
      "outputs": [],
      "stateMutability": "nonpayable",
      "type": "function"
    },
    {
      "inputs": [
        {
          "internalType": "uint256",
          "name": "tokenId",
          "type": "uint256"
        }
      ],
      "name": "getApproved",
      "outputs": [
        {
          "internalType": "address",
          "name": "",
          "type": "address"
        }
      ],
      "stateMutability": "view",
      "type": "function"
    },
    {
      "inputs": [
        {
          "internalType": "bytes32",
          "name": "role",
          "type": "bytes32"
        }
      ],
      "name": "getRoleAdmin",
      "outputs": [
        {
          "internalType": "bytes32",
          "name": "",
          "type": "bytes32"
        }
      ],
      "stateMutability": "view",
      "type": "function"
    },
    {
      "inputs": [
        {
          "internalType": "bytes32",
          "name": "role",
          "type": "bytes32"
        },
        {
          "internalType": "uint256",
          "name": "index",
          "type": "uint256"
        }
      ],
      "name": "getRoleMember",
      "outputs": [
        {
          "internalType": "address",
          "name": "",
          "type": "address"
        }
      ],
      "stateMutability": "view",
      "type": "function"
    },
    {
      "inputs": [
        {
          "internalType": "bytes32",
          "name": "role",
          "type": "bytes32"
        }
      ],
      "name": "getRoleMemberCount",
      "outputs": [
        {
          "internalType": "uint256",
          "name": "",
          "type": "uint256"
        }
      ],
      "stateMutability": "view",
      "type": "function"
    },
    {
      "inputs": [
        {
          "internalType": "bytes32",
          "name": "role",
          "type": "bytes32"
        },
        {
          "internalType": "address",
          "name": "account",
          "type": "address"
        }
      ],
      "name": "grantRole",
      "outputs": [],
      "stateMutability": "nonpayable",
      "type": "function"
    },
    {
      "inputs": [
        {
          "internalType": "bytes32",
          "name": "role",
          "type": "bytes32"
        },
        {
          "internalType": "address",
          "name": "account",
          "type": "address"
        }
      ],
      "name": "hasRole",
      "outputs": [
        {
          "internalType": "bool",
          "name": "",
          "type": "bool"
        }
      ],
      "stateMutability": "view",
      "type": "function"
    },
    {
      "inputs": [
        {
          "internalType": "address",
          "name": "owner",
          "type": "address"
        },
        {
          "internalType": "address",
          "name": "operator",
          "type": "address"
        }
      ],
      "name": "isApprovedForAll",
      "outputs": [
        {
          "internalType": "bool",
          "name": "",
          "type": "bool"
        }
      ],
      "stateMutability": "view",
      "type": "function"
    },
    {
      "inputs": [
        {
          "internalType": "string",
          "name": "_URI",
          "type": "string"
        }
      ],
      "name": "mint",
      "outputs": [],
      "stateMutability": "nonpayable",
      "type": "function"
    },
    {
      "inputs": [],
      "name": "name",
      "outputs": [
        {
          "internalType": "string",
          "name": "",
          "type": "string"
        }
      ],
      "stateMutability": "view",
      "type": "function"
    },
    {
      "inputs": [
        {
          "internalType": "address",
          "name": "_owner",
          "type": "address"
        }
      ],
      "name": "nftCreatedByUser",
      "outputs": [
        {
          "internalType": "uint256[]",
          "name": "",
          "type": "uint256[]"
        }
      ],
      "stateMutability": "view",
      "type": "function"
    },
    {
      "inputs": [
        {
          "internalType": "uint256",
          "name": "tokenId",
          "type": "uint256"
        }
      ],
      "name": "ownerOf",
      "outputs": [
        {
          "internalType": "address",
          "name": "",
          "type": "address"
        }
      ],
      "stateMutability": "view",
      "type": "function"
    },
    {
      "inputs": [],
      "name": "pause",
      "outputs": [],
      "stateMutability": "nonpayable",
      "type": "function"
    },
    {
      "inputs": [],
      "name": "paused",
      "outputs": [
        {
          "internalType": "bool",
          "name": "",
          "type": "bool"
        }
      ],
      "stateMutability": "view",
      "type": "function"
    },
    {
      "inputs": [
        {
          "internalType": "bytes32",
          "name": "role",
          "type": "bytes32"
        },
        {
          "internalType": "address",
          "name": "account",
          "type": "address"
        }
      ],
      "name": "renounceRole",
      "outputs": [],
      "stateMutability": "nonpayable",
      "type": "function"
    },
    {
      "inputs": [
        {
          "internalType": "bytes32",
          "name": "role",
          "type": "bytes32"
        },
        {
          "internalType": "address",
          "name": "account",
          "type": "address"
        }
      ],
      "name": "revokeRole",
      "outputs": [],
      "stateMutability": "nonpayable",
      "type": "function"
    },
    {
      "inputs": [
        {
          "internalType": "address",
          "name": "from",
          "type": "address"
        },
        {
          "internalType": "address",
          "name": "to",
          "type": "address"
        },
        {
          "internalType": "uint256",
          "name": "tokenId",
          "type": "uint256"
        }
      ],
      "name": "safeTransferFrom",
      "outputs": [],
      "stateMutability": "nonpayable",
      "type": "function"
    },
    {
      "inputs": [
        {
          "internalType": "address",
          "name": "from",
          "type": "address"
        },
        {
          "internalType": "address",
          "name": "to",
          "type": "address"
        },
        {
          "internalType": "uint256",
          "name": "tokenId",
          "type": "uint256"
        },
        {
          "internalType": "bytes",
          "name": "_data",
          "type": "bytes"
        }
      ],
      "name": "safeTransferFrom",
      "outputs": [],
      "stateMutability": "nonpayable",
      "type": "function"
    },
    {
      "inputs": [
        {
          "internalType": "address",
          "name": "operator",
          "type": "address"
        },
        {
          "internalType": "bool",
          "name": "approved",
          "type": "bool"
        }
      ],
      "name": "setApprovalForAll",
      "outputs": [],
      "stateMutability": "nonpayable",
      "type": "function"
    },
    {
      "inputs": [
        {
          "internalType": "address",
          "name": "_dao",
          "type": "address"
        }
      ],
      "name": "setPausePermission",
      "outputs": [],
      "stateMutability": "nonpayable",
      "type": "function"
    },
    {
      "inputs": [
        {
          "internalType": "bytes4",
          "name": "interfaceId",
          "type": "bytes4"
        }
      ],
      "name": "supportsInterface",
      "outputs": [
        {
          "internalType": "bool",
          "name": "",
          "type": "bool"
        }
      ],
      "stateMutability": "view",
      "type": "function"
    },
    {
      "inputs": [],
      "name": "symbol",
      "outputs": [
        {
          "internalType": "string",
          "name": "",
          "type": "string"
        }
      ],
      "stateMutability": "view",
      "type": "function"
    },
    {
      "inputs": [
        {
          "internalType": "uint256",
          "name": "index",
          "type": "uint256"
        }
      ],
      "name": "tokenByIndex",
      "outputs": [
        {
          "internalType": "uint256",
          "name": "",
          "type": "uint256"
        }
      ],
      "stateMutability": "view",
      "type": "function"
    },
    {
      "inputs": [
        {
          "internalType": "address",
          "name": "owner",
          "type": "address"
        },
        {
          "internalType": "uint256",
          "name": "index",
          "type": "uint256"
        }
      ],
      "name": "tokenOfOwnerByIndex",
      "outputs": [
        {
          "internalType": "uint256",
          "name": "",
          "type": "uint256"
        }
      ],
      "stateMutability": "view",
      "type": "function"
    },
    {
      "inputs": [
        {
          "internalType": "uint256",
          "name": "tokenId",
          "type": "uint256"
        }
      ],
      "name": "tokenURI",
      "outputs": [
        {
          "internalType": "string",
          "name": "",
          "type": "string"
        }
      ],
      "stateMutability": "view",
      "type": "function"
    },
    {
      "inputs": [],
      "name": "totalSupply",
      "outputs": [
        {
          "internalType": "uint256",
          "name": "",
          "type": "uint256"
        }
      ],
      "stateMutability": "view",
      "type": "function"
    },
    {
      "inputs": [
        {
          "internalType": "address",
          "name": "from",
          "type": "address"
        },
        {
          "internalType": "address",
          "name": "to",
          "type": "address"
        },
        {
          "internalType": "uint256",
          "name": "tokenId",
          "type": "uint256"
        }
      ],
      "name": "transferFrom",
      "outputs": [],
      "stateMutability": "nonpayable",
      "type": "function"
    },
    {
      "inputs": [],
      "name": "unpause",
      "outputs": [],
      "stateMutability": "nonpayable",
      "type": "function"
    }
  ],
  "bytecode": "0x60806040523480156200001157600080fd5b5060405162004f5238038062004f5283398181016040528101906200003791906200065a565b81818160029080519060200190620000519291906200040d565b5080600390805190602001906200006a9291906200040d565b5050506000600c60006101000a81548160ff021916908315150217905550620000ac6000801b620000a06200017760201b60201c565b6200017f60201b60201c565b620000ed7fb19546dff01e856fb3f010c267a7b1c60363cf8a4664e21cc89c26224620214e620000e16200017760201b60201c565b6200017f60201b60201c565b6200012e7f9f2df0fed2c77648de5860a4cc508cd0818c85b8b8a1ab4ceeef8d981c8956a6620001226200017760201b60201c565b6200017f60201b60201c565b6200016f7f65d7a28e3265b37a6474929f336521b332c1681b933f6cb9f3376673440d862a620001636200017760201b60201c565b6200017f60201b60201c565b505062000744565b600033905090565b6200019182826200019560201b60201c565b5050565b620001ac8282620001dd60201b620013bd1760201c565b620001d88160016000858152602001908152602001600020620002ce60201b6200149d1790919060201c565b505050565b620001ef82826200030660201b60201c565b620002ca57600160008084815260200190815260200160002060000160008373ffffffffffffffffffffffffffffffffffffffff1673ffffffffffffffffffffffffffffffffffffffff16815260200190815260200160002060006101000a81548160ff0219169083151502179055506200026f6200017760201b60201c565b73ffffffffffffffffffffffffffffffffffffffff168173ffffffffffffffffffffffffffffffffffffffff16837f2f8788117e7eff1d82e926ec794901d17c78024a50270940304540a733656f0d60405160405180910390a45b5050565b6000620002fe836000018373ffffffffffffffffffffffffffffffffffffffff1660001b6200037060201b60201c565b905092915050565b600080600084815260200190815260200160002060000160008373ffffffffffffffffffffffffffffffffffffffff1673ffffffffffffffffffffffffffffffffffffffff16815260200190815260200160002060009054906101000a900460ff16905092915050565b6000620003848383620003ea60201b60201c565b620003df578260000182908060018154018082558091505060019003906000526020600020016000909190919091505582600001805490508360010160008481526020019081526020016000208190555060019050620003e4565b600090505b92915050565b600080836001016000848152602001908152602001600020541415905092915050565b8280546200041b906200070e565b90600052602060002090601f0160209004810192826200043f57600085556200048b565b82601f106200045a57805160ff19168380011785556200048b565b828001600101855582156200048b579182015b828111156200048a5782518255916020019190600101906200046d565b5b5090506200049a91906200049e565b5090565b5b80821115620004b95760008160009055506001016200049f565b5090565b6000604051905090565b600080fd5b600080fd5b600080fd5b600080fd5b6000601f19601f8301169050919050565b7f4e487b7100000000000000000000000000000000000000000000000000000000600052604160045260246000fd5b6200052682620004db565b810181811067ffffffffffffffff82111715620005485762000547620004ec565b5b80604052505050565b60006200055d620004bd565b90506200056b82826200051b565b919050565b600067ffffffffffffffff8211156200058e576200058d620004ec565b5b6200059982620004db565b9050602081019050919050565b60005b83811015620005c6578082015181840152602081019050620005a9565b83811115620005d6576000848401525b50505050565b6000620005f3620005ed8462000570565b62000551565b905082815260208101848484011115620006125762000611620004d6565b5b6200061f848285620005a6565b509392505050565b600082601f8301126200063f576200063e620004d1565b5b815162000651848260208601620005dc565b91505092915050565b60008060408385031215620006745762000673620004c7565b5b600083015167ffffffffffffffff811115620006955762000694620004cc565b5b620006a38582860162000627565b925050602083015167ffffffffffffffff811115620006c757620006c6620004cc565b5b620006d58582860162000627565b9150509250929050565b7f4e487b7100000000000000000000000000000000000000000000000000000000600052602260045260246000fd5b600060028204905060018216806200072757607f821691505b602082108114156200073e576200073d620006df565b5b50919050565b6147fe80620007546000396000f3fe608060405234801561001057600080fd5b50600436106102115760003560e01c80636c0360eb11610125578063c87b56dd116100ad578063d85d3d271161007c578063d85d3d2714610624578063e58378bb14610640578063e63ab1e91461065e578063e985e9c51461067c578063f66a7637146106ac57610211565b8063c87b56dd1461058a578063ca15c873146105ba578063d5391393146105ea578063d547741f1461060857610211565b806391d14854116100f457806391d14854146104e657806395d89b4114610516578063a217fddf14610534578063a22cb46514610552578063b88d4fde1461056e57610211565b80636c0360eb1461045e57806370a082311461047c5780638456cb59146104ac5780639010d07c146104b657610211565b80632f2ff15d116101a857806342842e0e1161017757806342842e0e146103a857806342966c68146103c45780634f6ccce7146103e05780635c975abb146104105780636352211e1461042e57610211565b80632f2ff15d146103365780632f745c591461035257806336568abe146103825780633f4ba83a1461039e57610211565b8063162094c4116101e4578063162094c4146102b057806318160ddd146102cc57806323b872dd146102ea578063248a9ca31461030657610211565b806301ffc9a71461021657806306fdde0314610246578063081812fc14610264578063095ea7b314610294575b600080fd5b610230600480360381019061022b9190612fb1565b6106c8565b60405161023d9190612ff9565b60405180910390f35b61024e6106da565b60405161025b91906130ad565b60405180910390f35b61027e60048036038101906102799190613105565b61076c565b60405161028b9190613173565b60405180910390f35b6102ae60048036038101906102a991906131ba565b6107f1565b005b6102ca60048036038101906102c5919061332f565b610909565b005b6102d4610935565b6040516102e1919061339a565b60405180910390f35b61030460048036038101906102ff91906133b5565b610942565b005b610320600480360381019061031b919061343e565b6109a2565b60405161032d919061347a565b60405180910390f35b610350600480360381019061034b9190613495565b6109c1565b005b61036c600480360381019061036791906131ba565b6109ea565b604051610379919061339a565b60405180910390f35b61039c60048036038101906103979190613495565b610a8f565b005b6103a6610b12565b005b6103c260048036038101906103bd91906133b5565b610b8c565b005b6103de60048036038101906103d99190613105565b610bac565b005b6103fa60048036038101906103f59190613105565b610c08565b604051610407919061339a565b60405180910390f35b610418610c79565b6040516104259190612ff9565b60405180910390f35b61044860048036038101906104439190613105565b610c90565b6040516104559190613173565b60405180910390f35b610466610d42565b60405161047391906130ad565b60405180910390f35b610496600480360381019061049191906134d5565b610dd0565b6040516104a3919061339a565b60405180910390f35b6104b4610e88565b005b6104d060048036038101906104cb9190613502565b610f02565b6040516104dd9190613173565b60405180910390f35b61050060048036038101906104fb9190613495565b610f31565b60405161050d9190612ff9565b60405180910390f35b61051e610f9b565b60405161052b91906130ad565b60405180910390f35b61053c61102d565b604051610549919061347a565b60405180910390f35b61056c6004803603810190610567919061356e565b611034565b005b6105886004803603810190610583919061364f565b61104a565b005b6105a4600480360381019061059f9190613105565b6110ac565b6040516105b191906130ad565b60405180910390f35b6105d460048036038101906105cf919061343e565b611199565b6040516105e1919061339a565b60405180910390f35b6105f26111bd565b6040516105ff919061347a565b60405180910390f35b610622600480360381019061061d9190613495565b6111e1565b005b61063e600480360381019061063991906136d2565b61120a565b005b610648611244565b604051610655919061347a565b60405180910390f35b610666611268565b604051610673919061347a565b60405180910390f35b6106966004803603810190610691919061371b565b61128c565b6040516106a39190612ff9565b60405180910390f35b6106c660048036038101906106c191906134d5565b611320565b005b60006106d3826114cd565b9050919050565b6060600280546106e99061378a565b80601f01602080910402602001604051908101604052809291908181526020018280546107159061378a565b80156107625780601f1061073757610100808354040283529160200191610762565b820191906000526020600020905b81548152906001019060200180831161074557829003601f168201915b5050505050905090565b600061077782611547565b6107b6576040517f08c379a00000000000000000000000000000000000000000000000000000000081526004016107ad9061382e565b60405180910390fd5b6006600083815260200190815260200160002060009054906101000a900473ffffffffffffffffffffffffffffffffffffffff169050919050565b60006107fc82610c90565b90508073ffffffffffffffffffffffffffffffffffffffff168373ffffffffffffffffffffffffffffffffffffffff16141561086d576040517f08c379a0000000000000000000000000000000000000000000000000000000008152600401610864906138c0565b60405180910390fd5b8073ffffffffffffffffffffffffffffffffffffffff1661088c6115b3565b73ffffffffffffffffffffffffffffffffffffffff1614806108bb57506108ba816108b56115b3565b61128c565b5b6108fa576040517f08c379a00000000000000000000000000000000000000000000000000000000081526004016108f190613952565b60405180910390fd5b61090483836115bb565b505050565b80600f60008481526020019081526020016000209080519060200190610930929190612ea2565b505050565b6000600a80549050905090565b61095361094d6115b3565b82611674565b610992576040517f08c379a0000000000000000000000000000000000000000000000000000000008152600401610989906139e4565b60405180910390fd5b61099d838383611752565b505050565b6000806000838152602001908152602001600020600101549050919050565b6109ca826109a2565b6109db816109d66115b3565b6119ae565b6109e58383611a4b565b505050565b60006109f583610dd0565b8210610a36576040517f08c379a0000000000000000000000000000000000000000000000000000000008152600401610a2d90613a76565b60405180910390fd5b600860008473ffffffffffffffffffffffffffffffffffffffff1673ffffffffffffffffffffffffffffffffffffffff168152602001908152602001600020600083815260200190815260200160002054905092915050565b610a976115b3565b73ffffffffffffffffffffffffffffffffffffffff168173ffffffffffffffffffffffffffffffffffffffff1614610b04576040517f08c379a0000000000000000000000000000000000000000000000000000000008152600401610afb90613b08565b60405180910390fd5b610b0e8282611a7f565b5050565b610b437f65d7a28e3265b37a6474929f336521b332c1681b933f6cb9f3376673440d862a610b3e6115b3565b610f31565b610b82576040517f08c379a0000000000000000000000000000000000000000000000000000000008152600401610b7990613b74565b60405180910390fd5b610b8a611ab3565b565b610ba78383836040518060200160405280600081525061104a565b505050565b610bbd610bb76115b3565b82611674565b610bfc576040517f08c379a0000000000000000000000000000000000000000000000000000000008152600401610bf390613c06565b60405180910390fd5b610c0581611b55565b50565b6000610c12610935565b8210610c53576040517f08c379a0000000000000000000000000000000000000000000000000000000008152600401610c4a90613c98565b60405180910390fd5b600a8281548110610c6757610c66613cb8565b5b90600052602060002001549050919050565b6000600c60009054906101000a900460ff16905090565b6000806004600084815260200190815260200160002060009054906101000a900473ffffffffffffffffffffffffffffffffffffffff169050600073ffffffffffffffffffffffffffffffffffffffff168173ffffffffffffffffffffffffffffffffffffffff161415610d39576040517f08c379a0000000000000000000000000000000000000000000000000000000008152600401610d3090613d59565b60405180910390fd5b80915050919050565b600e8054610d4f9061378a565b80601f0160208091040260200160405190810160405280929190818152602001828054610d7b9061378a565b8015610dc85780601f10610d9d57610100808354040283529160200191610dc8565b820191906000526020600020905b815481529060010190602001808311610dab57829003601f168201915b505050505081565b60008073ffffffffffffffffffffffffffffffffffffffff168273ffffffffffffffffffffffffffffffffffffffff161415610e41576040517f08c379a0000000000000000000000000000000000000000000000000000000008152600401610e3890613deb565b60405180910390fd5b600560008373ffffffffffffffffffffffffffffffffffffffff1673ffffffffffffffffffffffffffffffffffffffff168152602001908152602001600020549050919050565b610eb97f65d7a28e3265b37a6474929f336521b332c1681b933f6cb9f3376673440d862a610eb46115b3565b610f31565b610ef8576040517f08c379a0000000000000000000000000000000000000000000000000000000008152600401610eef90613b74565b60405180910390fd5b610f00611c66565b565b6000610f298260016000868152602001908152602001600020611d0990919063ffffffff16565b905092915050565b600080600084815260200190815260200160002060000160008373ffffffffffffffffffffffffffffffffffffffff1673ffffffffffffffffffffffffffffffffffffffff16815260200190815260200160002060009054906101000a900460ff16905092915050565b606060038054610faa9061378a565b80601f0160208091040260200160405190810160405280929190818152602001828054610fd69061378a565b80156110235780601f10610ff857610100808354040283529160200191611023565b820191906000526020600020905b81548152906001019060200180831161100657829003601f168201915b5050505050905090565b6000801b81565b61104661103f6115b3565b8383611d23565b5050565b61105b6110556115b3565b83611674565b61109a576040517f08c379a0000000000000000000000000000000000000000000000000000000008152600401611091906139e4565b60405180910390fd5b6110a684848484611e90565b50505050565b60606110b782611547565b6110f6576040517f08c379a00000000000000000000000000000000000000000000000000000000081526004016110ed90613e7d565b60405180910390fd5b600f600083815260200190815260200160002080546111149061378a565b80601f01602080910402602001604051908101604052809291908181526020018280546111409061378a565b801561118d5780601f106111625761010080835404028352916020019161118d565b820191906000526020600020905b81548152906001019060200180831161117057829003601f168201915b50505050509050919050565b60006111b660016000848152602001908152602001600020611eec565b9050919050565b7f9f2df0fed2c77648de5860a4cc508cd0818c85b8b8a1ab4ceeef8d981c8956a681565b6111ea826109a2565b6111fb816111f66115b3565b6119ae565b6112058383611a7f565b505050565b611214600d611f01565b611227611221600d611f17565b82610909565b6112416112326115b3565b61123c600d611f17565b611f25565b50565b7fb19546dff01e856fb3f010c267a7b1c60363cf8a4664e21cc89c26224620214e81565b7f65d7a28e3265b37a6474929f336521b332c1681b933f6cb9f3376673440d862a81565b6000600760008473ffffffffffffffffffffffffffffffffffffffff1673ffffffffffffffffffffffffffffffffffffffff16815260200190815260200160002060008373ffffffffffffffffffffffffffffffffffffffff1673ffffffffffffffffffffffffffffffffffffffff16815260200190815260200160002060009054906101000a900460ff16905092915050565b6113517fb19546dff01e856fb3f010c267a7b1c60363cf8a4664e21cc89c26224620214e61134c6115b3565b610f31565b611390576040517f08c379a000000000000000000000000000000000000000000000000000000000815260040161138790613ee9565b60405180910390fd5b6113ba7f65d7a28e3265b37a6474929f336521b332c1681b933f6cb9f3376673440d862a826120f3565b50565b6113c78282610f31565b61149957600160008084815260200190815260200160002060000160008373ffffffffffffffffffffffffffffffffffffffff1673ffffffffffffffffffffffffffffffffffffffff16815260200190815260200160002060006101000a81548160ff02191690831515021790555061143e6115b3565b73ffffffffffffffffffffffffffffffffffffffff168173ffffffffffffffffffffffffffffffffffffffff16837f2f8788117e7eff1d82e926ec794901d17c78024a50270940304540a733656f0d60405160405180910390a45b5050565b60006114c5836000018373ffffffffffffffffffffffffffffffffffffffff1660001b612101565b905092915050565b60007f780e9d63000000000000000000000000000000000000000000000000000000007bffffffffffffffffffffffffffffffffffffffffffffffffffffffff1916827bffffffffffffffffffffffffffffffffffffffffffffffffffffffff19161480611540575061153f82612171565b5b9050919050565b60008073ffffffffffffffffffffffffffffffffffffffff166004600084815260200190815260200160002060009054906101000a900473ffffffffffffffffffffffffffffffffffffffff1673ffffffffffffffffffffffffffffffffffffffff1614159050919050565b600033905090565b816006600083815260200190815260200160002060006101000a81548173ffffffffffffffffffffffffffffffffffffffff021916908373ffffffffffffffffffffffffffffffffffffffff160217905550808273ffffffffffffffffffffffffffffffffffffffff1661162e83610c90565b73ffffffffffffffffffffffffffffffffffffffff167f8c5be1e5ebec7d5bd14f71427d1e84f3dd0314c0f7b2291e5b200ac8c7c3b92560405160405180910390a45050565b600061167f82611547565b6116be576040517f08c379a00000000000000000000000000000000000000000000000000000000081526004016116b590613f7b565b60405180910390fd5b60006116c983610c90565b90508073ffffffffffffffffffffffffffffffffffffffff168473ffffffffffffffffffffffffffffffffffffffff16148061173857508373ffffffffffffffffffffffffffffffffffffffff166117208461076c565b73ffffffffffffffffffffffffffffffffffffffff16145b806117495750611748818561128c565b5b91505092915050565b8273ffffffffffffffffffffffffffffffffffffffff1661177282610c90565b73ffffffffffffffffffffffffffffffffffffffff16146117c8576040517f08c379a00000000000000000000000000000000000000000000000000000000081526004016117bf9061400d565b60405180910390fd5b600073ffffffffffffffffffffffffffffffffffffffff168273ffffffffffffffffffffffffffffffffffffffff161415611838576040517f08c379a000000000000000000000000000000000000000000000000000000000815260040161182f9061409f565b60405180910390fd5b611843838383612253565b61184e6000826115bb565b6001600560008573ffffffffffffffffffffffffffffffffffffffff1673ffffffffffffffffffffffffffffffffffffffff168152602001908152602001600020600082825461189e91906140ee565b925050819055506001600560008473ffffffffffffffffffffffffffffffffffffffff1673ffffffffffffffffffffffffffffffffffffffff16815260200190815260200160002060008282546118f59190614122565b92505081905550816004600083815260200190815260200160002060006101000a81548173ffffffffffffffffffffffffffffffffffffffff021916908373ffffffffffffffffffffffffffffffffffffffff160217905550808273ffffffffffffffffffffffffffffffffffffffff168473ffffffffffffffffffffffffffffffffffffffff167fddf252ad1be2c89b69c2b068fc378daa952ba7f163c4a11628f55a4df523b3ef60405160405180910390a4505050565b6119b88282610f31565b611a47576119dd8173ffffffffffffffffffffffffffffffffffffffff166014612263565b6119eb8360001c6020612263565b6040516020016119fc92919061424c565b6040516020818303038152906040526040517f08c379a0000000000000000000000000000000000000000000000000000000008152600401611a3e91906130ad565b60405180910390fd5b5050565b611a5582826113bd565b611a7a816001600085815260200190815260200160002061149d90919063ffffffff16565b505050565b611a89828261249f565b611aae816001600085815260200190815260200160002061258090919063ffffffff16565b505050565b611abb610c79565b611afa576040517f08c379a0000000000000000000000000000000000000000000000000000000008152600401611af1906142d2565b60405180910390fd5b6000600c60006101000a81548160ff0219169083151502179055507f5db9ee0a495bf2e6ff9c91a7834c1ba4fdd244a5e8aa4e537bd38aeae4b073aa611b3e6115b3565b604051611b4b9190613173565b60405180910390a1565b6000611b6082610c90565b9050611b6e81600084612253565b611b796000836115bb565b6001600560008373ffffffffffffffffffffffffffffffffffffffff1673ffffffffffffffffffffffffffffffffffffffff1681526020019081526020016000206000828254611bc991906140ee565b925050819055506004600083815260200190815260200160002060006101000a81549073ffffffffffffffffffffffffffffffffffffffff021916905581600073ffffffffffffffffffffffffffffffffffffffff168273ffffffffffffffffffffffffffffffffffffffff167fddf252ad1be2c89b69c2b068fc378daa952ba7f163c4a11628f55a4df523b3ef60405160405180910390a45050565b611c6e610c79565b15611cae576040517f08c379a0000000000000000000000000000000000000000000000000000000008152600401611ca59061433e565b60405180910390fd5b6001600c60006101000a81548160ff0219169083151502179055507f62e78cea01bee320cd4e420270b5ea74000d11b0c9f74754ebdbfc544b05a258611cf26115b3565b604051611cff9190613173565b60405180910390a1565b6000611d1883600001836125b0565b60001c905092915050565b8173ffffffffffffffffffffffffffffffffffffffff168373ffffffffffffffffffffffffffffffffffffffff161415611d92576040517f08c379a0000000000000000000000000000000000000000000000000000000008152600401611d89906143aa565b60405180910390fd5b80600760008573ffffffffffffffffffffffffffffffffffffffff1673ffffffffffffffffffffffffffffffffffffffff16815260200190815260200160002060008473ffffffffffffffffffffffffffffffffffffffff1673ffffffffffffffffffffffffffffffffffffffff16815260200190815260200160002060006101000a81548160ff0219169083151502179055508173ffffffffffffffffffffffffffffffffffffffff168373ffffffffffffffffffffffffffffffffffffffff167f17307eab39ab6107e8899845ad3d59bd9653f200f220920489ca2b5937696c3183604051611e839190612ff9565b60405180910390a3505050565b611e9b848484611752565b611ea7848484846125db565b611ee6576040517f08c379a0000000000000000000000000000000000000000000000000000000008152600401611edd9061443c565b60405180910390fd5b50505050565b6000611efa82600001612772565b9050919050565b6001816000016000828254019250508190555050565b600081600001549050919050565b600073ffffffffffffffffffffffffffffffffffffffff168273ffffffffffffffffffffffffffffffffffffffff161415611f95576040517f08c379a0000000000000000000000000000000000000000000000000000000008152600401611f8c906144a8565b60405180910390fd5b611f9e81611547565b15611fde576040517f08c379a0000000000000000000000000000000000000000000000000000000008152600401611fd590614514565b60405180910390fd5b611fea60008383612253565b6001600560008473ffffffffffffffffffffffffffffffffffffffff1673ffffffffffffffffffffffffffffffffffffffff168152602001908152602001600020600082825461203a9190614122565b92505081905550816004600083815260200190815260200160002060006101000a81548173ffffffffffffffffffffffffffffffffffffffff021916908373ffffffffffffffffffffffffffffffffffffffff160217905550808273ffffffffffffffffffffffffffffffffffffffff16600073ffffffffffffffffffffffffffffffffffffffff167fddf252ad1be2c89b69c2b068fc378daa952ba7f163c4a11628f55a4df523b3ef60405160405180910390a45050565b6120fd8282611a4b565b5050565b600061210d8383612783565b61216657826000018290806001815401808255809150506001900390600052602060002001600090919091909150558260000180549050836001016000848152602001908152602001600020819055506001905061216b565b600090505b92915050565b60007f80ac58cd000000000000000000000000000000000000000000000000000000007bffffffffffffffffffffffffffffffffffffffffffffffffffffffff1916827bffffffffffffffffffffffffffffffffffffffffffffffffffffffff1916148061223c57507f5b5e139f000000000000000000000000000000000000000000000000000000007bffffffffffffffffffffffffffffffffffffffffffffffffffffffff1916827bffffffffffffffffffffffffffffffffffffffffffffffffffffffff1916145b8061224c575061224b826127a6565b5b9050919050565b61225e838383612820565b505050565b6060600060028360026122769190614534565b6122809190614122565b67ffffffffffffffff81111561229957612298613204565b5b6040519080825280601f01601f1916602001820160405280156122cb5781602001600182028036833780820191505090505b5090507f30000000000000000000000000000000000000000000000000000000000000008160008151811061230357612302613cb8565b5b60200101907effffffffffffffffffffffffffffffffffffffffffffffffffffffffffffff1916908160001a9053507f78000000000000000000000000000000000000000000000000000000000000008160018151811061236757612366613cb8565b5b60200101907effffffffffffffffffffffffffffffffffffffffffffffffffffffffffffff1916908160001a905350600060018460026123a79190614534565b6123b19190614122565b90505b6001811115612451577f3031323334353637383961626364656600000000000000000000000000000000600f8616601081106123f3576123f2613cb8565b5b1a60f81b82828151811061240a57612409613cb8565b5b60200101907effffffffffffffffffffffffffffffffffffffffffffffffffffffffffffff1916908160001a905350600485901c94508061244a9061458e565b90506123b4565b5060008414612495576040517f08c379a000000000000000000000000000000000000000000000000000000000815260040161248c90614604565b60405180910390fd5b8091505092915050565b6124a98282610f31565b1561257c57600080600084815260200190815260200160002060000160008373ffffffffffffffffffffffffffffffffffffffff1673ffffffffffffffffffffffffffffffffffffffff16815260200190815260200160002060006101000a81548160ff0219169083151502179055506125216115b3565b73ffffffffffffffffffffffffffffffffffffffff168173ffffffffffffffffffffffffffffffffffffffff16837ff6391f5c32d9c69d2a47ea670b442974b53935d1edc7fd64eb21e047a839171b60405160405180910390a45b5050565b60006125a8836000018373ffffffffffffffffffffffffffffffffffffffff1660001b612878565b905092915050565b60008260000182815481106125c8576125c7613cb8565b5b9060005260206000200154905092915050565b60006125fc8473ffffffffffffffffffffffffffffffffffffffff1661298c565b15612765578373ffffffffffffffffffffffffffffffffffffffff1663150b7a026126256115b3565b8786866040518563ffffffff1660e01b81526004016126479493929190614679565b602060405180830381600087803b15801561266157600080fd5b505af192505050801561269257506040513d601f19601f8201168201806040525081019061268f91906146da565b60015b612715573d80600081146126c2576040519150601f19603f3d011682016040523d82523d6000602084013e6126c7565b606091505b5060008151141561270d576040517f08c379a00000000000000000000000000000000000000000000000000000000081526004016127049061443c565b60405180910390fd5b805181602001fd5b63150b7a0260e01b7bffffffffffffffffffffffffffffffffffffffffffffffffffffffff1916817bffffffffffffffffffffffffffffffffffffffffffffffffffffffff19161491505061276a565b600190505b949350505050565b600081600001805490509050919050565b600080836001016000848152602001908152602001600020541415905092915050565b60007f5a05180f000000000000000000000000000000000000000000000000000000007bffffffffffffffffffffffffffffffffffffffffffffffffffffffff1916827bffffffffffffffffffffffffffffffffffffffffffffffffffffffff1916148061281957506128188261299f565b5b9050919050565b61282b838383612a19565b612833610c79565b15612873576040517f08c379a000000000000000000000000000000000000000000000000000000000815260040161286a90614779565b60405180910390fd5b505050565b600080836001016000848152602001908152602001600020549050600081146129805760006001826128aa91906140ee565b90506000600186600001805490506128c291906140ee565b90508181146129315760008660000182815481106128e3576128e2613cb8565b5b906000526020600020015490508087600001848154811061290757612906613cb8565b5b90600052602060002001819055508387600101600083815260200190815260200160002081905550505b8560000180548061294557612944614799565b5b600190038181906000526020600020016000905590558560010160008681526020019081526020016000206000905560019350505050612986565b60009150505b92915050565b600080823b905060008111915050919050565b60007f7965db0b000000000000000000000000000000000000000000000000000000007bffffffffffffffffffffffffffffffffffffffffffffffffffffffff1916827bffffffffffffffffffffffffffffffffffffffffffffffffffffffff19161480612a125750612a1182612b2d565b5b9050919050565b612a24838383612b97565b600073ffffffffffffffffffffffffffffffffffffffff168373ffffffffffffffffffffffffffffffffffffffff161415612a6757612a6281612b9c565b612aa6565b8173ffffffffffffffffffffffffffffffffffffffff168373ffffffffffffffffffffffffffffffffffffffff1614612aa557612aa48382612be5565b5b5b600073ffffffffffffffffffffffffffffffffffffffff168273ffffffffffffffffffffffffffffffffffffffff161415612ae957612ae481612d52565b612b28565b8273ffffffffffffffffffffffffffffffffffffffff168273ffffffffffffffffffffffffffffffffffffffff1614612b2757612b268282612e23565b5b5b505050565b60007f01ffc9a7000000000000000000000000000000000000000000000000000000007bffffffffffffffffffffffffffffffffffffffffffffffffffffffff1916827bffffffffffffffffffffffffffffffffffffffffffffffffffffffff1916149050919050565b505050565b600a80549050600b600083815260200190815260200160002081905550600a81908060018154018082558091505060019003906000526020600020016000909190919091505550565b60006001612bf284610dd0565b612bfc91906140ee565b9050600060096000848152602001908152602001600020549050818114612ce1576000600860008673ffffffffffffffffffffffffffffffffffffffff1673ffffffffffffffffffffffffffffffffffffffff168152602001908152602001600020600084815260200190815260200160002054905080600860008773ffffffffffffffffffffffffffffffffffffffff1673ffffffffffffffffffffffffffffffffffffffff168152602001908152602001600020600084815260200190815260200160002081905550816009600083815260200190815260200160002081905550505b6009600084815260200190815260200160002060009055600860008573ffffffffffffffffffffffffffffffffffffffff1673ffffffffffffffffffffffffffffffffffffffff16815260200190815260200160002060008381526020019081526020016000206000905550505050565b60006001600a80549050612d6691906140ee565b90506000600b60008481526020019081526020016000205490506000600a8381548110612d9657612d95613cb8565b5b9060005260206000200154905080600a8381548110612db857612db7613cb8565b5b906000526020600020018190555081600b600083815260200190815260200160002081905550600b600085815260200190815260200160002060009055600a805480612e0757612e06614799565b5b6001900381819060005260206000200160009055905550505050565b6000612e2e83610dd0565b905081600860008573ffffffffffffffffffffffffffffffffffffffff1673ffffffffffffffffffffffffffffffffffffffff168152602001908152602001600020600083815260200190815260200160002081905550806009600084815260200190815260200160002081905550505050565b828054612eae9061378a565b90600052602060002090601f016020900481019282612ed05760008555612f17565b82601f10612ee957805160ff1916838001178555612f17565b82800160010185558215612f17579182015b82811115612f16578251825591602001919060010190612efb565b5b509050612f249190612f28565b5090565b5b80821115612f41576000816000905550600101612f29565b5090565b6000604051905090565b600080fd5b600080fd5b60007fffffffff0000000000000000000000000000000000000000000000000000000082169050919050565b612f8e81612f59565b8114612f9957600080fd5b50565b600081359050612fab81612f85565b92915050565b600060208284031215612fc757612fc6612f4f565b5b6000612fd584828501612f9c565b91505092915050565b60008115159050919050565b612ff381612fde565b82525050565b600060208201905061300e6000830184612fea565b92915050565b600081519050919050565b600082825260208201905092915050565b60005b8381101561304e578082015181840152602081019050613033565b8381111561305d576000848401525b50505050565b6000601f19601f8301169050919050565b600061307f82613014565b613089818561301f565b9350613099818560208601613030565b6130a281613063565b840191505092915050565b600060208201905081810360008301526130c78184613074565b905092915050565b6000819050919050565b6130e2816130cf565b81146130ed57600080fd5b50565b6000813590506130ff816130d9565b92915050565b60006020828403121561311b5761311a612f4f565b5b6000613129848285016130f0565b91505092915050565b600073ffffffffffffffffffffffffffffffffffffffff82169050919050565b600061315d82613132565b9050919050565b61316d81613152565b82525050565b60006020820190506131886000830184613164565b92915050565b61319781613152565b81146131a257600080fd5b50565b6000813590506131b48161318e565b92915050565b600080604083850312156131d1576131d0612f4f565b5b60006131df858286016131a5565b92505060206131f0858286016130f0565b9150509250929050565b600080fd5b600080fd5b7f4e487b7100000000000000000000000000000000000000000000000000000000600052604160045260246000fd5b61323c82613063565b810181811067ffffffffffffffff8211171561325b5761325a613204565b5b80604052505050565b600061326e612f45565b905061327a8282613233565b919050565b600067ffffffffffffffff82111561329a57613299613204565b5b6132a382613063565b9050602081019050919050565b82818337600083830152505050565b60006132d26132cd8461327f565b613264565b9050828152602081018484840111156132ee576132ed6131ff565b5b6132f98482856132b0565b509392505050565b600082601f830112613316576133156131fa565b5b81356133268482602086016132bf565b91505092915050565b6000806040838503121561334657613345612f4f565b5b6000613354858286016130f0565b925050602083013567ffffffffffffffff81111561337557613374612f54565b5b61338185828601613301565b9150509250929050565b613394816130cf565b82525050565b60006020820190506133af600083018461338b565b92915050565b6000806000606084860312156133ce576133cd612f4f565b5b60006133dc868287016131a5565b93505060206133ed868287016131a5565b92505060406133fe868287016130f0565b9150509250925092565b6000819050919050565b61341b81613408565b811461342657600080fd5b50565b60008135905061343881613412565b92915050565b60006020828403121561345457613453612f4f565b5b600061346284828501613429565b91505092915050565b61347481613408565b82525050565b600060208201905061348f600083018461346b565b92915050565b600080604083850312156134ac576134ab612f4f565b5b60006134ba85828601613429565b92505060206134cb858286016131a5565b9150509250929050565b6000602082840312156134eb576134ea612f4f565b5b60006134f9848285016131a5565b91505092915050565b6000806040838503121561351957613518612f4f565b5b600061352785828601613429565b9250506020613538858286016130f0565b9150509250929050565b61354b81612fde565b811461355657600080fd5b50565b60008135905061356881613542565b92915050565b6000806040838503121561358557613584612f4f565b5b6000613593858286016131a5565b92505060206135a485828601613559565b9150509250929050565b600067ffffffffffffffff8211156135c9576135c8613204565b5b6135d282613063565b9050602081019050919050565b60006135f26135ed846135ae565b613264565b90508281526020810184848401111561360e5761360d6131ff565b5b6136198482856132b0565b509392505050565b600082601f830112613636576136356131fa565b5b81356136468482602086016135df565b91505092915050565b6000806000806080858703121561366957613668612f4f565b5b6000613677878288016131a5565b9450506020613688878288016131a5565b9350506040613699878288016130f0565b925050606085013567ffffffffffffffff8111156136ba576136b9612f54565b5b6136c687828801613621565b91505092959194509250565b6000602082840312156136e8576136e7612f4f565b5b600082013567ffffffffffffffff81111561370657613705612f54565b5b61371284828501613301565b91505092915050565b6000806040838503121561373257613731612f4f565b5b6000613740858286016131a5565b9250506020613751858286016131a5565b9150509250929050565b7f4e487b7100000000000000000000000000000000000000000000000000000000600052602260045260246000fd5b600060028204905060018216806137a257607f821691505b602082108114156137b6576137b561375b565b5b50919050565b7f4552433732313a20617070726f76656420717565727920666f72206e6f6e657860008201527f697374656e7420746f6b656e0000000000000000000000000000000000000000602082015250565b6000613818602c8361301f565b9150613823826137bc565b604082019050919050565b600060208201905081810360008301526138478161380b565b9050919050565b7f4552433732313a20617070726f76616c20746f2063757272656e74206f776e6560008201527f7200000000000000000000000000000000000000000000000000000000000000602082015250565b60006138aa60218361301f565b91506138b58261384e565b604082019050919050565b600060208201905081810360008301526138d98161389d565b9050919050565b7f4552433732313a20617070726f76652063616c6c6572206973206e6f74206f7760008201527f6e6572206e6f7220617070726f76656420666f7220616c6c0000000000000000602082015250565b600061393c60388361301f565b9150613947826138e0565b604082019050919050565b6000602082019050818103600083015261396b8161392f565b9050919050565b7f4552433732313a207472616e736665722063616c6c6572206973206e6f74206f60008201527f776e6572206e6f7220617070726f766564000000000000000000000000000000602082015250565b60006139ce60318361301f565b91506139d982613972565b604082019050919050565b600060208201905081810360008301526139fd816139c1565b9050919050565b7f455243373231456e756d657261626c653a206f776e657220696e646578206f7560008201527f74206f6620626f756e6473000000000000000000000000000000000000000000602082015250565b6000613a60602b8361301f565b9150613a6b82613a04565b604082019050919050565b60006020820190508181036000830152613a8f81613a53565b9050919050565b7f416363657373436f6e74726f6c3a2063616e206f6e6c792072656e6f756e636560008201527f20726f6c657320666f722073656c660000000000000000000000000000000000602082015250565b6000613af2602f8361301f565b9150613afd82613a96565b604082019050919050565b60006020820190508181036000830152613b2181613ae5565b9050919050565b7f54657272616e3732313a206d75737420686176652070617573657220726f6c65600082015250565b6000613b5e60208361301f565b9150613b6982613b28565b602082019050919050565b60006020820190508181036000830152613b8d81613b51565b9050919050565b7f4552433732314275726e61626c653a2063616c6c6572206973206e6f74206f7760008201527f6e6572206e6f7220617070726f76656400000000000000000000000000000000602082015250565b6000613bf060308361301f565b9150613bfb82613b94565b604082019050919050565b60006020820190508181036000830152613c1f81613be3565b9050919050565b7f455243373231456e756d657261626c653a20676c6f62616c20696e646578206f60008201527f7574206f6620626f756e64730000000000000000000000000000000000000000602082015250565b6000613c82602c8361301f565b9150613c8d82613c26565b604082019050919050565b60006020820190508181036000830152613cb181613c75565b9050919050565b7f4e487b7100000000000000000000000000000000000000000000000000000000600052603260045260246000fd5b7f4552433732313a206f776e657220717565727920666f72206e6f6e657869737460008201527f656e7420746f6b656e0000000000000000000000000000000000000000000000602082015250565b6000613d4360298361301f565b9150613d4e82613ce7565b604082019050919050565b60006020820190508181036000830152613d7281613d36565b9050919050565b7f4552433732313a2062616c616e636520717565727920666f7220746865207a6560008201527f726f206164647265737300000000000000000000000000000000000000000000602082015250565b6000613dd5602a8361301f565b9150613de082613d79565b604082019050919050565b60006020820190508181036000830152613e0481613dc8565b9050919050565b7f4552433732314d657461646174613a2055524920717565727920666f72206e6f60008201527f6e6578697374656e7420746f6b656e0000000000000000000000000000000000602082015250565b6000613e67602f8361301f565b9150613e7282613e0b565b604082019050919050565b60006020820190508181036000830152613e9681613e5a565b9050919050565b7f54657272616e3732313a206d7573742068617665206f776e657220726f6c6500600082015250565b6000613ed3601f8361301f565b9150613ede82613e9d565b602082019050919050565b60006020820190508181036000830152613f0281613ec6565b9050919050565b7f4552433732313a206f70657261746f7220717565727920666f72206e6f6e657860008201527f697374656e7420746f6b656e0000000000000000000000000000000000000000602082015250565b6000613f65602c8361301f565b9150613f7082613f09565b604082019050919050565b60006020820190508181036000830152613f9481613f58565b9050919050565b7f4552433732313a207472616e73666572206f6620746f6b656e2074686174206960008201527f73206e6f74206f776e0000000000000000000000000000000000000000000000602082015250565b6000613ff760298361301f565b915061400282613f9b565b604082019050919050565b6000602082019050818103600083015261402681613fea565b9050919050565b7f4552433732313a207472616e7366657220746f20746865207a65726f2061646460008201527f7265737300000000000000000000000000000000000000000000000000000000602082015250565b600061408960248361301f565b91506140948261402d565b604082019050919050565b600060208201905081810360008301526140b88161407c565b9050919050565b7f4e487b7100000000000000000000000000000000000000000000000000000000600052601160045260246000fd5b60006140f9826130cf565b9150614104836130cf565b925082821015614117576141166140bf565b5b828203905092915050565b600061412d826130cf565b9150614138836130cf565b9250827fffffffffffffffffffffffffffffffffffffffffffffffffffffffffffffffff0382111561416d5761416c6140bf565b5b828201905092915050565b600081905092915050565b7f416363657373436f6e74726f6c3a206163636f756e7420000000000000000000600082015250565b60006141b9601783614178565b91506141c482614183565b601782019050919050565b60006141da82613014565b6141e48185614178565b93506141f4818560208601613030565b80840191505092915050565b7f206973206d697373696e6720726f6c6520000000000000000000000000000000600082015250565b6000614236601183614178565b915061424182614200565b601182019050919050565b6000614257826141ac565b915061426382856141cf565b915061426e82614229565b915061427a82846141cf565b91508190509392505050565b7f5061757361626c653a206e6f7420706175736564000000000000000000000000600082015250565b60006142bc60148361301f565b91506142c782614286565b602082019050919050565b600060208201905081810360008301526142eb816142af565b9050919050565b7f5061757361626c653a2070617573656400000000000000000000000000000000600082015250565b600061432860108361301f565b9150614333826142f2565b602082019050919050565b600060208201905081810360008301526143578161431b565b9050919050565b7f4552433732313a20617070726f766520746f2063616c6c657200000000000000600082015250565b600061439460198361301f565b915061439f8261435e565b602082019050919050565b600060208201905081810360008301526143c381614387565b9050919050565b7f4552433732313a207472616e7366657220746f206e6f6e20455243373231526560008201527f63656976657220696d706c656d656e7465720000000000000000000000000000602082015250565b600061442660328361301f565b9150614431826143ca565b604082019050919050565b6000602082019050818103600083015261445581614419565b9050919050565b7f4552433732313a206d696e7420746f20746865207a65726f2061646472657373600082015250565b600061449260208361301f565b915061449d8261445c565b602082019050919050565b600060208201905081810360008301526144c181614485565b9050919050565b7f4552433732313a20746f6b656e20616c7265616479206d696e74656400000000600082015250565b60006144fe601c8361301f565b9150614509826144c8565b602082019050919050565b6000602082019050818103600083015261452d816144f1565b9050919050565b600061453f826130cf565b915061454a836130cf565b9250817fffffffffffffffffffffffffffffffffffffffffffffffffffffffffffffffff0483118215151615614583576145826140bf565b5b828202905092915050565b6000614599826130cf565b915060008214156145ad576145ac6140bf565b5b600182039050919050565b7f537472696e67733a20686578206c656e67746820696e73756666696369656e74600082015250565b60006145ee60208361301f565b91506145f9826145b8565b602082019050919050565b6000602082019050818103600083015261461d816145e1565b9050919050565b600081519050919050565b600082825260208201905092915050565b600061464b82614624565b614655818561462f565b9350614665818560208601613030565b61466e81613063565b840191505092915050565b600060808201905061468e6000830187613164565b61469b6020830186613164565b6146a8604083018561338b565b81810360608301526146ba8184614640565b905095945050505050565b6000815190506146d481612f85565b92915050565b6000602082840312156146f0576146ef612f4f565b5b60006146fe848285016146c5565b91505092915050565b7f4552433732315061757361626c653a20746f6b656e207472616e73666572207760008201527f68696c6520706175736564000000000000000000000000000000000000000000602082015250565b6000614763602b8361301f565b915061476e82614707565b604082019050919050565b6000602082019050818103600083015261479281614756565b9050919050565b7f4e487b7100000000000000000000000000000000000000000000000000000000600052603160045260246000fdfea2646970667358221220552b06cf946058b5114ca0f07fdae087167a7fe5caa6e202356b2b0678d583b464736f6c63430008090033",
  "immutableReferences": {},
  "source": "// SPDX-License-Identifier: MIT\n\npragma solidity ^0.8.4;\n\nimport \"@openzeppelin/contracts/token/ERC721/ERC721.sol\";\nimport \"@openzeppelin/contracts/token/ERC721/extensions/ERC721Enumerable.sol\";\nimport \"@openzeppelin/contracts/token/ERC721/extensions/ERC721Burnable.sol\";\nimport \"@openzeppelin/contracts/token/ERC721/extensions/ERC721Pausable.sol\";\nimport \"@openzeppelin/contracts/access/AccessControlEnumerable.sol\";\nimport \"@openzeppelin/contracts/utils/Counters.sol\";\n\n\n/**\n * @dev {ERC721} token, including:\n *\n *  - ability for holders to burn (destroy) their tokens\n *  - a minter role that allows for token minting (creation)\n *  - a pauser role that allows to stop all token transfers\n *  - token ID and URI autogeneration\n *\n * This contract uses {AccessControl} to lock permissioned functions using the\n * different roles - head to its documentation for details.\n *\n * The account that deploys the contract will be granted the minter and pauser\n * roles, as well as the default admin role, which will let it grant both minter\n * and pauser roles to other accounts.\n */\ncontract Terran721 is\n    AccessControlEnumerable,\n    ERC721Enumerable,\n    ERC721Burnable,\n    ERC721Pausable\n{\n    using Counters for Counters.Counter;\n// variables\n    bytes32 public constant MINTER_ROLE = keccak256(\"MINTER_ROLE\");\n    bytes32 public constant PAUSER_ROLE = keccak256(\"PAUSER_ROLE\");\n    bytes32 public constant OWNER_ROLE = keccak256(\"OWNER_ROLE\");\n\n    Counters.Counter private _tokenIdTracker;\n    string public baseURI;\n// mapping\n    mapping(uint256 => string) private _tokenURIs;\n\n// modifiers\n    modifier onlyOwner() {\n        require(\n            hasRole(OWNER_ROLE, _msgSender()),\n            \"Terran721: must have owner role\"\n        );\n        _;\n    }\n\n    modifier onlyMinter() {\n        require(\n            hasRole(MINTER_ROLE, _msgSender()),\n            \"Terran721: must have minter role\"\n        );\n        _;\n    }\n\n    modifier onlyPauser() {\n        require(\n            hasRole(PAUSER_ROLE, _msgSender()),\n            \"Terran721: must have pauser role\"\n        );\n        _;\n    }\n// constructor\n    /**\n     * @dev Grants `DEFAULT_ADMIN_ROLE`, `MINTER_ROLE` and `PAUSER_ROLE` to the\n     * account that deploys the contract.\n     *\n     * Token URIs will be autogenerated based on `baseURI` and their token IDs.\n     * See {ERC721-tokenURI}.\n     */\n    constructor(string memory name, string memory symbol) ERC721(name, symbol) {\n        // set first token ID to 1\n        _tokenIdTracker;\n        _setupRole(DEFAULT_ADMIN_ROLE, _msgSender());\n        _setupRole(OWNER_ROLE, _msgSender());\n        _setupRole(MINTER_ROLE, _msgSender());\n        _setupRole(PAUSER_ROLE, _msgSender());\n    }\n// functions\n    /**\n     * @dev Creates a new token for `to`. Its token ID will be automatically\n     * assigned (and available on the emitted {IERC721-Transfer} event)\n     *\n     * See {ERC721-_mint}.\n     *\n     * Requirements:\n     * - the sender must have the `MINTER_ROLE`\n     * - the sender must provide a valid token URI for the next token ID\n     * - TODO auto generate token URI from the id and the base URI\n     */\n    function mint(string memory _URI) public virtual {\n         _tokenIdTracker.increment();\n          setTokenURI(_tokenIdTracker.current(), _URI);\n        _mint(_msgSender(), _tokenIdTracker.current());\n    }\n\n\n    /**\n     * @dev set token URI for a given token ID\n     */\n    function setTokenURI(uint256 _tokenId, string memory _URI) public {\n        _tokenURIs[_tokenId] = _URI;\n\n    }\n\n        /**\n     * @dev See {IERC721Metadata-tokenURI}.\n     */\n    function tokenURI(uint256 tokenId) public view virtual override(ERC721) returns (string memory) {\n        require(_exists(tokenId), \"ERC721Metadata: URI query for nonexistent token\");\n\n        return _tokenURIs[tokenId];\n    }\n\n    /**\n     * @dev Pauses all token transfers.\n     *\n     * See {ERC721Pausable} and {Pausable-_pause}.\n     *\n     * Requirements:\n     *\n     * - the caller must have the `PAUSER_ROLE`.\n     */\n    function pause() public virtual onlyPauser {\n        _pause();\n    }\n\n    /**\n     * @dev Unpauses all token transfers.\n     *\n     * See {ERC721Pausable} and {Pausable-_unpause}.\n     *\n     * Requirements:\n     *\n     * - the caller must have the `PAUSER_ROLE`.\n     */\n    function unpause() public virtual onlyPauser {\n        _unpause();\n    }\n\n    function _beforeTokenTransfer(\n        address from,\n        address to,\n        uint256 tokenId\n    ) internal virtual override(ERC721, ERC721Enumerable, ERC721Pausable) {\n        super._beforeTokenTransfer(from, to, tokenId);\n    }\n\n    /**\n     * @dev See {IERC165-supportsInterface}.\n     */\n    function supportsInterface(bytes4 interfaceId)\n        public\n        view\n        virtual\n        override(AccessControlEnumerable, ERC721, ERC721Enumerable)\n        returns (bool)\n    {\n        return super.supportsInterface(interfaceId);\n    }\n\n    /**\n     * @dev give pause permission to the dao account\n     * \n     */\n    function setPausePermission(address _dao) public onlyOwner {\n        _setupRole(PAUSER_ROLE, _dao);  // set pauser role to the dao account\n    }\n}\n",
  "sourcePath": "/home/phoenix/Works/tacvue-nft/contracts/card721.sol",
  "compiler": {
    "name": "solc",
    "version": "0.8.9+commit.e5eed63a.Emscripten.clang"
  },
  "schemaVersion": "3.4.3",
  "updatedAt": "2021-12-06T18:47:11.024Z",
  "networkType": "ethereum",
  "devdoc": {
    "details": "{ERC721} token, including:  - ability for holders to burn (destroy) their tokens  - a minter role that allows for token minting (creation)  - a pauser role that allows to stop all token transfers  - token ID and URI autogeneration This contract uses {AccessControl} to lock permissioned functions using the different roles - head to its documentation for details. The account that deploys the contract will be granted the minter and pauser roles, as well as the default admin role, which will let it grant both minter and pauser roles to other accounts.",
    "kind": "dev",
    "methods": {
      "approve(address,uint256)": {
        "details": "See {IERC721-approve}."
      },
      "balanceOf(address)": {
        "details": "See {IERC721-balanceOf}."
      },
      "burn(uint256)": {
        "details": "Burns `tokenId`. See {ERC721-_burn}. Requirements: - The caller must own `tokenId` or be an approved operator."
      },
      "constructor": {
        "details": "Grants `DEFAULT_ADMIN_ROLE`, `MINTER_ROLE` and `PAUSER_ROLE` to the account that deploys the contract. Token URIs will be autogenerated based on `baseURI` and their token IDs. See {ERC721-tokenURI}."
      },
      "getApproved(uint256)": {
        "details": "See {IERC721-getApproved}."
      },
      "getRoleAdmin(bytes32)": {
        "details": "Returns the admin role that controls `role`. See {grantRole} and {revokeRole}. To change a role's admin, use {_setRoleAdmin}."
      },
      "getRoleMember(bytes32,uint256)": {
        "details": "Returns one of the accounts that have `role`. `index` must be a value between 0 and {getRoleMemberCount}, non-inclusive. Role bearers are not sorted in any particular way, and their ordering may change at any point. WARNING: When using {getRoleMember} and {getRoleMemberCount}, make sure you perform all queries on the same block. See the following https://forum.openzeppelin.com/t/iterating-over-elements-on-enumerableset-in-openzeppelin-contracts/2296[forum post] for more information."
      },
      "getRoleMemberCount(bytes32)": {
        "details": "Returns the number of accounts that have `role`. Can be used together with {getRoleMember} to enumerate all bearers of a role."
      },
      "grantRole(bytes32,address)": {
        "details": "Grants `role` to `account`. If `account` had not been already granted `role`, emits a {RoleGranted} event. Requirements: - the caller must have ``role``'s admin role."
      },
      "hasRole(bytes32,address)": {
        "details": "Returns `true` if `account` has been granted `role`."
      },
      "isApprovedForAll(address,address)": {
        "details": "See {IERC721-isApprovedForAll}."
      },
      "mint(string)": {
        "details": "Creates a new token for `to`. Its token ID will be automatically assigned (and available on the emitted {IERC721-Transfer} event) See {ERC721-_mint}. Requirements: - the sender must have the `MINTER_ROLE` - the sender must provide a valid token URI for the next token ID - TODO auto generate token URI from the id and the base URI"
      },
      "name()": {
        "details": "See {IERC721Metadata-name}."
      },
      "ownerOf(uint256)": {
        "details": "See {IERC721-ownerOf}."
      },
      "pause()": {
        "details": "Pauses all token transfers. See {ERC721Pausable} and {Pausable-_pause}. Requirements: - the caller must have the `PAUSER_ROLE`."
      },
      "paused()": {
        "details": "Returns true if the contract is paused, and false otherwise."
      },
      "renounceRole(bytes32,address)": {
        "details": "Revokes `role` from the calling account. Roles are often managed via {grantRole} and {revokeRole}: this function's purpose is to provide a mechanism for accounts to lose their privileges if they are compromised (such as when a trusted device is misplaced). If the calling account had been revoked `role`, emits a {RoleRevoked} event. Requirements: - the caller must be `account`."
      },
      "revokeRole(bytes32,address)": {
        "details": "Revokes `role` from `account`. If `account` had been granted `role`, emits a {RoleRevoked} event. Requirements: - the caller must have ``role``'s admin role."
      },
      "safeTransferFrom(address,address,uint256)": {
        "details": "See {IERC721-safeTransferFrom}."
      },
      "safeTransferFrom(address,address,uint256,bytes)": {
        "details": "See {IERC721-safeTransferFrom}."
      },
      "setApprovalForAll(address,bool)": {
        "details": "See {IERC721-setApprovalForAll}."
      },
      "setPausePermission(address)": {
        "details": "give pause permission to the dao account "
      },
      "setTokenURI(uint256,string)": {
        "details": "set token URI for a given token ID"
      },
      "supportsInterface(bytes4)": {
        "details": "See {IERC165-supportsInterface}."
      },
      "symbol()": {
        "details": "See {IERC721Metadata-symbol}."
      },
      "tokenByIndex(uint256)": {
        "details": "See {IERC721Enumerable-tokenByIndex}."
      },
      "tokenOfOwnerByIndex(address,uint256)": {
        "details": "See {IERC721Enumerable-tokenOfOwnerByIndex}."
      },
      "tokenURI(uint256)": {
        "details": "See {IERC721Metadata-tokenURI}."
      },
      "totalSupply()": {
        "details": "See {IERC721Enumerable-totalSupply}."
      },
      "transferFrom(address,address,uint256)": {
        "details": "See {IERC721-transferFrom}."
      },
      "unpause()": {
        "details": "Unpauses all token transfers. See {ERC721Pausable} and {Pausable-_unpause}. Requirements: - the caller must have the `PAUSER_ROLE`."
      }
    },
    "version": 1
  },
  "userdoc": {
    "kind": "user",
    "methods": {},
    "version": 1
  }
}